:020000040800F2
:10000000A80B002045010008714F000835100008BA
:100010006D4F0008250C00087B5E00080000000002
:10002000000000000000000000000000595400081B
:100030007D0C0008000000002D5000084555000808
:100040005F0100085F0100085F01000851530008CC
:100050005F0100085F010008DD0C00085F01000877
:100060005F0100085F010008210D00085F01000822
:100070005F0100085F0100085F0100085F010008E0
:100080005F0100085F0100085F0100085F010008D0
:100090005F0100085F0100085F010008590D0008BA
:1000A0005F0100085F0100085F0100085F010008B0
:1000B0005D5600085F0100085F0100085F0100084D
:1000C0005F0100085F0100085F0100085F01000890
:1000D0005F010008195A00082D5B0008355C000814
:1000E0005F0100085F0100085F0100085F01000870
:1000F0005F0100085F0100085F0100085F01000860
:100100005F0100085F0100085F0100085F0100084F
:10011000315900085F0100085F0100085F01000815
:100120005F0100085F0100085F0100085F0100082F
:10013000DFF80CD000F09CFB00480047E5690008A0
:10014000A80B00200648804706480047FEE7FEE768
:10015000FEE7FEE7FEE7FEE7FEE7FEE7FEE7FEE777
:10016000FD5500083101000838B5D0E90221491ECB
:1001700001EB410102EBC1014268C1EB011102EB4D
:1001800081010268C1EB011102EB8102D0E9043167
:1001900001EB410103EB81013023A1F5527191FB89
:1001A000F3F4174D6C4302EBC41291FBF3F403FB21
:1001B000141100921A2902DB124B1A4400920C22ED
:1001C00091FBF2F3104C6343009C04EBC3130093C8
:1001D00091FBF2F302FB13110C4A08E0491E40F2B6
:1001E000A324535C6343009C04EBC31300930029D6
:1001F000F4DC0146684600F07FFA009838BD000044
:100200003F0C0F008051010067C2030024740008F6
:1002100040EA01039B0703D009E008C9121F08C088
:10022000042AFAD203E011F8013B00F8013B521E08
:10023000F9D27047D2B201E000F8012B491EFBD27F
:1002400070470022F6E710B513460A4604461946E1
:10025000FFF7F0FF204610BD30B505462A460B4695
:1002600012F8010B13F8014B08B1A042F8D01CB1F1
:10027000002802D06D1CF1E7284630BD2DE9FE4F65
:10028000804681EA0300C00F0C46009021F0004137
:1002900023F00045B8EB0200A94105D240462146B3
:1002A00090461C460B46024623F00040104347D0C0
:1002B000270DC7F30A00C3F30A510290401A0190B8
:1002C00040286BDAC3F3130040F4801B0098924679
:1002D00020B10023D2EB030A63EB0B0B01985946C4
:1002E000C0F14002504600F0D6F906460D46504691
:1002F0005946019A00F0EEF910EB08006141002424
:1003000087EA115284EAE7731A4340D0009A62B335
:10031000019A012A4FEA075215DC001B61EB02012A
:100320004FF0004202EA0752CDE90042001C41F5BD
:10033000801132462B4600F034FA03B0BDE8F08F4E
:1003400040462146F9E7001B61EB0201001C41F524
:10035000801300185B412018A2F5001747EB03013A
:1003600040EAD570B6196D4111E06D084FEA3606C6
:1003700045EAC0754FEA0752001B61EB0201001C01
:1003800041F5801149084FEA3000001951413246C9
:100390002B4603B0BDE8F04F00F0F4B900980122FD
:1003A00040000023D0EB020263EBE073009821468B
:1003B0004FEAE074B8EB000061EB0401E9E783F079
:1003C00000435BE781F0004158E72DE9FE4F81EAE9
:1003D000030404F0004421F0004100944FF0000BAE
:1003E00023F0004350EA01045ED052EA03045BD0DC
:1003F000C3F30A54C1F30A552C44A4F2F334019414
:10040000A0FB0254C1F3130141F48011C3F31303A1
:1004100043F4801301FB024400FB034E840A970A55
:1004200044EA815447EA8357A4FB076802958D0A82
:1004300005FB07854FEA932C04FB0C542705029D0E
:100440004FEA065847EA1637B5EB08056EEB070C7E
:10045000870E920E47EA811742EA8312A7FB020138
:10046000B6EB0B0164EB00042B0D43EA0C335E1872
:1004700044EB1C50DA465146E7FB0201C5F3130476
:100480004FEA0B3343EA14534FEA0432019C43EA28
:100490000603A4F10C040294009CCDE900B400F022
:1004A00080F903B0BDE8F08F00200146F9E72DE99F
:1004B000F04D81EA030404F0004B21F0004514469E
:1004C0004FF0000A23F0004150EA050220D054EA20
:1004D00001021DD0C5F30A570246C5F31303C1F349
:1004E0001300C1F30A5640F4801543F48013A7EBC0
:1004F0000608101BD64608F2FD3873EB050002D340
:1005000008F1010801E092185B41B8F1000F03DA2D
:1005100000200146BDE8F08D00204FF48011064612
:1005200084460EE0171B73EB050705D3121B63EB24
:10053000050306434CEA010C49084FEA30009218C3
:100540005B4150EA0107EDD152EA030012D082EA82
:10055000040083EA0501084305D0101BAB4106D215
:100560000122002306E000224FF0004302E06FF07A
:10057000010253101AEB06004CEB085110EB0A0075
:1005800041EB0B01BDE8F04D00F0FCB80EB540F2B8
:10059000334102910021CDE900110A460B4600F0DB
:1005A00000F903B000BDC1F30A5210B5C1F3130145
:1005B00040F2FF3341F480119A4201DA002010BD6D
:1005C00040F233439A42A2F2334203DC524200F03B
:1005D00071F810BD904010BD30B5041E71F10004DB
:1005E00004DB4FF00044404264EB0101141E73F140
:1005F000000405DB1C464FF00043524263EB04034A
:10060000994208BF904230BD30B50B4601460020EC
:100610002022012409E021FA02F59D4205D303FAC4
:1006200002F5491B04FA02F52844151EA2F1010245
:10063000F1DC30BD2DE9F05F0546002092469B4677
:1006400088460646814640241BE0284641464746E8
:10065000224600F02FF853465A46C01A914110D353
:1006600011461846224600F016F82D1A67EB0108CD
:100670004F4622460120002100F00DF817EB00093B
:100680004E41201EA4F10104DFDC484631462A46D3
:100690004346BDE8F09F202A04DB203A00FA02F12D
:1006A000002070479140C2F1200320FA03F3194360
:1006B00090407047202A04DB203A21FA02F0002102
:1006C000704721FA02F3D040C2F120029140084362
:1006D00019467047202A06DBCB17203A41FA02F070
:1006E00043EAE07306E041FA02F3D040C2F120028F
:1006F000914008431946704710B500683C22B0FB92
:10070000F2F302FB1303B0FBF2F00B60B0FBF2F369
:1007100002FB1303B0FBF2F018224B60B0FBF2F3C4
:1007200002FB1303B0FBF2F0021D8B600723B2FB48
:10073000F3F403FB1422800040F2B55300F66C3052
:100740008A61B0FBF3F2B0FBF3F403FB1400443214
:1007500080084A61C8613B2802D3920700D0401C40
:100760000022074C13460A61E25C824203D8801AD9
:100770005B1C0B61F8E7401CC860084610BD000018
:100780003074000810B5141E73F1000408DA401C20
:1007900041F1000192185B411A4301D120F00100A0
:1007A00010BD2DE9F04D92469B4611B1B1FA81F290
:1007B00002E0B0FA80F220329046FFF76CFF044668
:1007C0000F4640EA0A0041EA0B0153465A460843E5
:1007D00013D0114653EA010019D0C8F14002504627
:1007E000FFF768FF05460E46504659464246FFF75A
:1007F00052FF084305D0012004E020463946BDE8F9
:10080000F08D0020054346EAE0762C4337430A98F2
:100810006305E40AA0EB08000022FD0A44EA4754FD
:100820000A3002D500200146E9E7010510196941A7
:10083000DDE9084500196941BDE8F04DA2E7C1F3C3
:100840000A52C1F3130140F2FF3341F480119A427E
:1008500002DA00200146704740F233439A42A2F286
:10086000334202DC5242FFF725BFFFF714BF0000FE
:10087000064C074D06E0E06840F0010394E80700ED
:1008800098471034AC42F6D3FFF756FC3C7400088E
:100890005C74000870B58C1810F8015B15F0070344
:1008A00001D110F8013B2A1106D110F8012B03E009
:1008B00010F8016B01F8016B5B1EF9D12B0705D411
:1008C0000023521E0DD401F8013BFAE710F8013B5A
:1008D000CB1A921C03E013F8015B01F8015B521E76
:1008E000F9D5A142D8D3002070BD000000B591B069
:1008F0000121480204F0C8FB4FF4004004F098FBCB
:100900000121142004F0C0FB00208DF843002020BA
:10091000ADF8400003208DF8420010A93F4800F0D8
:10092000FCFA0220ADF8400010A93D4800F0F5FAAD
:100930000121084604F088FB1E2008900020079043
:100940000F90384806904FF480600C9080200A90F9
:1009500020200D903448059080150B9000200990C0
:100960004FF480500E9005A9304800F069F901203D
:1009700000F022F9072301220B212B484C3800F00C
:10098000A9F807230222052127484C3800F0A2F8D5
:1009900007230322102124484C3800F09BF8002044
:1009A000009003904FF46020029001208DF8050024
:1009B0008DF8040003208DF8100069461A484C3861
:1009C00000F060F80121194800F02EF901211648C5
:1009D0004C3800F038F8012113484C3800F028F862
:1009E00011484C3800F0D2F800BF0F484C3800F0E6
:1009F0003FF80028F9D10C484C3800F0D7F800BF78
:100A000009484C3800F02AF80028F9D1012106489D
:100A10004C3800F0C0F811B000BD000000080140E3
:100A2000001001405C0300204C24014008000240FB
:100A300021B1826842F00102826003E0826822F004
:100A400001028260704721B1826842F48072826044
:100A500003E0826822F480728260704701460020C1
:100A60008A6802F004020AB1012000E00020704709
:100A7000014600208A6802F008020AB1012000E065
:100A80000020704730B502460020002350680F4C0C
:100A900020400D790C6844EA05242043506090689A
:100AA0000B4C2040D1E902542C434D7944EA4504D3
:100AB00020439060D06A20F470000C7C641EE4B285
:100AC000234340EA0350D06230BD0000FFFEF0FF38
:100AD000FDF7F1FFF0B504460D4600200021092D79
:100AE00011DDE068A5F10A0606EB4607072606FABF
:100AF00007F18843A5F10A0606EB460603FA06F15C
:100B00000843E0600CE0206905EB4507072606FA7C
:100B100007F1884305EB450603FA06F10843206117
:100B2000072A0FDA606B561E06EB86071F2606FAA9
:100B300007F18843561E06EB860605FA06F10843C0
:100B4000606322E00D2A0FDA206BD61F06EB8607C2
:100B50001F2606FA07F18843D61F06EB860605FA1C
:100B600006F10843206310E0E06AA2F10D0606EBEF
:100B700086071F2606FA07F18843A2F10D0606EB49
:100B8000860605FA06F10843E062F0BD816841F08F
:100B900008018160704721B1826842F4A00282603E
:100BA00003E0826822F4A00282607047816841F00D
:100BB000040181607047000030B10749096841F4C1
:100BC0000001054A116005E00349096821F40001AC
:100BD000014A1160704700000824014010B501204F
:100BE00004F062FA002004F05FFA10BD08B5014677
:100BF000002000900348009000980844009000985E
:100C0000008808BD006C004008B500220092044A2C
:100C10000092009A02440092009A116008BD000000
:100C2000006C004000BFFEE721B1026842F0010203
:100C3000026004E002684FF6FE731A4002607047DB
:100C400010B50022026847F6F0739A430C6A8B686D
:100C500023430C6923434C6923438C692343CC69A8
:100C600023434C6A23438C6A23431A430260CB68B4
:100C700043600B6883604B68C36010BD7047000021
:100C80000021074A11601146486000BF0449096805
:100C9000034A52689142F9D34FF47A71484370473E
:100CA000400200200021074A11604FF47A7141434D
:100CB000516000BF03490968024A52689142F9D362
:100CC000704700005002002000B501E005F07CFDF7
:100CD000011EA0F10100F9D100BD000010B505F022
:100CE00059FD0E48007850B905F04AFD0B480078D0
:100CF000401C0A490870012000F068F810BD074840
:100D00000078012807D105F035FD0020034908705F
:100D1000012000F05BF800BFF0E7000000000020B9
:100D200010B504F08FFA0B48007838B94FF47840CA
:100D300004F07CFA01200749087006E04FF478407F
:100D400004F068FA002003490870102000F03EF813
:100D500010BD00000100002010B504F073FA20203F
:100D600000F03AF8012814D11648007838B94FF449
:100D7000FC6004F05BFA01201249087006E04FF4B1
:100D8000FC6004F047FA00200E490870202000F0B3
:100D90001DF8402000F020F8012812D10A48007800
:100DA00030B91F2004F042FA01200749087005E01D
:100DB0001F2004F02FFA002003490870402000F0A3
:100DC00005F810BD02000020030000200149086062
:100DD0007047000014040140014600200022074B28
:100DE0001B6803EA0102054B14331B680B4013B167
:100DF0000AB1012000E0002070470000000401401B
:100E000051B18200A2F1C042126842F00103820097
:100E1000A2F1C042136009E08200A2F1C042126850
:100E2000034B1A408300A3F1C0431A6070470000CF
:100E3000FEFF0F00D0E901121143C268114302699D
:100E400011434269114382691143C2691143026A25
:100E50001143426A1143826A1143C26A1143026B11
:100E6000114302689200A2F1C04211608168082912
:100E70000BD101688900A1F1C041096841F040022D
:100E800001688900A1F1C0410A60416B0968426BA9
:100E9000526841EA0211426B926841EA0221426BB8
:100EA000928941EA0241426B128A41EA0251426B45
:100EB000127D41EA0261426B926911430268521C41
:100EC0009200A2F1C0421160C16AB1F5804F1BD1FE
:100ED000816B0968826B526841EA0211826B9268E9
:100EE00041EA0221826B128A41EA0251826B127D31
:100EF00041EA0261826B9269114302689200A2F199
:100F0000C042C2F8041107E06FF070420168890026
:100F1000A1F1C041C1F8042170472DE9F04102461A
:100F200000250026002000230024002791F803C09C
:100F30000CF00F0591F803C00CF0100CBCF1000F81
:100F400003D091F802C04CEA050591F800C0BCF14D
:100F5000000F31D0146800202BE04FF0010C0CFA88
:100F600000F3B1F800C00CEA03069E4220D18300D2
:100F70004FF00F0C0CFA03F7BC4305FA03FC4CEAE4
:100F8000040491F803C0BCF1280F06D14FF0010C06
:100F90000CFA00FCC2F814C00AE091F803C0BCF1DE
:100FA000480F05D14FF0010C0CFA00FCC2F810C03C
:100FB000401C0828D1D31460B1F800C0BCF1FF0F69
:100FC00034DD546800202EE000F1080C4FF00108D9
:100FD00008FA0CF3B1F800C00CEA03069E4221D1D6
:100FE00083004FF00F0C0CFA03F7BC4305FA03FC27
:100FF0004CEA040491F803C0BCF1280F05D100F1BC
:10100000080C08FA0CF8C2F8148091F803C0BCF17F
:10101000480F07D100F1080C4FF0010808FA0CF84E
:10102000C2F81080401C0828CED35460BDE8F0817F
:101030000161704700BFFEE770B5044600261748FF
:101040000588408845431548808846F60401884253
:1010500016D112488079012812D100200F498871D9
:101060002A2048812B2088810021084603F08CFE2D
:1010700001200A4988712B2048812A20888103E0B9
:101080000021084603F080FE03F05EFF002602E028
:1010900003480480761CAE42FAD370BD980300204A
:1010A0000008006C10B5FE48808849F24131884242
:1010B0007ED1CF2003F042FF002003F039FFC12092
:1010C00003F036FF302003F033FFED2003F036FF4E
:1010D000642003F02DFF032003F02AFF122003F009
:1010E00027FF812003F024FFE82003F027FF85205D
:1010F00003F01EFF102003F01BFF7A2003F018FFFF
:10110000CB2003F01BFF392003F012FF2C2003F04B
:101110000FFF002003F00CFF342003F009FF022032
:1011200003F006FFF72003F009FF202003F000FF83
:10113000EA2003F003FF002003F0FAFE002003F092
:10114000F7FEC02003F0FAFE1B2003F0F1FEC120E1
:1011500003F0F4FE012003F0EBFEC52003F0EEFEE9
:10116000302003F0E5FE302003F0E2FEC72003F05C
:10117000E5FEB72003F0DCFE362003F0DFFE48205A
:1011800003F0D6FE3A2003F0D9FE552003F0D0FE3E
:10119000B12003F0D3FE002003F0CAFE1A2003F0B2
:1011A000C7FEB62003F0CAFE0A2003F0C1FE00E02D
:1011B00097E0A22003F0BCFEF22003F0BFFE002067
:1011C00003F0B6FE262003F0B9FE012003F0B0FEC6
:1011D000E02003F0B3FE0F2003F0AAFE2A2003F064
:1011E000A7FE282003F0A4FE082003F0A1FE0E2095
:1011F00003F09EFE082003F09BFE542003F098FEAF
:10120000A92003F095FE432003F092FE0A2003F08C
:101210008FFE0F2003F08CFE002003F089FE0020DB
:1012200003F086FE002003F083FE002003F080FE22
:10123000E12003F083FE002003F07AFE152003F086
:1012400077FE172003F074FE072003F071FE1120D3
:1012500003F06EFE062003F06BFE2B2003F068FE09
:10126000562003F065FE3C2003F062FE052003F0EB
:101270005FFE102003F05CFE0F2003F059FE3F20BC
:1012800003F056FE3F2003F053FE0F2003F050FE04
:101290002B2003F053FE002003F04AFE002003F051
:1012A00047FE012003F044FE3F2003F041FE2A20C8
:1012B00003F044FE002003F03BFE002003F038FE64
:1012C000002003F035FEEF2003F032FE112003F082
:1012D00035FE7820FFF7D4FC292003F02FFE03F021
:1012E0001EB96F48808846F6040188427ED11120DD
:1012F00003F024FE1420FFF7C3FCD02003F01EFEF1
:10130000072003F015FE422003F012FE1D2003F01B
:101310000FFED12003F012FE002003F009FE1A2078
:1013200003F006FE092003F003FED22003F006FEC0
:10133000012003F0FDFD222003F0FAFDC02003F0A0
:10134000FDFD102003F0F4FD3B2003F0F1FD002033
:1013500003F0EEFD022003F0EBFD112003F0E8FDA9
:10136000C52003F0EBFD032003F0E2FDC82003F0ED
:10137000E5FD002003F0DCFD252003F0D9FD212050
:1013800003F0D6FD052003F0D3FD002003F0D0FDCF
:101390000A2003F0CDFD652003F0CAFD252003F0EF
:1013A000C7FD772003F0C4FD502003F0C1FD0F20DE
:1013B00003F0BEFD002003F0BBFDF82003F0BEFDEE
:1013C000012003F0B5FDFE2003F0B8FD002003F07E
:1013D000AFFD022003F0ACFD202003F0AFFD36206E
:1013E00003F0ACFD082003F0A3FD00E02AE03A2062
:1013F00003F0A4FD552003F09BFD2B2003F09EFD80
:10140000002003F095FD002003F092FD012003F081
:101410008FFD3F2003F08CFD2A2003F08FFD00207C
:1014200003F086FD002003F083FD012003F080FD22
:10143000DF2003F07DFD7820FFF722FC292003F058
:101440007DFD4CE71648808845F21031884240F017
:101450007D87ED2003F072FD012003F069FDFE2081
:1014600003F066FDEE2003F069FDDE2003F060FD71
:10147000212003F05DFDF12003F060FD012003F069
:1014800057FDDF2003F05AFD102003F051FDC4206A
:1014900003F054FD8F2003F04BFDC62002E0000056
:1014A0009803002003F04AFD002003F041FDE220F4
:1014B00003F03EFDE22003F03BFDE22003F038FDA7
:1014C000BF2003F03BFDAA2003F032FDB02003F063
:1014D00035FD0D2003F02CFD002003F029FD0D202B
:1014E00003F026FD002003F023FD112003F020FD72
:1014F000002003F01DFD192003F01AFD002003F069
:1015000017FD212003F014FD002003F011FD2D2014
:1015100003F00EFD002003F00BFD3D2003F008FD5D
:10152000002003F005FD5D2003F002FD002003F024
:10153000FFFC5D2003F0FCFC002003F0F9FCB1206F
:1015400003F0FCFC802003F0F3FC002003F0F0FC2F
:101550008B2003F0EDFC002003F0EAFC962003F062
:10156000E7FC002003F0E4FCB22003F0E7FC0020DD
:1015700003F0DEFC002003F0DBFC022003F0D8FCCB
:10158000002003F0D5FC032003F0D2FC002003F080
:10159000CFFCB32003F0D2FC002003F0C9FC0020F4
:1015A00003F0C6FC002003F0C3FC002003F0C0FCE5
:1015B000002003F0BDFC002003F0BAFC002003F083
:1015C000B7FC002003F0B4FC002003F0B1FC0020C5
:1015D00003F0AEFC002003F0ABFC002003F0A8FCFD
:1015E000002003F0A5FC002003F0A2FC002003F083
:1015F0009FFC002003F09CFC002003F099FC0020DD
:1016000003F096FC002003F093FC002003F090FC14
:10161000002003F08DFC002003F08AFC002003F082
:1016200087FC002003F084FCB42003F087FC8B20AF
:1016300003F07EFC002003F07BFC962003F078FC96
:10164000002003F075FCA12003F072FC002003F0E1
:101650006FFCB52003F072FC022003F069FC00204F
:1016600003F066FC032003F063FC002003F060FC41
:10167000042003F05DFC002003F05AFCB62003F0C8
:101680005DFC002003F054FC002003F051FCB72067
:1016900003F054FC002003F04BFC002003F048FC56
:1016A0003F2003F045FC002003F042FC5E2003F0E5
:1016B0003FFC002003F03CFC642003F039FC0020D8
:1016C00003F036FC8C2003F033FC002003F030FCE8
:1016D000AC2003F02DFC002003F02AFCDC2003F0FA
:1016E00027FC002003F024FC702003F021FC0020E4
:1016F00003F01EFC902003F01BFC002003F018FCFC
:10170000EB2003F015FC002003F012FCDC2003F0BA
:101710000FFC002003F00CFCB82003F00FFC0020AD
:1017200003F006FC002003F003FC002003F000FCA3
:10173000002003F0FDFB002003F0FAFB002003F083
:10174000F7FB002003F0F4FB002003F0F1FBBA20CC
:1017500003F0F4FB242003F0EBFB002003F0E8FB94
:10176000002003F0E5FB002003F0E2FBC12003F0C2
:10177000E5FB202003F0DCFB002003F0D9FB542024
:1017800003F0D6FB002003F0D3FBFF2003F0D0FBD7
:10179000002003F0CDFBC22003F0D0FB0A2003F0B1
:1017A000C7FB002003F0C4FB042003F0C1FB0020B2
:1017B00003F0BEFBC32003F0C1FB3C2003F0B8FBE9
:1017C000002003F0B5FB3A2003F0B2FB002003F049
:1017D000AFFB392003F0ACFB002003F0A9FB37205E
:1017E00003F0A6FB002003F0A3FB3C2003F0A0FBCA
:1017F000002003F09DFB362003F09AFB002003F04D
:1018000097FB322003F094FB002003F091FB2F2084
:1018100003F08EFB002003F08BFB2C2003F088FBF1
:10182000002003F085FB292003F082FB002003F059
:101830007FFB262003F07CFB002003F079FB2420B3
:1018400003F076FB002003F073FB242003F070FB11
:10185000002003F06DFB232003F06AFB002003F05F
:1018600067FB3C2003F064FB002003F061FB3620A3
:1018700003F05EFB002003F05BFB322003F058FB1B
:10188000002003F055FB2F2003F052FB002003F053
:101890004FFB2C2003F04CFB002003F049FB2920D8
:1018A00003F046FB002003F043FB262003F040FB3F
:1018B000002003F03DFB242003F03AFB002003F05E
:1018C00037FB242003F034FB002003F031FB2320FE
:1018D00003F02EFB002003F02BFBC42003F02EFBB3
:1018E000622003F025FB002003F022FB052003F01B
:1018F0001FFB002003F01CFB842003F019FB0020D9
:1019000003F016FBF02003F013FB002003F010FBA4
:10191000182003F00DFB002003F00AFBA42003F0C5
:1019200007FB002003F004FB182003F001FB00205C
:1019300003F0FEFA502003F0FBFA002003F0F8FA5F
:101940000C2003F0F5FA002003F0F2FA172003F060
:10195000EFFA002003F0ECFA952003F0E9FA0020FA
:1019600003F0E6FAF32003F0E3FA002003F0E0FAD4
:10197000E62003F0DDFA002003F0DAFAC52003F0D8
:10198000DDFA322003F0D4FA002003F0D1FA44202B
:1019900003F0CEFA002003F0CBFA652003F0C8FA7A
:1019A000002003F0C5FA762003F0C2FA002003F00D
:1019B000BFFA882003F0BCFA002003F0B9FAC62071
:1019C00003F0BCFA202003F0B3FA002003F0B0FAD1
:1019D000172003F0ADFA002003F0AAFA012003F06B
:1019E000A7FA002003F0A4FAC72003F0A7FA00200A
:1019F00003F09EFA002003F09BFA002003F098FA0F
:101A0000002003F095FAC82003F098FA002003F0B4
:101A10008FFA002003F08CFA002003F089FA0020EE
:101A200003F086FAC92003F089FA002003F080FA57
:101A3000002003F07DFA002003F07AFA002003F082
:101A400077FA002003F074FA002003F071FA002006
:101A500003F06EFA002003F06BFA002003F068FA3E
:101A6000002003F065FA002003F062FA002003F082
:101A70005FFA002003F05CFA002003F059FA00201E
:101A800003F056FA002003F053FAE02003F056FA70
:101A9000162003F04DFA002003F04AFA1C2003F050
:101AA00047FA002003F044FA212003F041FA002015
:101AB00003F03EFA362003F03BFA002003F038FA38
:101AC000462003F035FA002003F032FA522003F0EA
:101AD0002FFA002003F02CFA642003F029FA0020EA
:101AE00003F026FA7A2003F023FA002003F020FA0C
:101AF0008B2003F01DFA002003F01AFA992003F05E
:101B000017FA002003F014FAA82003F011FA0020BD
:101B100003F00EFAB92003F00BFA002003F008FAE4
:101B2000C42003F005FA002003F002FACA2003F0F3
:101B3000FFF9002003F0FCF9D22003F0F9F90020AE
:101B400003F0F6F9D92003F0F3F9002003F0F0F9DF
:101B5000E02003F0EDF9002003F0EAF9F32003F0B0
:101B6000E7F9002003F0E4F9E12003F0E7F916209B
:101B700003F0DEF9002003F0DBF91C2003F0D8F9B4
:101B8000002003F0D5F9222003F0D2F9002003F061
:101B9000CFF9362003F0CCF9002003F0C9F9452035
:101BA00003F0C6F9002003F0C3F9522003F0C0F996
:101BB000002003F0BDF9642003F0BAF9002003F01F
:101BC000B7F97A2003F0B4F9002003F0B1F98B20C3
:101BD00003F0AEF9002003F0ABF9992003F0A8F967
:101BE000002003F0A5F9A82003F0A2F9002003F0DB
:101BF0009FF9B92003F09CF9002003F099F9C42063
:101C000003F096F9002003F093F9CA2003F090F94D
:101C1000002003F08DF9D22003F08AF9002003F0B0
:101C200087F9D82003F084F9002003F081F9E0203F
:101C300003F07EF9002003F07BF9F32003F078F93C
:101C4000002003F075F9E22003F078F9052003F095
:101C50006FF9002003F06CF90B2003F069F9002004
:101C600003F066F91B2003F063F9002003F060F92C
:101C7000342003F05DF9002003F05AF9442003F00A
:101C800057F9002003F054F94F2003F051F90020D8
:101C900003F04EF9612003F04BF9002003F048F9FE
:101CA000792003F045F9002003F042F9882003F081
:101CB0003FF9002003F03CF9972003F039F90020A8
:101CC00003F036F9A62003F033F9002003F030F9D1
:101CD000B72003F02DF9002003F02AF9C22003F009
:101CE00027F9002003F024F9C72003F021F9002090
:101CF00003F01EF9D12003F01BF9002003F018F9BE
:101D0000D62003F015F9002003F012F9DD2003F0CE
:101D10000FF9002003F00CF9F32003F009F900207B
:101D200003F006F9E32003F009F9052003F000F9B8
:101D3000002003F0FDF80A2003F0FAF8002003F079
:101D4000F7F81C2003F0F4F8002003F0F1F833203A
:101D500003F0EEF8002003F0EBF8442003F0E8F87D
:101D6000002003F0E5F8502003F0E2F8002003F033
:101D7000DFF8622003F0DCF8002003F0D9F87820C7
:101D800003F0D6F8002003F0D3F8882003F0D0F851
:101D9000002003F0CDF8972003F0CAF8002003F0EC
:101DA000C7F8A62003F0C4F8002003F0C1F8B7205C
:101DB00003F0BEF8002003F0BBF8C22003F0B8F82F
:101DC000002003F0B5F8C72003F0B2F8002003F0BC
:101DD000AFF8D12003F0ACF8002003F0A9F8D5202B
:101DE00003F0A6F8002003F0A3F8DD2003F0A0F82C
:101DF000002003F09DF8F32003F09AF8002003F090
:101E000097F8E42003F09AF8012003F091F80020FD
:101E100003F08EF8012003F08BF8002003F088F81F
:101E2000022003F085F8002003F082F82A2003F056
:101E30007FF8002003F07CF83C2003F079F80020C4
:101E400003F076F84B2003F073F8002003F070F8ED
:101E50005D2003F06DF8002003F06AF8742003F0B1
:101E600067F8002003F064F8842003F061F8002094
:101E700003F05EF8932003F05BF8002003F058F8BD
:101E8000A22003F055F8002003F052F8B32003F02D
:101E90004FF8002003F04CF8BE2003F049F8002072
:101EA00003F046F8C42003F043F8002003F040F8A4
:101EB000CD2003F03DF8002003F03AF8D32003F0E2
:101EC00037F8002003F034F8DD2003F031F800206B
:101ED00003F02EF8F32003F02BF8002003F028F88D
:101EE000E52003F02BF8002003F022F8002003F097
:101EF0001FF8002003F01CF8002003F019F802205E
:101F000003F016F8002003F013F8292003F010F86E
:101F1000002003F00DF83C2003F00AF8002003F045
:101F200007F84B2003F004F8002003F001F85D20CF
:101F300002F0FEFF002002F0FBFF742002F0F8FF29
:101F4000002002F0F5FF842002F0F2FF002002F0F2
:101F5000EFFF932002F0ECFF002002F0E9FFA22047
:101F600002F0E6FF002002F0E3FFB32002F0E0FF02
:101F7000002002F0DDFFBE2002F0DAFF002002F0B8
:101F8000D7FFC42002F0D4FF002002F0D1FFCD2003
:101F900002F0CEFF002002F0CBFFD32002F0C8FFFA
:101FA000002002F0C5FFDC2002F0C2FF002002F09A
:101FB000BFFFF32002F0BCFF002002F0B9FFE620D3
:101FC00002F0BCFF112002F0B3FF002002F0B0FFCE
:101FD000342002F0ADFF002002F0AAFF562002F0EC
:101FE000A7FF002002F0A4FF762002F0A1FF00204E
:101FF00002F09EFF772002F09BFF002002F098FF86
:10200000662002F095FF002002F092FF882002F087
:102010008FFF002002F08CFF992002F089FF002042
:1020200002F086FFBB2002F083FF002002F080FF59
:10203000992002F07DFF002002F07AFF662002F076
:1020400077FF002002F074FF552002F071FF00209E
:1020500002F06EFF552002F06BFF002002F068FFD7
:10206000452002F065FF002002F062FF432002F0ED
:102070005FFF002002F05CFF442002F059FF0020C7
:1020800002F056FFE72002F059FF322002F050FF25
:10209000002002F04DFF552002F04AFF002002F020
:1020A00047FF762002F044FF002002F041FF662047
:1020B00002F03EFF002002F03BFF672002F038FFF5
:1020C000002002F035FF672002F032FF002002F00E
:1020D0002FFF872002F02CFF002002F029FF99201B
:1020E00002F026FF002002F023FFBB2002F020FFB9
:1020F000002002F01DFF992002F01AFF002002F0DC
:1021000017FF772002F014FF002002F011FF442097
:1021100002F00EFF002002F00BFF562002F008FF35
:10212000002002F005FF232002F002FF002002F051
:10213000FFFE332002F0FCFE002002F0F9FE4520F5
:1021400002F0F6FE002002F0F3FEE82002F0F6FEB8
:10215000002002F0EDFE002002F0EAFE992002F0DD
:10216000E7FE002002F0E4FE872002F0E1FE0020FE
:1021700002F0DEFE882002F0DBFE002002F0D8FE36
:10218000772002F0D5FE002002F0D2FE662002F099
:10219000CFFE002002F0CCFE882002F0C9FE002015
:1021A00002F0C6FEAA2002F0C3FE002002F0C0FE2C
:1021B000BB2002F0BDFE002002F0BAFE992002F022
:1021C000B7FE002002F0B4FE662002F0B1FE00204F
:1021D00002F0AEFE552002F0ABFE002002F0A8FE99
:1021E000552002F0A5FE002002F0A2FE442002F0DD
:1021F0009FFE002002F09CFE442002F099FE002089
:1022000002F096FE552002F093FE002002F090FEB0
:10221000E92002F093FEAA2002F08AFE002002F0DC
:1022200087FE002002F084FE002002F081FE0020E4
:1022300002F084FEAA2002F07BFECF2002F07EFE98
:10224000002002F075FE002002F072FE002002F075
:102250006FFE002002F06CFE002002F069FE0020FC
:1022600002F066FE002002F063FE002002F060FE35
:10227000002002F05DFE002002F05AFE002002F075
:1022800057FE002002F054FE002002F051FE002014
:1022900002F04EFE002002F04BFE002002F048FE4D
:1022A000002002F045FEF02002F048FE002002F07F
:1022B0003FFE502002F03CFE002002F039FE0020DC
:1022C00002F036FE002002F033FEF32002F036FE6C
:1022D000002002F02DFEF92002F030FE062002F070
:1022E00027FE102002F024FE292002F021FE00200B
:1022F00002F01EFE3A2002F021FE552002F018FEE8
:10230000112002F01BFE6420FEF7BAFC292002F027
:1023100015FE352002F012FE002002F009FE5120C9
:1023200002F00CFEFF2002F003FE532002F006FE36
:102330002C2002F0FDFD552002F000FE822002F06C
:10234000F7FD2C2002F0FAFD02F0E9B8FE48808883
:1023500045F2105188427DD155214FF4704002F072
:10236000FDFDAA214FF2010002F0F8FD52214FF2CB
:10237000020002F0F3FD08214FF2030002F0EEFD2F
:1023800001214FF2040002F0E9FD0D214FF430402D
:1023900002F0E4FD0D214BF2010002F0DFFD0D2102
:1023A0004BF2020002F0DAFD34214FF4364002F025
:1023B000D5FD34214BF2016002F0D0FD34214BF207
:1023C000026002F0CBFD0D214FF4314002F0C6FD5A
:1023D0000D214BF2011002F0C1FD0D214BF2021054
:1023E00002F0BCFD34214FF4374002F0B7FD342138
:1023F0004BF2017002F0B2FD34214BF2027002F098
:10240000ADFD00214FF4324002F0A8FD00214BF257
:10241000012002F0A3FD00214BF2022002F09EFDFC
:1024200024214FF4384002F099FD24214BF601009D
:1024300002F094FD24214BF6020002F08FFD0121F1
:102440004FF43F4002F08AFD0F214FF4334002F079
:1024500085FD00E0FDE30F214BF2013002F07EFD2F
:102460000F214BF2023002F079FD34214FF4394054
:1024700002F074FD34214BF6011002F06FFD34219F
:102480004BF6021002F06AFD08214FF4354002F0CD
:1024900065FD08214BF2015002F060FD08214BF26E
:1024A000025002F05BFD03214FF4424002F056FD62
:1024B00024214FF43A4002F051FD24214BF6012033
:1024C00002F04CFD24214BF6022002F047FD0021D2
:1024D0004FF43C4002F042FD78214BF6014002F0FF
:1024E0003DFD00214BF6024002F038FD00214FF483
:1024F0003D4002F033FD78214BF6015002F02EFDF5
:1025000000214BF6025002F029FD00214FF43E401D
:1025100002F024FD64214BF6016002F01FFD002152
:102520004FF4514002F01AFD33214DF2011002F038
:1025300015FD00214DF2021002F010FD34214DF284
:10254000031002F00BFD00214DF2041002F006FD15
:102550003A214DF2051002F001FD00214DF2061066
:1025600002F0FCFC4A214DF2071002F0F7FC0021BA
:102570004DF2081002F0F2FC5C214DF2091002F05D
:10258000EDFC00214DF20A1002F0E8FC81214DF231
:102590000B1002F0E3FC00214DF20C1002F0DEFC07
:1025A000A6214DF20D1002F0D9FC00214DF20E10C3
:1025B00002F0D4FCE5214DF20F1002F0CFFC012116
:1025C0004DF2101002F0CAFC13214DF2111002F06E
:1025D000C5FC01214DF2121002F0C0FC54214DF255
:1025E000131002F0BBFC01214DF2141002F0B6FCF6
:1025F00082214DF2151002F0B1FC01214DF21610AE
:1026000002F0ACFCCA214DF2171002F0A7FC022127
:102610004DF2181002F0A2FC00214DF2191002F048
:102620009DFC02214DF21A1002F098FC01214DF29E
:102630001B1002F093FC02214DF21C1002F08EFCE4
:1026400034214DF21D1002F089FC02214DF21E10C2
:1026500002F084FC67214DF21F1002F07FFC022182
:102660004DF2201002F07AFC84214DF2211002F08C
:1026700075FC02214DF2221002F070FCA4214DF2F3
:10268000231002F06BFC02214DF2241002F066FCD4
:10269000B7214DF2251002F061FC02214DF2261007
:1026A00002F05CFCCF214DF2271002F057FC022112
:1026B0004DF2281002F052FCDE214DF2291002F0FA
:1026C0004DFC02214DF22A1002F048FCF2214DF29D
:1026D0002B1002F043FC02214DF22C1002F03EFCC4
:1026E000FE214DF22D1002F039FC03214DF22E1087
:1026F00002F034FC10214DF22F1002F02FFC0321C8
:102700004DF2301002F02AFC33214DF2311002F06C
:1027100025FC03214DF2321002F020FC6D214DF218
:10272000331002F01BFC00214FF4524002F016FC63
:1027300033214DF2012002F011FC00214DF2022064
:1027400002F00CFC342101E0980300204DF203203C
:1027500002F004FC00214DF2042002F0FFFB3A21BC
:102760004DF2052002F0FAFB00214DF2062002F0A6
:10277000F5FB4A214DF2072002F0F0FB00214DF25B
:10278000082002F0EBFB5C214DF2092002F0E6FB91
:1027900000214DF20A2002F0E1FB81214DF20B20D5
:1027A00002F0DCFB00214DF20C2002F0D7FBA62149
:1027B0004DF20D2002F0D2FB00214DF20E2002F06E
:1027C000CDFBE5214DF20F2002F0C8FB01214DF2B7
:1027D000102002F0C3FB13214DF2112002F0BEFBCA
:1027E00001214DF2122002F0B9FB54214DF21320C9
:1027F00002F0B4FB01214DF2142002F0AFFB822164
:102800004DF2152002F0AAFB01214DF2162002F034
:10281000A5FBCA214DF2172002F0A0FB02214DF2C8
:10282000182002F09BFB00214DF2192002F096FBCC
:1028300002214DF21A2002F091FB01214DF21B20E2
:1028400002F08CFB02214DF21C2002F087FB3421A8
:102850004DF21D2002F082FB02214DF21E2002F0FB
:102860007DFB67214DF21F2002F078FB02214DF223
:10287000202002F073FB84214DF2212002F06EFB38
:1028800002214DF2222002F069FBA4214DF2232007
:1028900002F064FB02214DF2242002F05FFBB7211D
:1028A0004DF2252002F05AFB02214DF2262002F0C3
:1028B00055FBCF214DF2272002F050FB02214DF2B3
:1028C000282002F04BFBDE214DF2292002F046FBCE
:1028D00002214DF22A2002F041FBF2214DF22B2081
:1028E00002F03CFB02214DF22C2002F037FBFE21CE
:1028F0004DF22D2002F032FB03214DF22E2002F08A
:102900002DFB10214DF22F2002F028FB03214DF268
:10291000302002F023FB33214DF2312002F01EFB68
:1029200003214DF2322002F019FB6D214DF23320CC
:1029300002F014FB00214FF4534002F00FFB33214F
:102940004DF2013002F00AFB00214DF2023002F09C
:1029500005FB34214DF2033002F000FB00214DF263
:10296000043002F0FBFA3A214DF2053002F0F6FA9B
:1029700000214DF2063002F0F1FA4A214DF2073003
:1029800002F0ECFA00214DF2083002F0E7FA5C2187
:102990004DF2093002F0E2FA00214DF20A3002F065
:1029A000DDFA81214DF20B3002F0D8FA00214DF210
:1029B0000C3002F0D3FAA6214DF20D3002F0CEFA1F
:1029C00000214DF20E3002F0C9FAE5214DF20F3030
:1029D00002F0C4FA01214DF2103002F0BFFA1321C7
:1029E0004DF2113002F0BAFA01214DF2123002F02C
:1029F000B5FA54214DF2133002F0B0FA01214DF234
:102A0000143002F0ABFA82214DF2153002F0A6FA32
:102A100001214DF2163002F0A1FACA214DF2173011
:102A200002F09CFA02214DF2183002F097FA0021D0
:102A30004DF2193002F092FA02214DF21A3002F0F2
:102A40008DFA01214DF21B3002F088FA02214DF27D
:102A50001C3002F083FA34214DF21D3002F07EFA70
:102A600002214DF21E3002F079FA67214DF21F303B
:102A700002F074FA02214DF2203002F06FFA842144
:102A80004DF2213002F06AFA02214DF2223002F0BA
:102A900065FAA4214DF2233002F060FA02214DF2D2
:102AA000243002F05BFAB7214DF2253002F056FADD
:102AB00002214DF2263002F051FACF214DF227309B
:102AC00002F04CFA02214DF2283002F047FADE21E2
:102AD0004DF2293002F042FA02214DF22A3002F082
:102AE0003DFAF2214DF22B3002F038FA02214DF27C
:102AF0002C3002F033FAFE214DF22D3002F02EFA86
:102B000003214DF22E3002F029FA10214DF22F3020
:102B100002F024FA03214DF2303002F01FFA332183
:102B20004DF2313002F01AFA03214DF2323002F048
:102B300015FA6D214DF2333002F010FA00214FF4F6
:102B4000544002F00BFA33214DF2014002F006FA34
:102B500000214DF2024002F001FA34214DF203400F
:102B600002F0FCF900214DF2044002F0F7F93A219D
:102B70004DF2054002F0F2F900214DF2064002F05C
:102B8000EDF94A214DF2074002F0E8F900214DF23B
:102B9000084002F0E3F95C214DF2094002F0DEF951
:102BA00000214DF20A4002F0D9F981214DF20B408B
:102BB00002F0D4F900214DF20C4002F0CFF9A62129
:102BC0004DF20D4002F0CAF900214DF20E4002F024
:102BD000C5F9E5214DF20F4002F0C0F901214DF297
:102BE000104002F0BBF913214DF2114002F0B6F98A
:102BF00001214DF2124002F0B1F954214DF213407F
:102C000002F0ACF901214DF2144002F0A7F9822143
:102C10004DF2154002F0A2F901214DF2164002F0EA
:102C20009DF9CA214DF2174002F098F902214DF2A8
:102C3000184002F093F900214DF2194002F08EF98C
:102C400002214DF21A4002F089F901214DF21B4098
:102C500000E006E302F082F902214DF21C4002F08E
:102C60007DF934214DF21D4002F078F902214DF238
:102C70001E4002F073F967214DF21F4002F06EF919
:102C800002214DF2204002F069F984214DF22140E9
:102C900002F064F902214DF2224002F05FF9A42112
:102CA0004DF2234002F05AF902214DF2244002F085
:102CB00055F9B7214DF2254002F050F902214DF2AD
:102CC000264002F04BF9CF214DF2274002F046F9A1
:102CD00002214DF2284002F041F9DE214DF2294057
:102CE00002F03CF902214DF22A4002F037F9F221BC
:102CF0004DF22B4002F032F902214DF22C4002F04D
:102D00002DF9FE214DF22D4002F028F903214DF25C
:102D10002E4002F023F910214DF22F4002F01EF94F
:102D200003214DF2304002F019F933214DF23140C8
:102D300002F014F903214DF2324002F00FF96D2137
:102D40004DF2334002F00AF900214FF4554002F0F1
:102D500005F933214DF2015002F000F900214DF246
:102D6000025002F0FBF834214DF2035002F0F6F865
:102D700000214DF2045002F0F1F83A214DF20550D5
:102D800002F0ECF800214DF2065002F0E7F84A217B
:102D90004DF2075002F0E2F800214DF2085002F027
:102DA000DDF85C214DF2095002F0D8F800214DF217
:102DB0000A5002F0D3F881214DF20B5002F0CEF808
:102DC00000214DF20C5002F0C9F8A6214DF20D5031
:102DD00002F0C4F800214DF20E5002F0BFF8E521D8
:102DE0004DF20F5002F0BAF801214DF2105002F0EE
:102DF000B5F813214DF2115002F0B0F801214DF257
:102E0000125002F0ABF854214DF2135002F0A6F824
:102E100001214DF2145002F0A1F882214DF215501B
:102E200002F09CF801214DF2165002F097F8CA21E9
:102E30004DF2175002F092F802214DF2185002F0B4
:102E40008DF800214DF2195002F088F802214DF260
:102E50001A5002F083F801214DF21B5002F07EF867
:102E600002214DF21C5002F079F834214DF21D5030
:102E700002F074F802214DF21E5002F06FF8672143
:102E80004DF21F5002F06AF802214DF2205002F07C
:102E900065F884214DF2215002F060F802214DF2D4
:102EA000225002F05BF8A4214DF2235002F056F8B4
:102EB00002214DF2245002F051F8B7214DF2255075
:102EC00002F04CF802214DF2265002F047F8CF21D3
:102ED0004DF2275002F042F802214DF2285002F044
:102EE0003DF8DE214DF2295002F038F802214DF272
:102EF0002A5002F033F8F2214DF22B5002F02EF856
:102F000002214DF22C5002F029F8FE214DF22D50F5
:102F100002F024F803214DF22E5002F01FF8102188
:102F20004DF22F5002F01AF803214DF2305002F00A
:102F300015F833214DF2315002F010F803214DF213
:102F4000325002F00BF86D214DF2335002F006F8CA
:102F500000214FF4564002F001F833214DF2016098
:102F600001F0FCFF00214DF2026001F0F7FF342177
:102F70004DF2036001F0F2FF00214DF2046001F018
:102F8000EDFF3A214DF2056001F0E8FF00214DF21E
:102F9000066001F0E3FF4A214DF2076001F0DEFF19
:102FA00000214DF2086001F0D9FF5C214DF209606B
:102FB00001F0D4FF00214DF20A6001F0CFFF812122
:102FC0004DF20B6001F0CAFF00214DF20C6001F0E0
:102FD000C5FFA6214DF20D6001F0C0FF00214DF2AA
:102FE0000E6001F0BBFFE5214DF20F6001F0B6FF6E
:102FF00001214DF2106001F0B1FF13214DF211607B
:1030000001F0ACFF01214DF2126001F0A7FF542145
:103010004DF2136001F0A2FF01214DF2146001F0A6
:103020009DFF82214DF2156001F098FF01214DF2C4
:10303000166001F093FFCA214DF2176001F08EFF78
:1030400002214DF2186001F089FF00214DF2196054
:1030500001F084FF02214DF21A6001F07FFF01218F
:103060004DF21B6001F07AFF02214DF21C6001F06D
:1030700075FF34214DF21D6001F070FF02214DF209
:103080001E6001F06BFF67214DF21F6001F066FFCB
:1030900002214DF2206001F061FF84214DF2216098
:1030A00001F05CFF02214DF2226001F057FFA421E4
:1030B0004DF2236001F052FF02214DF2246001F035
:1030C0004DFFB7214DF2256001F048FF02214DF27E
:1030D000266001F043FFCF214DF2276001F03EFF53
:1030E00002214DF2286001F039FFDE214DF2296006
:1030F00001F034FF02214DF22A6001F02FFFF2218E
:103100004DF22B6001F02AFF02214DF22C6001F0FC
:1031100025FFFE214DF22D6001F020FF03214DF22D
:103120002E6001F01BFF10214DF22F6001F016FF01
:1031300003214DF2306001F011FF33214DF2316077
:1031400001F00CFF03214DF2326001F007FF6D2109
:103150004DF2336001F002FF55214FF4704001F051
:10316000FDFEAA214FF2010001F0F8FE52214FF2BC
:10317000020001F0F3FE08214FF2030001F0EEFE21
:1031800000214FF2040001F0E9FECC214FF4314060
:1031900001F0E4FE00214BF2011001F0DFFE0521F9
:1031A0004FF4364001F0DAFE70214FF4374001F061
:1031B000D5FE70214BF2017001F0D0FE01214FF4D9
:1031C000384001F0CBFE03214BF6010001F0C6FEB2
:1031D00003214BF6020001F0C1FE03214BF6030070
:1031E00001F0BCFE02214FF43C4001F0B7FE00218B
:1031F0004BF6014001F0B2FE00214BF6024001F017
:10320000ADFED0214FF4494001F0A8FE02214CF65A
:10321000011001F0A3FE50214CF6021001F09EFEB9
:1032200050214CF6031001F099FE50214CF6041089
:1032300001F094FE00214FF4545001F08FFE55210F
:103240004FF4685001F08AFE4FF4885001F076FE8A
:103250007820FDF739FD4FF4245001F06FFE01F0A6
:103260005EB9FE48808849F2253188427ED147F612
:10327000F001E52001F072FE4FF48071012001F0B1
:103280006DFE4FF4E061022001F068FE41F2300172
:10329000032001F063FE0021042001F05FFE40F2F4
:1032A0000221082001F05AFE0021092001F056FEFB
:1032B00000210A2001F052FE00210C2001F04EFEF8
:1032C00000210D2001F04AFE00210F2001F046FEF2
:1032D0000021102001F042FE0721112001F03EFEE6
:1032E0000021122001F03AFE0021132001F036FEE9
:1032F0000021072001F032FE41F29061102001F020
:103300002DFE40F22721112001F028FE9D211220E0
:1033100001F024FE4FF4C851132001F01FFE2521B7
:10332000292001F01BFE0D212B2001F017FE0721A3
:10333000302001F013FE40F20331312001F00EFE87
:103340000321322001F00AFE40F20621352001F06F
:1033500005FE0821362001F001FE40F2064137202B
:1033600001F0FCFD4FF44171382000E057E001F01E
:10337000F5FD0721392001F0F1FD40F202613C200A
:1033800001F0ECFD08213D2001F0E8FD0021502076
:1033900001F0E4FDEF21512001F0E0FD0021522079
:1033A00001F0DCFD40F23F11532001F0D7FD4FF456
:1033B0002741602001F0D2FD0121612001F0CEFD06
:1033C00000216A2001F0CAFD0021802001F0C6FD25
:1033D0000021812001F0C2FD0021822001F0BEFD0C
:1033E0000021832001F0BAFD0021842001F0B6FD08
:1033F0000021852001F0B2FD1021902001F0AEFDEA
:103400004FF4C061922001F0A9FD40F23311072072
:1034100001F0A4FD2221002001F0A0FD1FE78F484C
:10342000808849F2283188427ED141F28F01EC2018
:1034300001F094FD41F23421EF2001F08FFD4FF4B3
:103440008071012001F08AFD4FF4E061022001F05B
:1034500085FD41F23001032001F080FD00210420B0
:1034600001F07CFD40F20221082001F077FD0021EF
:10347000092001F073FD00210A2001F06FFD0121F8
:103480000C2001F06BFD00210D2001F067FD0021F3
:103490000F2001F063FD0021102001F05FFD0721E6
:1034A000112001F05BFD0021122001F057FD0021E9
:1034B000132001F053FD0121072001F04FFD3220C0
:1034C000FDF7DEFB41F29041102001F047FD40F294
:1034D0002721112001F042FD3220FDF7D1FB8A2186
:1034E000122001F03BFD3220FDF7CAFB4FF4D05112
:1034F000132001F033FD0621292001F02FFD0D21BD
:103500002B2001F02BFD3220FDF7BAFB00212020FB
:1035100001F024FD0021212001F020FD3220FDF7E3
:10352000AFFB0021302000E074E001F017FD40F215
:103530000461312001F012FD40F20531322001F02A
:103540000DFD0021352001F009FD40F6094136202E
:1035500001F004FD4FF40171372001F0FFFC40F24F
:103560000131382001F0FAFC40F20771392001F0F6
:10357000F5FC00213C2001F0F1FC40F60A213D2041
:1035800001F0ECFC3220FDF77BFB0021502001F024
:10359000E5FCEF21512001F0E1FC0021522001F077
:1035A000DDFC40F23F11532001F0D8FC4FF42741DD
:1035B000602001F0D3FC0121612001F0CFFC00214B
:1035C0006A2001F0CBFC0021802001F0C7FC002123
:1035D000812001F0C3FC0021822001F0BFFC00210A
:1035E000832001F0BBFC0021842001F0B7FC002106
:1035F000852001F0B3FC1021902001F0AFFC4FF4C6
:10360000C061922001F0AAFC40F23311072001F0C2
:10361000A5FC24E61148808849F2203188427DD1FA
:103620000021084601F09AFC4FF48071012001F05E
:1036300095FC4FF4E061022001F090FC41F2300172
:10364000032001F08BFC0021042001F087FC40F2F4
:103650000221082001F082FC002101E098030020F3
:10366000092001F07BFC00210A2001F077FC0121F8
:103670000C2001F073FC00210D2001F06FFC0021F3
:103680000F2001F06BFC3220FDF7FAFA40F2011135
:10369000072001F063FC3220FDF7F2FA4FF4865167
:1036A000102001F05BFC0721112001F057FC4FF4C2
:1036B0008871122001F052FC4FF43061132001F0A8
:1036C0004DFC0021292001F049FC44F210012B207F
:1036D00001F044FC0021502001F040FCEF2151207A
:1036E00001F03CFC0021522001F038FC40F23F1177
:1036F000532001F033FC4FF41C51602001F02EFCEC
:103700000121612001F02AFC00216A2001F026FC41
:103710000021802001F022FC002100E031E0812026
:1037200001F01CFC0021822001F018FC0021832004
:1037300001F014FC0021842001F010FC0021852000
:1037400001F00CFC1021902001F008FC00219220D7
:1037500001F004FC0121932001F000FC4FF488717A
:10376000952001F0FBFB0021972001F0F7FB0021E1
:10377000982001F0F3FB40F27311072001F0EEFBFB
:103780006DE5FE48808849F2313188427DD141F2B1
:103790001401E72001F0E2FB4FF48071012001F0F9
:1037A000DDFB4FF40071022001F0D8FB41F238013B
:1037B000032001F0D3FB40F20221082001F0CEFBF0
:1037C0000021092001F0CAFB00210A2001F0C6FBFC
:1037D00000210C2001F0C2FB00210D2001F0BEFBF6
:1037E00000210F2001F0BAFB0021102001F0B6FBF0
:1037F0000721112001F0B2FB0021122001F0AEFBE5
:103800000021132001F0AAFBC820FDF739FA41F28C
:103810009061102001F0A2FB40F22721112001F05D
:103820009DFB3220FDF72CFA0C21122001F096FBB3
:103830003220FDF725FA4FF40061132001F08EFBD2
:103840001121292001F08AFB0B212B2001F086FB9E
:103850003220FDF715FA0021202001F07FFB40F215
:103860003F11212001F07AFB0021302001F076FB8E
:103870004FF48371312001F071FB0021322001F0FF
:103880006DFB4FF40171352000E064E001F066FB50
:1038900041F20A61362001F061FB40F207713720E6
:1038A00001F05CFB4FF48371382001F057FB40F2CC
:1038B0000771392001F052FB40F202413C2001F037
:1038C0004DFB40F60F413D2001F048FB0021502008
:1038D00001F044FBEF21512001F040FB0021522078
:1038E00001F03CFB40F23F11532001F037FB4FF455
:1038F0001C51602001F032FB0121612001F02EFB00
:1039000000216A2001F02AFB0021802001F026FB23
:103910000021812001F022FB0021822001F01EFB0A
:103920000021832001F01AFB0021842001F016FB06
:103930000021852001F012FB1021902001F00EFBE8
:103940004FF4C061922001F009FB40F233110720CF
:1039500001F004FB83E48948808845F208418842ED
:103960007ED14FF48071012001F0F8FA4FF4E0614C
:10397000022001F0F3FA41F23001032001F0EEFAE7
:103980000021042001F0EAFA40F20721082001F0AA
:10399000E5FA0021092001F0E1FA00210A2001F0F6
:1039A000DDFA00210C2001F0D9FA00210D2001F0F0
:1039B000D5FA00210F2001F0D1FA1420FDF760F9AB
:1039C00041F2B061102001F0C9FA0121112001F08B
:1039D000C5FA0121172001F0C1FA4FF49C711220A1
:1039E00001F0BCFA4FF40061132001F0B7FA09218D
:1039F000292001F0B3FA09212A2001F0AFFA0021B1
:103A0000A42001F0ABFA0021502001F0A7FAEF2129
:103A1000512001F0A3FA0021522001F09FFA40F258
:103A20003F11532001F09AFA4FF41C51602001F02D
:103A300095FA0121612001F091FA00216A2001F03C
:103A40008DFA0021802001F089FA0021812001F007
:103A500085FA0021822001F081FA0021832000E014
:103A600023E001F07BFA0021842001F077FA0021A5
:103A7000852001F073FA1321902001F06FFA0021E4
:103A8000922001F06BFA0321932001F067FA4FF4C2
:103A90008871952001F062FA40F27311072001F05D
:103AA0005DFA3220FDF7ECF8B8E43448808841F242
:103AB000055188427ED10021072001F04FFA3220C3
:103AC000FDF7DEF84FF48E71122001F047FA012164
:103AD000A42001F043FA0F21082001F03FFA082149
:103AE0000A2001F03BFA08210D2001F037FA40F2DC
:103AF0000771302001F032FA0721312001F02EFA4F
:103B000040F20361322001F029FA4FF4E0613320E2
:103B100001F024FA40F20221342001F01FFA0221C0
:103B2000352001F01BFA41F60F71362001F016FA2C
:103B300040F20771372001F011FA0021382001F01E
:103B40000DFA0021392001F009FA40F207713A20FC
:103B500001F004FA00213B2001F000FA07213C208B
:103B600001F0FCF900213D2001F0F8F93220FDF7C9
:103B700087F80121072001F0F1F901E09803002006
:103B80000121172001F0EAF93220FDF779F84FF40E
:103B9000BD51102001F0E2F940F21721112001F08F
:103BA000DDF94FF48F71122001F0D8F94FF47061F4
:103BB000132000E097E001F0D1F900212A2001F064
:103BC000CDF90A21292001F0C9F94FF49F71122083
:103BD00001F0C4F90021502001F0C0F9EF2151207B
:103BE00001F0BCF90021522001F0B8F940F23F1178
:103BF000532001F0B3F94FF41C51602001F0AEF9ED
:103C00000121612001F0AAF900216A2001F0A6F942
:103C10000021802001F0A2F90021812001F09EF90D
:103C20000021822001F09AF90021832001F096F909
:103C30000021842001F092F90021852001F08EF905
:103C40001321902001F08AF94FF44071922001F085
:103C500085F90521932001F081F90021952001F0DB
:103C60007DF90021972001F079F90021982001F0D9
:103C700075F94FF48071012001F070F94FF4E061A3
:103C8000022001F06BF941F23801032001F066F9DE
:103C90000021042001F062F900210C2001F05EF9FE
:103CA00000210F2001F05AF90021202001F056F9DF
:103CB0000021212001F052F92121072001F04EF9C5
:103CC0001420FCF7DDFF6121072001F047F91420E3
:103CD000FCF7D6FF40F27311072001F03FF91420E2
:103CE000FCF7CEFF95E4FE4880884BF205518842F0
:103CF0007ED10021084601F031F90021084601F08B
:103D00002DF90021084601F029F90021084601F0AB
:103D100025F90121A42001F021F91420FCF7B0FFBE
:103D20004FF41C51602001F019F940F202210820E3
:103D300001F014F94FF40571302001F00FF943F24E
:103D40001571312001F00AF940F20461322001F0CE
:103D500005F940F61661332001F000F942F2112115
:103D6000342001F0FBF84FF4A851352001F0F6F8AB
:103D700048F20751362001F0F1F841F207413720AF
:103D800001F0ECF841F20341382001F0E7F820217E
:103D9000392001F0E3F81A21902001F0DFF800212A
:103DA000102001F0DBF80721112001F0D7F80021E5
:103DB000122001F0D3F80021132001F0CFF81420D5
:103DC000FCF75EFF4FF4E661102001F0C7F840F207
:103DD0003711112001F0C2F81420FCF751FF4FF405
:103DE000DC71122001F0BAF81420FCF749FF00E062
:103DF00083E04FF47061132001F0B0F880212A2095
:103E000001F0ACF84821292001F0A8F81420FCF7B3
:103E100037FF4FF48071012001F0A0F84FF4E0610A
:103E2000022001F09BF841F23801032001F096F8DE
:103E300040F20221082001F091F800210A2001F04F
:103E40008DF800210C2001F089F800210D2001F0EF
:103E500085F830210E2001F081F80021502001F07A
:103E60007DF8EF21512001F079F80021522001F076
:103E700075F840F23F11532001F070F84FF41C51D7
:103E8000602001F06BF80121612001F067F800214A
:103E90006A2001F063F81121902001F05FF84FF4DF
:103EA000C061922001F05AF840F20241932001F0E3
:103EB00055F80221942001F051F81420FCF7E0FE9F
:103EC0000121072001F04AF81420FCF7D9FE6121F6
:103ED000072001F043F840F27311072001F03EF88B
:103EE0000021202001F03AF80021212001F036F8CD
:103EF0002221002001F032F811E3794880884CF249
:103F0000055188427ED10021084601F027F80021A2
:103F1000084601F023F81420FCF7B2FE0021084601
:103F200001F01CF80021084601F018F800210846AD
:103F300001F014F80021084601F010F80121A42036
:103F400001F00CF81420FCF79BFE4FF41C5160208C
:103F500001F004F840F60601082000F0FFFF40F2EF
:103F60000371302000F0FAFF0121312000F0F6FF4C
:103F70000421322000F0F2FF4FF48171332000F071
:103F8000EDFF4FF44071342000F0E8FF40F20311E0
:103F9000352000F0E3FF1F21362000F0DFFF40F264
:103FA0000371372000F0DAFF0121382000F0D6FF3E
:103FB0000421392000F0D2FF1521902000F0CEFF1F
:103FC0004FF48261102000F0C9FF40F24721112018
:103FD00000F0C4FF4FF4DE71122000F0BFFF4FF479
:103FE0006061132000F0BAFF7820FCF749FE4FF41F
:103FF0008071012000F0B2FF4FF40071022000F048
:10400000ADFF00E050E041F23001032000F0A6FFD8
:1040100008210A2000F0A2FF00210C2000F09EFFE2
:1040200020210E2000F09AFF00210F2000F096FFC3
:104030000021202000F092FF0021212000F08EFFBF
:104040003D212A2000F08AFF1420FCF719FE2D21C3
:10405000292000F083FF0021502000F07FFF4DF267
:10406000EF01512000F07AFF0021522000F076FF8E
:1040700040F23F11532000F071FF0021612000F059
:104080006DFF00216A2000F069FF4FF4407192201B
:1040900000F064FF0521932000F060FF4FF4807171
:1040A000072000F05BFF3AE20D48808844F231516E
:1040B00088427CD10121002000F050FF0A20FCF74B
:1040C000DFFD41F22861102000F048FF0E21122090
:1040D00000F044FF40F63921132000F03FFF01E0DB
:1040E000980300200A20FCF7CBFD4021112000F0AE
:1040F00035FF5021152000F031FF0A20FCF7C0FDEC
:104100001E21122000F02AFF0A20FCF7B9FD4FF40F
:10411000B151102000F022FF42F63921132000F0A7
:104120001DFF0A20FCF7ACFD4FF48071012000F068
:1041300015FF4FF44071022000F010FF41F23801EA
:10414000032000F00BFF40F20221082000F006FFE0
:1041500008210A2000F002FF0021302000F0FEFEBE
:1041600040F20241312000F0F9FE4FF48371322019
:1041700000F0F4FE40F20351332000F0EFFE4FF464
:104180008271342000F0EAFE40F20131352000F067
:10419000E5FE40F20771362000F0E0FE40F2053106
:1041A000372000F0DBFE4FF40271382000E040E0E1
:1041B00000F0D4FE40F60B71392000F0CFFE022152
:1041C000412000F0CBFE4FF41C51602000F0C6FEF1
:1041D0000121612000F0C2FE4FF40471902000F034
:1041E000BDFE4FF48571922000F0B8FE04219320AB
:1041F00000F0B4FE4FF48071A02000F0AFFE01216A
:10420000072000F0ABFE2121072000F0A7FE2321AC
:10421000072000F0A3FE3321072000F09FFE40F2AC
:104220003311072000F09AFE0021A02000F096FE36
:1042300075E1BB48808844F2355188427ED13021F7
:10424000152000F08BFE10219A2000F087FE20211F
:10425000112000F083FE43F22841102000F07EFE82
:104260000221122000F07AFE41F23801132000F002
:1042700075FE2820FCF704FD1221084600F06EFEB2
:104280002820FCF7FDFC43F22041102000F066FEE0
:1042900043F23801132000F061FE4620FCF7F0FCE9
:1042A0000021302000F05AFE40F20241312000F09F
:1042B00055FE40F20731322000F050FE4FF44171BC
:1042C000332000F04BFE0421342000F047FE40F282
:1042D0000141352000F042FE40F20771362000F027
:1042E0003DFE40F20531372000F038FE4FF4C26148
:1042F000382000F033FE4FF4C261392000F02EFE6A
:104300004FF48071012000F029FE4FF4407102202B
:1043100000F024FE41F23001032000F01FFE40F6C1
:104320000801082000F01AFE08210A2000F016FEFD
:104330004FF41C51602000F011FE00E031E001213B
:10434000612000F00BFE4FF49F71902000F006FEFC
:104350004FF48071922000F001FE4FF480719320A1
:1043600000F0FCFD4FF44051A02000F0F7FD1021BB
:10437000A32000F0F3FD0121072000F0EFFD212133
:10438000072000F0EBFD2321072000F0E7FD33219B
:10439000072000F0E3FD40F23311072000F0DEFDBE
:1043A000BDE05F48808841F663118842F8D1E22081
:1043B00000F0C4FD1D2000F0BBFD022000F0B8FDA0
:1043C000042000F0B5FD6420FCF77EFCE02000F046
:1043D000B5FD012000F0ACFD0A20FCF751FCE02007
:1043E00000F0ACFD032000F0A3FD0C20FCF748FC1E
:1043F000012000F0A3FD0A20FCF742FCE62000F0BB
:104400009DFD2F2000F094FDFF2000F091FDFF2086
:1044100000F08EFDB02000F091FD202000F088FD1E
:10442000002000F085FD032000F082FD40F21F30E7
:1044300000F07EFD012000F07BFD40F2DF1000F077
:1044400077FD002000F074FDB42000F077FD04201B
:1044500000F06EFD40F21F4000F06AFD002000F009
:1044600067FD2E2000F064FD002000F061FD0020BB
:1044700000F05EFD002000F05BFD002000F058FD24
:10448000B62000F05BFD022000F052FD4FF40370F7
:1044900000F04EFD002000F04BFD172000F048FD1D
:1044A000152000F045FD002000F042FD002000F046
:1044B0003FFDF02000F042FD032000F039FD2920EF
:1044C00000F03CFDD02000F039FD002000F030FD70
:1044D000BE2000F033FD052000F02AFDFE2000F094
:1044E00027FD012000F024FD002000F021FD002028
:1044F00000F01EFD002000F01BFDB82000F01EFDA6
:10450000032000F015FD012000F012FDBA2000F09C
:1045100015FD012000F00CFD642000F095FA10BD9F
:104520009803002010B50446002C66D16C498871B0
:10453000F02008804FF4A07048800846808849F237
:10454000413188420BD06648808846F60401884293
:1045500005D06348808845F2103188421AD12C205A
:104560005F4908812A2048812B208881084680885D
:1045700046F60401884205D05948808845F210313A
:10458000884206D14FF4A070554908804FF4F0706E
:104590004880A1E05248808845F21051884210D1ED
:1045A0004FF430504E4908814FF4285048814FF461
:1045B0002C5088814FF4F07008804FF44870488088
:1045C0008AE04748808841F6631188420DD12C204B
:1045D000434908812B2048812A2088814FF4F070BC
:1045E00008804FF44870488076E022203C490881DA
:1045F00020204881212088816EE00120384988717F
:104600004FF4A0700880F02048800846808849F266
:104610004131884205D03248808845F210318842C5
:1046200007D12C202E4908812A2048812B208881FF
:104630003FE02B48808846F60401884207D12C20B1
:10464000274908812B2048812A20888131E024488D
:10465000808845F21051884210D14FF430502049E3
:1046600008814FF4285048814FF42C5088814FF432
:10467000487008804FF4F07048801AE0184880882D
:1046800041F6631188420DD12C20154908812A205A
:1046900048812B2088814FF4487008804FF4F070D7
:1046A000488006E022200E490881212048812020F0
:1046B00088810B48808846F60401884205D0084866
:1046C000808845F21031884206D14FF4F0700449D9
:1046D00008804FF4A0704880002000F0DFF910BD82
:1046E0009803002030B504460D462946204600F0C8
:1046F0004BFB00F029FC024800880249088030BDCD
:10470000280000200008006C00B59DB001210802BF
:1047100000F09AFC01200790002008900F200990DB
:1047200000200A900B900C900D90009001900320B7
:1047300002900020039004900590069006200E90B1
:1047400000200F90109010201190002012901490D3
:104750001390159016904FF48050179000201890E9
:104760004FF48040199000201A9007A81B90CDF8B4
:1047700070D00EA8FCF75EFB01210620FCF740FB81
:104780001DB000BD08B501214FF4B47000F07CFCF1
:104790000120ADF8000010208DF8030003208DF8F3
:1047A000020069461648FCF7B8FB4CF23370ADF8CE
:1047B000000018208DF8030003208DF802006946E0
:1047C0001048FCF7AAFB4FF68070ADF800001820E7
:1047D0008DF8030003208DF8020069460A48FCF7B3
:1047E0009CFB41F20100ADF8000018208DF8030099
:1047F00003208DF8020069460448FCF78EFB08BDD3
:10480000000C01400014014000180140002001404C
:1048100010B5FFF7B7FFFFF777FF3220FCF730FA4C
:1048200000F01AF8FCF73EFC0020FFF77BFE0121A8
:104830000348FCF7FDFB4FF6FF70FCF7FDFB10BDD6
:10484000000C014008B5034800880090BDF8000046
:1048500008BD00000008006C10B5002000F0E8F86A
:104860006E49888008468088FF280ADB08468088D1
:104870004FF6FF71884204D068488088B0F5134F26
:104880007ED1D32000F05AFBFFF7DCFF634988801C
:10489000FFF7D8FF61498880FFF7D4FF5F49888020
:1048A000084680884FF6FF7101EA00205B49888046
:1048B000FFF7C8FF59498988084358498880084646
:1048C000808849F2413188425AD0BF2000F036FB3F
:1048D000FFF7B8FF51498880FFF7B4FF4F49888040
:1048E000FFF7B0FF4D498880FFF7ACFF4B49888048
:1048F000084680884FF6FF7101EA0020474988800A
:10490000FFF7A0FF45498988084344498880084645
:10491000808846F6040188427AD0D42000F00EFB4D
:10492000FFF790FF3D498880FFF78CFF3B49888067
:10493000FFF788FF39498880084680884FF6FF7165
:1049400001EA002035498880FFF77CFF33498988D8
:104950000843324988800846808845F210318842F1
:1049600056D04FF45A4000F0E9FAFFF76BFF2B499D
:1049700088804FF45B4000F0E1FAFFF763FF00E04E
:1049800046E026498880084680884FF6FF7101EA94
:104990000020224988804FF45C4000F0CFFAFFF7F6
:1049A00051FF1E49898808431C4988800846808831
:1049B000B0F5004F02D145F210508880174880882A
:1049C00045F21051884223D0A12000F0B7FAFFF73A
:1049D00039FF12498880FFF735FF10498880084663
:1049E00080884FF6FF7101EA00200C498880FFF7AC
:1049F00029FF0A4989880843084988800846808831
:104A000045F26171884203D141F663100349888001
:104A10000248818802A001F033FA10BD98030020FB
:104A20006C6364206964A3BA25580D0A0000000075
:104A300010B50446204600F081FA0520FCF744F941
:104A4000FFF700FF10BD00002DE9F0470446BE202F
:104A500000F074FA052000F06BFA2046FBF796FD93
:104A600007464FF066320C4BFBF7AFFC0546FBF7F1
:104A70009AFD1FFA80F9484600F05AFA012000F02A
:104A800057FAFF2000F054FA002000F051FA0020FD
:104A900000F04EFABDE8F0876666044070B5044643
:104AA00000230026B748807901280BD1B5488088BB
:104AB00046F60401884205D0B248808841F6631169
:104AC000884208D1AF488079F0B9AE48808841F675
:104AD0006311884218D1082C15D2DFE804F00406CF
:104AE000080A0C0E101206240DE007240BE0042423
:104AF00009E0052407E0012405E0002403E0032485
:104B000001E0022400BF00BF9E48808849F2413185
:104B1000884217D09B48808846F60401884211D00D
:104B20009848808845F2103188420BD0954880889B
:104B300045F21051884205D09248808841F66311B1
:104B400088427DD1082C1CD2DFE804F00406090C51
:104B50000F12151800BF14E043F0800311E043F07A
:104B600040030EE043F0C0030BE043F0200308E0F5
:104B700043F0600305E043F0A00302E043F0E003EC
:104B800000BF00BF7F48808845F21051884202D1A3
:104B90004FF4585600E036267A48808845F21031A6
:104BA00088420DD07748808845F21051884207D05E
:104BB0007448808841F66311884201D043F00803AD
:104BC0007048808846F60401884201D143F0020310
:104BD0001946304600F0C2F96A48808841F66311F0
:104BE00088421DD003F0200068B1664800886549FE
:104BF0004988884214DA63480588408861490880FA
:104C0000084645800CE05F4800885E494988884234
:104C100006DD5C48058840885A490880084645807A
:104C20005848808845F21051884254D155494889E6
:104C300000F084F9002000F07BF95249498900E036
:104C400078E0491C88B200F079F9002000F070F992
:104C50004C494989891C88B200F070F94949098892
:104C6000491EC1F30F2000F063F946494989C91C68
:104C700088B200F063F943490978491EC8B200F0D0
:104C800057F94049888900F059F9002000F050F99F
:104C90003C498989491C88B200F050F9002000F095
:104CA00047F938498989891C88B200F047F93549A4
:104CB0004988491EC1F30F2000F03AF9314989892A
:104CC000C91C88B200F03AF92E498978491EC8B249
:104CD00000F02EF955E02B49488900F02FF900200B
:104CE00000F026F9002000F023F926490988491E22
:104CF000C1F30F2000F01CF922490978491EC8B2FF
:104D000000F016F91F49888900F018F9002000F01A
:104D10000FF9002000F00CF91A494988491EC1F327
:104D20000F2000F005F917498978491EC8B200F034
:104D3000FFF826E0082C1CD2DFE804F004070A0D77
:104D40000F12151843F0300313E043F0100310E086
:104D500043F020030DE000BF0BE043F0380308E010
:104D600043F0280305E043F0180302E043F0080392
:104D700000BF00BF032643F480531946304600F0BD
:104D8000EDF870BD9803002010B503460C46674847
:104D9000808849F24131884205D06448808845F2D4
:104DA0001031884214D16149488900F0C7F81812BF
:104DB00000F0BEF8D8B200F0BBF85C49888900F07A
:104DC000BDF8201200F0B4F8E0B200F0B1F8ABE0AA
:104DD0005648808846F6040188421DD153488079A0
:104DE000012804D151480088401EC01A83B24F499F
:104DF000488900F0A3F8181200F09AF8D8B200F031
:104E000097F84A49888900F099F8201200F090F844
:104E1000E0B200F08DF887E04448808841F66311E5
:104E2000884247D141488079A8B940480088401E4F
:104E3000C01A83B23D49488900F080F8002000F094
:104E400077F8002000F074F8181200F071F8D8B26A
:104E500000F06EF816E03549488900F06FF8181236
:104E600000F066F8D8B200F063F830490988491EAE
:104E7000C1F30F2000F05CF82C490978491EC8B234
:104E800000F056F82949888900F058F8201200F0FF
:104E90004FF8E0B200F04CF824494988491EC1F3AC
:104EA0000F2000F045F821498978491EC8B200F06A
:104EB0003FF839E01D48808845F21051884220D1E2
:104EC0001A49488900F03AF8181200F031F81749E9
:104ED0004989491C88B200F031F8D8B200F028F8AE
:104EE0001249888900F02AF8201200F021F80F49B1
:104EF0008989491C88B200F021F8E0B200F018F866
:104F000012E00A488079012804D108480088401E30
:104F1000C01A83B205494889194600F01FF80349B1
:104F20008889214600F01AF810BD0000980300207F
:104F300001490880704700000008006C01490880A2
:104F400070470000FE07006C024800890249088093
:104F50007047000098030020FE07006C024A108092
:104F6000921C118070470000FE07006C00BFFEE736
:104F7000704708B54FF4A06000F048F803208DF8A2
:104F8000000001208DF8010000208DF802000120B2
:104F90008DF80300684600F001F808BD70B50021E7
:104FA00000230F22C47804B3154C246804F4E06491
:104FB000C4F5E064210AC1F10403CA40447804FA4C
:104FC00003F184781440214309010E4C0678A15561
:104FD000047804F01F050124AC4005786D11AD0084
:104FE00005F1E025C5F8004109E0047804F01F054B
:104FF0000124AC40044D0678761145F8264070BD7A
:105000000CED00E000E400E080E100E00249014333
:10501000024A1160704700000000FA050CED00E044
:10502000014908627047000000000E42704700000E
:1050300001460020034A506820F440400843506075
:10504000704700000010024029B1064A526902432D
:10505000044B5A6104E0034A52698243014B5A618E
:10506000704700000010024029B1064AD26902438D
:10507000044BDA6104E0034AD2698243014BDA61EE
:10508000704700000010024029B1064A92690243AD
:10509000044B9A6104E0034A92698243014B9A618E
:1050A000704700000010024001490860704700008E
:1050B0004004424230B500210022002400232D4D3F
:1050C0006D6805F00C0121B1042905D0082923D110
:1050D00005E0294D056022E0274D05601FE0254DC4
:1050E0006D6805F47012234D6D6805F48034022557
:1050F00005EB92421CB9214D554305600BE01D4D57
:105100006D6805F400351DB11C4D5543056002E086
:10511000194D5543056002E0174D056000BF00BF03
:10512000144D6D6805F0F0010909154D6B5C0568BB
:10513000DD4045600F4D6D6805F4E061090A104DD2
:105140006B5C4568DD4085600A4D6D6805F4605113
:10515000C90A0B4D6B5C4568DD40C560054D6D6847
:1051600005F44041890B074D6B5CC568B5FBF3F551
:10517000056130BD0010024000127A0000093D00B8
:105180001C0200202C02002010B501460022002342
:1051900000204A11012A02D1094C236806E0022AA4
:1051A00002D1074C236A01E0054C636A01F01F023B
:1051B000012494401C400CB1012000E0002010BDEF
:1051C0000010024000210B4A11700A4A203A82F86E
:1051D0002010012802D0042808D103E00121054A4B
:1051E000117004E00521034A117000E000BF00BF08
:1051F000704700002010024001490860704700001D
:105200003C0442420249096A0143014A1162704763
:105210000010024004490968421D012393401943CC
:10522000014A1160704700000C08014004490968F8
:10523000421D012393409943014A116070470000C9
:105240000C0801401348806940F00400114988614E
:105250001148006820F07F400F490860081D006871
:1052600020F00F00091D0860081F006840F04C5036
:10527000091F0860081D006840F00300091D086050
:1052800005480C30006840F4E07003490C310860B8
:1052900070470000001002400008014002490988E0
:1052A0008143014A118070470428004010B5012154
:1052B0004FF0C050FFF7D8FE0120FFF7B1FEFBF71B
:1052C0008DFC0120FFF77EFF00BF4120FFF75CFF50
:1052D0000028FAD04FF48070FFF794FF0120FFF709
:1052E0008BFF00F07DF800F071F80021012000F044
:1052F0003FF800F06BF847F6FF7000F057F800F049
:1053000065F810BD0348008840F01000014908808E
:105310007047000004280040034800884FF6EF71F2
:1053200008400149088070470428004001460020D9
:10533000064A12880A40D0B2044A121F12880A4054
:1053400012B108B1012000E000207047042800409D
:1053500010B50120FFF7EAFF012805D1FFF79EFFF6
:105360000821024801F03AFB10BD0000001801407E
:1053700029B1064A12880243044B1A8004E0034A0A
:1053800012888243014B1A807047000000280040B9
:1053900000B50246FFF7B6FF100C03490880091D4F
:1053A0000A80FFF7B9FF00BD1828004000B502468B
:1053B000FFF7A8FFC2F3034003490880091D0A80D4
:1053C000FFF7AAFF00BD00000828004000BF034807
:1053D000008800F020000028F9D070470428004021
:1053E000074800884FF6F77108400549088000BF5C
:1053F0000348008800F008000028F9D0704700003A
:105400000428004021B1028842F04002028004E0FA
:1054100002884FF6BF731A400280704710B5002211
:10542000028802F441520B884C8823438C88234322
:10543000CC8823430C8923434C8923438C89234301
:10544000CC8923431A430280838B4FF2FF7423409D
:1054500083830B8A038210BD704710B500F002F8F9
:1054600010BD00000CB5002001900090334800688A
:1054700040F480303149086000BF3048006800F4D3
:10548000003000900198401C0190009818B90198D4
:10549000B0F5A06FF1D12948006800F4003010B1D8
:1054A0000120009001E0002000900098012843D1E5
:1054B0002348006840F01000214908600846006851
:1054C00020F0030008600846006840F00200086011
:1054D0001A484068194948600846406848600846CC
:1054E000406840F4806048600846406820F47C10C2
:1054F00048600846406840F4E81048600846006884
:1055000040F08070086000BF0C48006800F0007038
:105510000028F9D00948406820F003000749486096
:105520000846406840F00200486000BF03484068F9
:1055300000F00C000828F9D10CBD0000001002405A
:105540000020024020480068401C1F4908601F4896
:105550000068401C1D4908601D480068401C1C492B
:1055600008601C480068401C1A4908601A48006816
:10557000401C1949086019480068401C1749086018
:1055800017480068401C1649086016480068401C0F
:105590001449086014480068401C13490860134807
:1055A0000068401C1149086011480068401C1049FF
:1055B000086010480068401C0E4908600E480068EA
:1055C000401C0D490860704730020020380200205E
:1055D0004002002048020020500200205802002013
:1055E0006002002068020020700200207802002083
:1055F00080020020880200209002002010B513488D
:10560000006840F0010011490860084640681049F0
:1056100008400E494860084600680E4908400B499A
:1056200008600846006820F480200860084640684A
:1056300020F4FE0048604FF41F008860FFF70DFF64
:105640004FF000600449086010BD000000100240E7
:105650000000FFF8FFFFF6FE08ED00E010B50121A5
:10566000880700F039F8012809D10121800700F0EE
:1056700015F801F08FF88021014801F0AFF910BD55
:105680000008014021B1028842F08002028004E05B
:1056900002884FF67F731A4002807047CA43028225
:1056A000704721B1028842F00102028004E00288C2
:1056B0004FF6FE731A400280704731B1B0F84420B3
:1056C00042F40042A0F8442005E0B0F84420C2F3C0
:1056D0000E02A0F84420704730B502460020002397
:1056E0000024158A05EA0103958905EA010413B12E
:1056F0000CB1012000E0002030BD01894FF6F872A6
:10570000114001817047000070B500240022002381
:10571000058C4FF6FE7635400584028C8388048B19
:105720004FF68F752C40B51E2C400D882C43751EEE
:105730002A400D892A434D882A43144DA8420BD094
:10574000134DA84208D0134DA84205D0124DA842CF
:1057500002D0124DA84213D14FF6F7752A404D8959
:105760002A434FF6FB752A408D882A434FF6FF6582
:105770002B404FF6FF552B408D892B43CD892B4372
:1057800083800483CD888586028470BD002C01400F
:105790000034014000400140004401400048014005
:1057A00070B5002400220023058C4FF6EF763540BB
:1057B0000584028C8388048B48F6FF752C404FF6D5
:1057C000FF452C400D884FF6FF7606EA05252C4351
:1057D0004FF6DF752A400D8906EA05152A434D88E4
:1057E00006EA05152A43154DA84202D0144DA842D9
:1057F0001DD14FF67F752A404D894FF6FF7606EA98
:1058000005152A434FF6BF752A408D8806EA05150F
:105810002A434FF6FF352B404FF2FF752B408D8901
:1058200006EA85052B43CD8906EA85052B4383804F
:105830000483CD880587028470BD0000002C0140E0
:10584000003401400021018041808180C1800181BC
:1058500041818181C1817047002202881D4B98429D
:105860000ED01D4B98420BD0B0F1804F08D01B4B8F
:10587000984205D01A4B984202D01A4B984204D154
:105880004FF68F731A404B881A43174B984207D034
:10589000164B984204D04FF6FF431A40CB881A4368
:1058A00002808B8883850B8803850A4B98420BD036
:1058B000094B984208D00E4B984205D00D4B9842A8
:1058C00002D00D4B984201D10B7A038601238382CB
:1058D00070470000002C01400034014000040040EB
:1058E00000080040000C0040001000400014004080
:1058F00000400140004401400048014010B5FFF75E
:1059000065FD00F007F80446FFF742FDFFF75EFD76
:1059100010BD000000B58BB02C2204496846FAF790
:1059200077FC6846FAF720FC0BB000BDF87300085E
:1059300010B540F22551314800F0DAF901285BD169
:1059400040F225512D4800F0ABF92C4800F08CFABC
:105950002B4908702B48007868B908460078AA28B7
:105960004AD1084600782849087001202549087066
:105970002649087040E023480078012812D12048C9
:1059800000782149214A1278885420480078401C28
:105990001E4908700846007805282DDB02201949A9
:1059A000087029E017480078022825D114480078AB
:1059B000AA2811D106221449154801F03BFC1048D1
:1059C00000781149114A1278885400200D49087056
:1059D0000120104908700FE000200A4908700D49A5
:1059E0000870062208490A4801F024FC044800789F
:1059F0000549064A1278885410BD0000004C00404A
:105A00001E0000202600002020000020270000208B
:105A1000003801401F00002010B540F225513C48DD
:105A200000F066F9012872D140F22551384800F0A3
:105A300037F9374800F018FA3649087036480078C8
:105A4000A8B908460078FF2806D10120324908701D
:105A50000020324908705AE02E480078402856D17C
:105A600003202D49087000202C4908704FE02A4877
:105A70000078012812D1274800782949274A12784E
:105A8000885426480078401C24490870084600784D
:105A900003283CDB02202049087038E01E480078CB
:105AA000032813D11B4800782A2803D104201A495F
:105AB00008702CE0174800781A49184A1278885460
:105AC00016480078401C1549087020E012480078FC
:105AD00002280AD10F480078FE2818D100200E496C
