:020000040800F2
:10000000E0670020DD010008EF6700089F2100087D
:10001000EB670008AD1D00084774000800000000F1
:100020000000000000000000000000004501000882
:10003000051E00080000000089010008DD6D0008B1
:10004000F7010008F7010008F7010008D96B000864
:10005000F7010008F7010008311E0008F701000849
:10006000F7010008F7010008751E0008F7010008F5
:10007000F7010008F7010008F7010008F701000880
:10008000F7010008F7010008F7010008F701000870
:10009000F7010008F7010008F7010008AD1E00088D
:1000A000F7010008F7010008F7010008F701000850
:1000B000716E0008F7010008F7010008F701000859
:1000C000F7010008F7010008F7010008F701000830
:1000D000F7010008E56F0008F970000801720008D8
:1000E000F7010008F7010008F7010008F701000810
:1000F000F7010008F7010008F7010008F701000800
:10010000F7010008F7010008F7010008F7010008EF
:10011000FD6E0008F7010008F7010008F70100086C
:10012000F7010008F7010008F7010008F7010008CF
:10013000DFF80CD001F072F900480047059700087D
:10014000E0670020224B19680868B0E8F00F80F3E0
:100150000988BFF36F8F4FF0000080F311884EF0D5
:100160000D0E70470000000006480068006880F32C
:10017000088862B661B6BFF34F8FBFF36F8F00DFA1
:1001800000BF00BF08ED00E0EFF30980BFF36F8F01
:100190000F4B1A6820E9F00F106008B54FF0BF0050
:1001A00080F31188BFF34F8FBFF36F8F0CF084F88B
:1001B0004FF0000080F31188BDE808401968086816
:1001C000B0E8F00F80F30988BFF36F8F704700BF6E
:1001D00050020020EFF3058070470000064880477A
:1001E00006480047FEE7FEE7FEE7FEE7FEE7FEE71C
:1001F000FEE7FEE7FEE7FEE7116E000831010008AA
:10020000A0F14101192900D82030704710B540EA0B
:1002100001040346A40703D009E010C9121F10C34C
:10022000042AFAD203E011F8014B03F8014B521EE5
:10023000F9D210BDD2B201E000F8012B491EFBD269
:1002400070470022F6E710B513460A4604461946E1
:10025000FFF7F0FF204610BD30B505462A460B4695
:1002600012F8010B13F8014B08B1A042F8D01CB1F1
:10027000002802D06D1CF1E7284630BD10B50446B9
:1002800004E00B7800F8013B03B1491C521EF8D280
:10029000204610BD421C10F8011B0029FBD1801A1A
:1002A000704710B5002200E0521C835C8C5CA342B6
:1002B00001D1002BF8D1D8B2E1B2401A10BD0346EB
:1002C00011F8012B00F8012B002AF9D118467047CC
:1002D00030B505460020034600E05B1C934205D282
:1002E000EC5CC85C201A01D1002CF6D130BD0000B6
:1002F0000FB400B58DB010A909900B9000914FF08C
:10030000FF300A9000200C900548069005480790A1
:100310006A4609A80F9900F021FF0DB05DF814FBA3
:10032000791100089711000870B5064607F0B2F879
:10033000046805460A220021304600F08BFF2C603D
:1003400070BD80EA010210B502F00043400022D0E7
:100350004A001FD0010E01EB1261C0F35600C2F338
:10036000560240F4000042F40002A0FB0220000408
:100370007F39140400D0401C50EA124001D44000E0
:10038000491EC2B20C0604EBD010401C4008802A63
:1003900002D003E0002010BD20F00100002900DAA7
:1003A0000020184310BD30B480EA010202F000457D
:1003B00030F0004221F0004013D090B1C30DD40DB5
:1003C000C2F31601C0F31600E41A41F4000140F430
:1003D00000027D34914201D3641C00E04900002CEE
:1003E00002DA30BC002070474FF400000023914235
:1003F00001D3891A034340084FEA4101F7D151B1B3
:10040000914202D14FF0004105E002D24FF00101CC
:1004100001E06FF0010103EBC450284430BC00F050
:1004200051BF2DE9FE4F804681EA0300C00F0C4604
:10043000009021F0004123F00045B8EB0200A941F3
:1004400005D24046214690461C460B46024623F004
:100450000040104347D0270DC7F30A00C3F30A51E9
:100460000290401A019040286BDAC3F3130040F465
:10047000801B0098924620B10023D2EB030A63EB65
:100480000B0B01985946C0F14002504600F071FA3A
:1004900006460D4650465946019A00F089FA10EB7F
:1004A00008006141002487EA115284EAE7731A4385
:1004B00040D0009A62B3019A012A4FEA075215DC34
:1004C000001B61EB02014FF0004202EA0752CDE946
:1004D0000042001C41F5801132462B4600F038FFE7
:1004E00003B0BDE8F08F40462146F9E7001B61EB01
:1004F0000201001C41F5801300185B412018A2F591
:10050000001747EB030140EAD570B6196D4111E0C1
:100510006D084FEA360645EAC0754FEA0752001BE0
:1005200061EB0201001C41F5801149084FEA3000DF
:100530000019514132462B4603B0BDE8F04F00F0A0
:10054000F8BE0098012240000023D0EB020263EBCA
:10055000E073009821464FEAE074B8EB000061EBCD
:100560000401E9E783F000435BE781F0004158E7CD
:100570002DE9FE4F81EA030404F0004421F000411C
:1005800000944FF0000B23F0004350EA01045ED0CA
:1005900052EA03045BD0C3F30A54C1F30A552C4456
:1005A000A4F2F3340194A0FB0254C1F3130141F40B
:1005B0008011C3F3130343F4801301FB024400FBD7
:1005C000034E840A970A44EA815447EA8357A4FBFE
:1005D000076802958D0A05FB07854FEA932C04FBFB
:1005E0000C542705029D4FEA065847EA1637B5EB2B
:1005F00008056EEB070C870E920E47EA811742EA58
:100600008312A7FB0201B6EB0B0164EB00042B0D78
:1006100043EA0C335E1844EB1C50DA465146E7FBC4
:100620000201C5F313044FEA0B3343EA14534FEAB4
:100630000432019C43EA0603A4F10C040294009CDA
:10064000CDE900B400F084FE03B0BDE8F08F0020D7
:100650000146F9E72DE9F04D81EA030404F0004B6F
:1006600021F0004514464FF0000A23F0004150EA03
:10067000050220D054EA01021DD0C5F30A570246F4
:10068000C5F31303C1F31300C1F30A5640F48015F8
:1006900043F48013A7EB0608101BD64608F2FD387A
:1006A00073EB050002D308F1010801E092185B41E9
:1006B000B8F1000F03DA00200146BDE8F08D0020FC
:1006C0004FF48011064684460EE0171B73EB0507B6
:1006D00005D3121B63EB050306434CEA010C4908E2
:1006E0004FEA300092185B4150EA0107EDD152EA1F
:1006F000030012D082EA040083EA0501084305D012
:10070000101BAB4106D20122002306E000224FF06D
:10071000004302E06FF0010253101AEB06004CEBAD
:10072000085110EB0A0041EB0B01BDE8F04D00F061
:1007300000BE96230022114600F0CDBD0EB5C10FBC
:1007400080EAE0700844CA07002140F233438DE894
:100750000E000A460B4600F0FBFD03B000BD0EB5CF
:1007600040F2334102910021CDE900110A460B46C7
:1007700000F0EEFD03B000BD20F00040C10DC0F35D
:10078000160040F400007F2901DA00207047962906
:1007900003DCC1F19601C840704796398840704724
:1007A00070B5C1F30A5201F000450024C1F31301F2
:1007B00040F2FF3341F480119A4201DA002070BD0B
:1007C00040F233439A42A2F2334203DC524200F039
:1007D000DFF800E090402C43F1D0404270BDC1F3FF
:1007E0000A5210B5C1F3130140F2FF3341F48011F6
:1007F0009A4201DA002010BD40F233439A42A2F23D
:10080000334203DC524200F0C3F810BD904010BDEB
:1008100000F0004230F000400AD0C10D01F56071D7
:10082000C0F3160042EA0151C20840071143704765
:10083000002001467047000030B5041E71F100042D
:1008400004DB4FF00044404264EB0101141E73F1DD
:10085000000405DB1C464FF00043524263EB0403E7
:100860008B4208BF824230BD30B5041E71F10004D6
:1008700004DB4FF00044404264EB0101141E73F1AD
:10088000000405DB1C464FF00043524263EB0403B7
:10089000994208BF904230BD01F0004330B421F0CE
:1008A000004150EA010206D00A0DA2F56072C1F3C0
:1008B0001301002A02DC30BC00207047440F44EAD8
:1008C000C104C100E01830BC00EBC25000F0FABC1B
:1008D000002801DBC0F10040002901DBC1F100412B
:1008E0008842704730B50B46014600202022012483
:1008F00009E021FA02F59D4205D303FA02F5491BEE
:1009000004FA02F52844151EA2F10102F1DC30BD03
:100910002DE9F05F0546002092469B468846064634
:10092000814640241BE0284641464746224600F0C7
:100930002FF853465A46C01A914110D31146184613
:10094000224600F016F82D1A67EB01084F462246A2
:100950000120002100F00DF817EB00094E41201E88
:10096000A4F10104DFDC484631462A464346BDE88F
:10097000F09F202A04DB203A00FA02F100207047A1
:100980009140C2F1200320FA03F3194390407047CD
:10099000202A04DB203A21FA02F00021704721FAD4
:1009A00002F3D040C2F1200291400843194670473B
:1009B000202A06DBCB17203A41FA02F043EAE07323
:1009C00006E041FA02F3D040C2F120029140084310
:1009D00019467047014900F003B80000B0610020DB
:1009E00010B500683C22B0FBF2F302FB1303B0FB2E
:1009F000F2F00B60B0FBF2F302FB1303B0FBF2F07A
:100A000018224B60B0FBF2F302FB1303B0FBF2F0D1
:100A1000021D8B600723B2FBF3F403FB142280005A
:100A200040F2B55300F66C308A61B0FBF3F2B0FBD4
:100A3000F3F403FB1400443280084A61C8613B2888
:100A400002D3920700D0401C0022074C13460A61D3
:100A5000E25C824203D8801A5B1C0B61F8E7401C01
:100A6000C860084610BD000070ED00082DE9FF4F7A
:100A70001C4681B00021D4E9016791464FF0FF3553
:100A80008A468846A1696D1C02988847216A834678
:100A900088470028F6D1BBF1FF3F0CD026F4C06692
:100AA000002F1ADD700615D5BBF12B0F0AD0BBF154
:100AB0002D0F0FD104E04FF0FF3005B0BDE8F08FEF
:100AC00046F48066A1696D1C029888477F1E8346A4
:100AD000002F02DDBBF1300F03D0B9F1000F2AD097
:100AE00025E0A1696D1C46F400767F1E02988847B8
:100AF0008346002F05DDBBF1780F06D0BBF1580F00
:100B000003D0B9F1000F10D011E0B9F1000F02D0FD
:100B1000B9F1100F0BD1A1696D1C26F400767F1E70
:100B2000029888478346102000E0082081464FEA5B
:100B3000E970009017E00A20F8E74346AAFB09286D
:100B400003FB0980DDF800C07F1E0AFB0C0112EBDD
:100B50000B0A41EBEB78A16946F4007605F101053B
:100B6000029888478346002F06DD4946584600F024
:100B700074FC5FEA000BE0D5E16902988847B00594
:100B800002D46FF0010098E7F00718D1700610D575
:100B90007005514605D50023D1EB030163EB080234
:100BA00000E042462068031D23600068C0E900128F
:100BB00005E02068011D21600068C0E900A8284602
:100BC0007BE72DE9FF5F1D464FF0FF3BD5E901466E
:100BD00091465F464FF00008A9697F1C019888473D
:100BE000296A824688470028F6D1BAF1FF3F0CD027
:100BF00024F4C064002E19DD600614D5BAF12B0F61
:100C000009D0BAF12D0F0ED103E0584604B0BDE86B
:100C1000F09F44F48064A9697F1C01988847761E80
:100C20008246002E02DDBAF1300F03D0B9F1000F79
:100C300026D032E0A969761E44F400747F1C019826
:100C400088478246002E05DDBAF1780F06D0BAF14A
:100C5000580F03D0B9F1000F10D01EE0B9F1000F0A
:100C600002D0B9F1100F18D1A969761E24F40074CE
:100C70007F1C019888478246102002E0082000E08F
:100C80000A20814609E008FB0908A969761E44F498
:100C900000747F1C019888478246002E05DD494676
:100CA000504600F0DAFB0028EDDAE9690198884740
:100CB000A00502D46FF00100A8E7E00725D1600687
:100CC00013D5600502D5C8F1000000E04046296850
:100CD0000A1D2A600968220501D5087015E022075F
:100CE00001D5088011E008600FE02868011D296027
:100CF0000068210502D580F8008006E0210702D5B2
:100D0000A0F8008001E0C0F8008038467EE72DE9B9
:100D1000FF5FD2E901A74FF0000891699946144698
:100D2000DDF838B0464601988847054659EA0B0079
:100D300005D009E0A169761C019888470546216A1B
:100D4000284688470028F5D1681C03D05FEACA709E
:100D500005D015E04FF0FF3004B0BDE8F09F2068EB
:100D6000011D2160D0F800800AE05FEACA7001D15D
:100D700008F8015BA169761C7F1E0198884705462B
:100D8000002F1ADD681C18D0B9F1000F0DD0E8173C
:100D900005EBD060421120F01F0059F822102A1AEA
:100DA000012090400142E0D107E0BBF1000FDCD10F
:100DB000216A284688470028D7D0E16901988847EA
:100DC000BBF1000F07D1002E05DD5FEACA7002D12A
:100DD000002188F80010A068B84203DDBBF1000FC5
:100DE00003D017B16FF00100B6E73046B4E700005A
:100DF0002DE9FF4F087883B09946FF2805D0491C9C
:100E00002D2804D00024002008E000200BE001245D
:100E1000F9E700EB800003EB4000491C0B78FF2B47
:100E2000F7D104B1404200230293147819461D46BD
:100E30002D2C01D02B2C04D1521C2D2C13D000248E
:100E40000294AA461478FF2C0FD00A25A3FB05783C
:100E500001FB05814FF0000C03FB0C11521CE31940
:100E60004AEB0101EEE70124EAE7814453EA01007D
:100E700002D019F5C87F06DA03980021C0E90011F5
:100E800007B0BDE8F08F0025AE4E2F46DFF8B882E0
:100E9000184600F0D6FCCDE90001B9F1000002DAF5
:100EA000C9F1000400E004460023A74A1AEB030B33
:100EB00042EB045A12E0E00707D02A463346384690
:100EC0004146FFF755FB074688462A4633461046FB
:100ED0001946FFF74DFB05460E466410002CEAD17B
:100EE000DDE90001B9F1000F5A46534606DAFFF773
:100EF000B1FB3A464346FFF7ADFB05E0FFF738FB91
:100F00003A464346FFF734FB029A0AB181F00041AA
:100F1000039AC2E90001B3E72DE9FF4F1F468DB0E8
:100F2000D7E901464FF0FF382E2045464FF0000923
:100F30000B90B9696D1C0E988847396A82468847BC
:100F40000028F6D1BAF1FF3F0AD024F4D064002E75
:100F500011DDBAF12B0F08D0BAF12D0F0BD102E041
:100F6000404611B08DE744F48064B9696D1C0E9859
:100F700088478246761E6946600501D52D2000E02F
:100F80002B208DF8000001F1010B0DF1200809E084
:100F9000B9696D1C0E98884782460F9844F4007416
:100FA000761E0560002E02DDBAF1300FF0D00B99ED
:100FB0008A453ED144F0800406E00F99681CA9F1EF
:100FC000010944F400740860B9696D1C761E0E981E
:100FD000884782463028F0D02BE00B998A4505D10E
:100FE000200603D444F08004761E18E0504606F034
:100FF00089FB08B30DF11301761E44F400748B4590
:1010000008D2AAF130000BF8010B200607D5A9F190
:10101000010003E0200602D409F101008146A00589
:1010200002D50F99681C0860B9696D1C0E98884735
:101030008246002ED1DC53E0002E51DDBAF1650F5F
:1010400002D0BAF1450F4BD1A00549D5B9696D1C45
:1010500024F44074761E0E9888478246002E0CDDDC
:101060002B2804D0BAF12D0F07D144F48074B9694C
:101070006D1C0E9888478246761EE00501D52D210D
:1010800000E02B2108F8011BCDF82C8021E00DF1A8
:101090002901761E44F4007488450CD2AAF1300070
:1010A00010F0FF0088F8000002D10B99884509D99B
:1010B00008F1010806E0E00501D5244801E042F20C
:1010C0000F708146B9696D1C0E98884782460F984B
:1010D0000560002E04DD504606F014FB0028D6D132
:1010E000F9690E988847FF208BF8000088F8000007
:1010F0000020069007904B466A4608A906A8FFF70D
:1011000077FEA00502D46FF001002AE714F0240F47
:101110000AD0E00714D1DDE906123868031D3B60F0
:101120000068C0E900120BE0DDE90601FFF7B4FB3F
:101130000146E00704D13868021D3A60006801608A
:1011400028460EE7000014400000F03FF1D8FFFFF2
:10115000026811441378016018467047D160044951
:1011600051610449116200211161114600F084B9F6
:101170005111000849140008426842B1016811F891
:10118000013B23B1521EC0E90012184670470121ED
:10119000C160881E704742685AB1C368016843B98C
:1011A00083688B4205D0491E521CC0E90012002002
:1011B00070474FF0FF3070470FB4002300B589B07F
:1011C0000CA900910B996FF00042CB601E4B069367
:1011D0001E4B07930423CDE901321D4A08920246B3
:1011E0006B460020FFF798FE09B05DF814FB70B560
:1011F00086B006464FF0FF300091CDE90101002096
:1012000015460C4604903246694604A8FFF7D4FF01
:1012100002460498211825B108B1084600E020468E
:101220002860049800280DD0002A02DD009888422A
:1012300008D0081B0094CDE901043246694604A891
:10124000FFF7BAFF06B070BD7911000897110008CA
:10125000491400082DE9F04791460F4680460446A0
:10126000002614F8015B2DB100F0EAF80068405D3B
:10127000C007F6D12B2D02D02D2D18D0641E4A4662
:101280003946204600F08EFA27B13968A14201D1D3
:10129000C7F8008071054FF002040BD540420028CA
:1012A00003DD06F0F7F80460A007BDE8F08746F418
:1012B0008066E4E70028F8DA06F0ECF804606FF0E6
:1012C0000040F2E70029A8BF7047401C490008BF52
:1012D00020F00100704710B4B0FA80FC00FA0CF066
:1012E00050EA010404BF10BC704749B1CCF120049E
:1012F00021FA04F411FA0CF118BF0121214308432B
:10130000A3EB0C01CB1D4FEA00614FEA102042BF56
:10131000002010BC704700EBC35010440029A4BF4C
:1013200010BC7047401C490008BF20F0010010BCF1
:10133000704710B5141E73F1000408DA401C41F127
:10134000000192185B411A4301D120F0010010BD49
:101350002DE9F04D92469B4611B1B1FA81F202E0BF
:10136000B0FA80F220329046FFF703FB04460F46A6
:1013700040EA0A0041EA0B0153465A46084313D09B
:10138000114653EA010019D0C8F140025046FFF758
:10139000FFFA05460E46504659464246FFF7E9FA1F
:1013A000084305D0012004E020463946BDE8F08D11
:1013B0000020054346EAE0762C4337430A9863054C
:1013C000E40AA0EB08000022FD0A44EA47540A3070
:1013D00002D500200146E9E7010510196941DDE960
:1013E000084500196941BDE8F04DA2E7C1F30A5272
:1013F000C1F3130140F2FF3341F480119A4202DA43
:1014000000200146704740F233439A42A2F2334231
:1014100002DC5242FFF7BCBAFFF7ABBA064C074DED
:1014200006E0E06840F0010394E8070098471034B4
:10143000AC42F6D3FEF780FE8CEF0008ACEF00085C
:101440000048704700EE000810B50446FFF7F8FFAB
:101450000068005D00F0010010BD3A2800D230386D
:1014600020F02002412A01D3A2F13700884201D3A3
:101470004FF0FF30704700002DE9F34F8BB04FF075
:10148000000801F10C000C464FF0010B46460DF12F
:10149000080A01906269012101989047051E2DD02C
:1014A000252D2CD0216A8847C0B16269012101989D
:1014B0009047216A88470028F7D1411E6269019848
:1014C000904700E0761CA1690B988847216A8847FD
:1014D0000028F7D1E1690B988847DBE7A1690B98F1
:1014E00088470746A84201D1761CD3E7E1690B98EB
:1014F00088477F1C02D1B8F1000F6FD046E100276A
:1015000062693D463946019890472A2804D16269AC
:101510000121019890470125DFF884926269012139
:1015200001989047A0F130010A290AD24F45E5DC25
:1015300007EB870100EB4107303FDFD445F0100592
:10154000ECE7E90601D46FF000476C280AD04C287C
:1015500014D0682815D06A280DD074281CD07A2899
:101560001AD01DE062690121019890476C2802D0D1
:1015700045F0040514E045F002050DE045F02005B6
:101580000AE06269012101989047682802D045F07D
:10159000080505E045F4006562690121019890475E
:1015A000C4E9015765283DD019DC58287AD00CDCF5
:1015B000452837D004DC252826D0412831D131E018
:1015C00046282FD047282CD12CE05B2877D06128E3
:1015D00028D063287CD0642823D15AE0D0E06F283B
:1015E00048D008DC66281DD067281BD0692821D088
:1015F0006E2816D127E0702845D0732868D075284A
:1016000047D078280DD14DE0A1690B988847054651
:1016100025283FF469AFE1690B9888476D1C3FF4BA
:101620006AAFB3E023466A466FF001000B99FFF7FB
:1016300073FC9EE045F040006060A80723464FF031
:10164000000236D43EE0E8077FF447AF2068011D72
:1016500021600068290501D506701BE7290701D51F
:10166000068017E7A90703D5F117C0E9006111E764
:1016700006600FE745F040006060A80723464FF082
:10168000080216D41EE040F60E0125EA0100606053
:1016900016E045F040006060A80723464FF00A02BC
:1016A00007D40FE045F040006060A80708D5234646
:1016B00010226FF001000B99FFF7D8F959E007E00D
:1016C000234610226FF001000B99FFF77AFA50E0E1
:1016D0004FF000094F464B46632802D05B2806D0E6
:1016E00040E0E80601D40120A06001273AE06269E9
:1016F0000121019890475E2805D14FF001096269E8
:10170000494601989047216939B900210A46534654
:1017100043F82120491C0829FADBB0B3216969B9D3
:10172000C11700EBD16253110AEB830122F01F02B3
:10173000821A01200B68904003430B60626901210B
:10174000019890475D28E8D1B9F1000F09D0002039
:10175000514651F82020D24341F82020401C08284F
:10176000F7DB02AB224600976FF001000B99FFF701
:10177000CEFA00280CDA401C08D1BBF1000F05D0CE
:101780004FF0FF300DB0BDE8F08FFFE74046F9E7BE
:10179000E90701D108F1010806444FF0000B79E692
:1017A000CCCCCC0C2DE9F05F8246007800271546A2
:1017B0008B460AF10104B946302801D09DB113E0EF
:1017C00014F8010B0127782803D0582801D045B11F
:1017D0000AE00DB1102D07D10027102514F8010BD8
:1017E00002E0082500E00A250026B0460EE005FBD1
:1017F000080005FB06F1012701EB10461FFA80F8EF
:10180000B6F5803F00D3B94614F8010B2946FFF71F
:1018100024FE0028EBDABBF1000F05D00FB1641EE7
:1018200000E05446CBF80040B9F1000F06D005F0B7
:1018300031FE02210160C81EBDE8F09F48EA064063
:10184000FAE70EB540F2334202920022CDE90022BF
:101850001346FFF77DFD03B000BD70B58C1810F87E
:10186000015B15F0070301D110F8013B2A1106D1E5
:1018700010F8012B03E010F8016B01F8016B5B1EFF
:10188000F9D12B0705D40023521E0DD401F8013BDA
:10189000FAE710F8013BCB1A921C03E013F8015B46
:1018A00001F8015B521EF9D5A142D8D3002070BDCA
:1018B0002DE9FC41012400200090019000BF2CE0A4
:1018C000012C04D0022C0ED0032C23D117E0611C74
:1018D000CCB2BDF80010284A32F81020114489B269
:1018E000ADF8001016E0611CCCB2BDF80210224A1F
:1018F00032F81020114489B2ADF802100AE0012438
:10190000BDF804101C4A32F81020114489B2ADF819
:10191000041000BF00BF411CC8B21E28D0DBBDF8B8
:101920000000FEF71CFF07460022144BFEF792FE54
:101930000546FEF7B1FF12490860BDF80200FEF748
:101940000EFF074600220D4BFEF784FE0546FEF70C
:10195000A3FF0B494860BDF80400FEF700FF0746EF
:101960000022064BFEF776FE0546FEF795FF04497A
:101970008860BDE8FC810000BC030020000024401A
:10198000A403002000B591B00121480204F0B6FF85
:101990004FF4004004F086FF0121142004F0AEFF54
:1019A00000208DF843002020ADF8400003208DF882
:1019B000420010A93F4800F05AFB0220ADF8400059
:1019C00010A93D4800F053FB0121084604F076FFC2
:1019D0001E200890002007900F90384806904FF482
:1019E00080600C9080200A9020200D903448059053
:1019F00080150B90002009904FF480500E9005A99F
:101A0000304800F0E1F9012000F09AF907230122A3
:101A10000B212B484C3800F021F907230222052125
:101A200027484C3800F01AF90723032210212448D4
:101A30004C3800F013F90020009003904FF4602020
:101A4000029001208DF805008DF8040003208DF828
:101A5000100069461A484C3800F0D8F8012119489E
:101A600000F0A6F9012116484C3800F0B0F8012129
:101A700013484C3800F0A0F811484C3800F04AF9EF
:101A800000BF0F484C3800F0B7F80028F9D10C48D7
:101A90004C3800F04FF900BF09484C3800F0A2F86C
:101AA0000028F9D1012106484C3800F038F911B06E
:101AB00000BD00000008014000100140BC030020F0
:101AC0004C240140080002402DE9F05FFFF7F0FED2
:101AD0002F4908682F49FEF766FC8046FEF798FEFE
:101AE00006464FF066322C4BFEF742FD0446FEF7E9
:101AF000D3FE2A490860264948682649FEF753FC68
:101B00008046FEF785FE06464FF06632224BFEF712
:101B10002FFD0446FEF7C0FE204948601C49886836
:101B20001C49FEF740FC8046FEF772FE06464FF069
:101B30006632194BFEF71CFD0446FEF7ADFE174951
:101B400088608868FEF764FE8246154A154BFEF7EA
:101B50000CFD8046144A154BFEF77CFD064600221C
:101B6000134BFEF75EFC0446FEF796FE0B498860B9
:101B7000074908680F49FEF7ABFE03D2012007F0C2
:101B800087FD02E0012007F077FDBDE8F09F00002F
:101B9000A403002000F07F4566660A40B0030020E1
:101BA000E17A14AE47E1F63F22FDF675E09C713F05
:101BB000000039400000484221B1826842F0010231
:101BC000826003E0826822F001028260704721B1E6
:101BD000826842F48072826003E0826822F480723C
:101BE00082607047014600208A6802F004020AB150
:101BF000012000E000207047014600208A6802F0C2
:101C000008020AB1012000E00020704730B502460A
:101C10000020002350680F4C20400D790C6844EAE6
:101C200005242043506090680B4C2040D1E90254B9
:101C30002C434D7944EA450420439060D06A20F457
:101C400070000C7C641EE4B2234340EA0350D0626F
:101C500030BD0000FFFEF0FFFDF7F1FFF0B50446D8
:101C60000D4600200021092D11DDE068A5F10A06CE
:101C700006EB4607072606FA07F18843A5F10A0690
:101C800006EB460603FA06F10843E0600CE0206923
:101C900005EB4507072606FA07F1884305EB4506DD
:101CA00003FA06F108432061072A0FDA606B561E1B
:101CB00006EB86071F2606FA07F18843561E06EB39
:101CC000860605FA06F10843606322E00D2A0FDA62
:101CD000206BD61F06EB86071F2606FA07F18843FE
:101CE000D61F06EB860605FA06F10843206310E0CE
:101CF000E06AA2F10D0606EB86071F2606FA07F139
:101D00008843A2F10D0606EB860605FA06F10843A4
:101D1000E062F0BD816841F008018160704721B147
:101D2000826842F4A002826003E0826822F4A0028A
:101D300082607047816841F0040181607047000053
:101D400030B10749096841F40001054A116005E016
:101D50000349096821F40001014A1160704700003D
:101D60000824014010B5012004F0D8FD002004F043
:101D7000D5FD10BD08B50146002000900348009035
:101D80000098084400900098008808BD006C00404E
:101D900008B500220092044A0092009A0244009280
:101DA000009A116008BD0000006C004000BFFEE713
:101DB00021B1026842F00102026004E002684FF6BD
:101DC000FE731A400260704710B50022026847F6A1
:101DD000F0739A430C6A8B6823430C6923434C6964
:101DE00023438C692343CC6923434C6A23438C6A85
:101DF00023431A430260CB6843600B6883604B68DF
:101E0000C36010BD704700B54FF47A71484301E0DC
:101E100006F0DAFB011EA0F10100F9D100BD00B50A
:101E200001E006F0D1FB011EA0F10100F9D100BDD7
:101E300010B506F001F90E48007850B906F0F2F836
:101E40000B480078401C0A490870012000F068F82F
:101E500010BD07480078012807D106F0DDF8002002
:101E600003490870012000F05BF800BFF0E70000B4
:101E70000000002010B504F01FFE0B48007838B9B0
:101E80004FF4784004F00CFE01200749087006E08A
:101E90004FF4784004F0F8FD00200349087010204A
:101EA00000F03EF810BD00000100002010B504F065
:101EB00003FE202000F03AF8012814D116480078DB
:101EC00038B94FF4FC6004F0EBFD012012490870B2
:101ED00006E04FF4FC6004F0D7FD00200E490870C6
:101EE000202000F01DF8402000F020F8012812D139
:101EF0000A48007830B91F2004F0D2FD01200749BC
:101F0000087005E01F2004F0BFFD002003490870A1
:101F1000402000F005F810BD020000200300002062
:101F20000149086070470000140401400146002088
:101F30000022074B1B6803EA0102054B14331B68A0
:101F40000B4013B10AB1012000E0002070470000EF
:101F50000004014051B18200A2F1C042126842F077
:101F600001038200A2F1C042136009E08200A2F1E5
:101F7000C0421268034B1A408300A3F1C0431A60A9
:101F800070470000FEFF0F00D0E901121143C26844
:101F90001143026911434269114382691143C269C5
:101FA0001143026A1143426A1143826A1143C26AB1
:101FB0001143026B114302689200A2F1C04211600A
:101FC000816808290BD101688900A1F1C041096825
:101FD00041F0400201688900A1F1C0410A60416BF3
:101FE0000968426B526841EA0211426B926841EA09
:101FF0000221426B928941EA0241426B128A41EA14
:102000000251426B127D41EA0261426B92691143B7
:102010000268521C9200A2F1C0421160C16AB1F57F
:10202000804F1BD1816B0968826B526841EA0211B3
:10203000826B926841EA0221826B128A41EA025164
:10204000826B127D41EA0261826B926911430268E0
:102050009200A2F1C042C2F8041107E06FF0704292
:1020600001688900A1F1C041C1F8042170472DE940
:10207000F04102460025002600200023002400270E
:1020800091F803C00CF00F0591F803C00CF0100C90
:10209000BCF1000F03D091F802C04CEA050591F89D
:1020A00000C0BCF1000F31D0146800202BE04FF0CD
:1020B000010C0CFA00F3B1F800C00CEA03069E42D2
:1020C00020D183004FF00F0C0CFA03F7BC4305FA44
:1020D00003FC4CEA040491F803C0BCF1280F06D1BC
:1020E0004FF0010C0CFA00FCC2F814C00AE091F8A1
:1020F00003C0BCF1480F05D14FF0010C0CFA00FCF5
:10210000C2F810C0401C0828D1D31460B1F800C038
:10211000BCF1FF0F34DD546800202EE000F1080C04
:102120004FF0010808FA0CF3B1F800C00CEA0306FE
:102130009E4221D183004FF00F0C0CFA03F7BC43F1
:1021400005FA03FC4CEA040491F803C0BCF1280F23
:1021500005D100F1080C08FA0CF8C2F8148091F8C7
:1021600003C0BCF1480F07D100F1080C4FF0010883
:1021700008FA0CF8C2F81080401C0828CED354602E
:10218000BDE8F0810246002093680B400BB10120AE
:1021900000E000207047416170470161704700BF57
:1021A000FEE7000070B50446002617480588408801
:1021B00045431548808846F60401884216D11248E6
:1021C0008079012812D100200F4988712A20488186
:1021D0002B2088810021084603F04AFF01200A498C
:1021E00088712B2048812A20888103E0002108463D
:1021F00003F03EFF04F0E4F8002602E00348048008
:10220000761CAE42FAD370BDF80300200008006CC3
:1022100010B5FE48808849F2413188427ED1CF20F6
:1022200004F0C8F8002004F0BFF8C12004F0BCF8A6
:10223000302004F0B9F8ED2004F0BCF8642004F07C
:10224000B3F8032004F0B0F8122004F0ADF88120B8
:1022500004F0AAF8E82004F0ADF8852004F0A4F812
:10226000102004F0A1F87A2004F09EF8CB2004F0AE
:10227000A1F8392004F098F82C2004F095F80020FB
:1022800004F092F8342004F08FF8022004F08CF867
:10229000F72004F08FF8202004F086F8EA2004F0FC
:1022A00089F8002004F080F8002004F07DF8C020B8
:1022B00004F080F81B2004F077F8C12004F07AF8CD
:1022C000012004F071F8C52004F074F8302004F007
:1022D0006BF8302004F068F8C72004F06BF8B720E2
:1022E00004F062F8362004F065F8482004F05CF849
:1022F0003A2004F05FF8552004F056F8B12004F0BD
:1023000059F8002004F050F81A2004F04DF8B620D7
:1023100004F050F80A2004F047F800E097E0A2200B
:1023200004F042F8F22004F045F8002004F03CF8F4
:10233000262004F03FF8012004F036F8E02004F0F5
:1023400039F80F2004F030F82A2004F02DF8282066
:1023500004F02AF8082004F027F80E2004F024F8EE
:10236000082004F021F8542004F01EF8A92004F0FD
:102370001BF8432004F018F80A2004F015F80F2089
:1023800004F012F8002004F00FF8002004F00CF81C
:10239000002004F009F8002004F006F8E12004F021
:1023A00009F8002004F000F8152003F0FDFF1720C5
:1023B00003F0FAFF072003F0F7FF112003F0F4FF0A
:1023C000062003F0F1FF2B2003F0EEFF562003F070
:1023D000EBFF3C2003F0E8FF052003F0E5FF1020B1
:1023E00003F0E2FF0F2003F0DFFF3F2003F0DCFFEC
:1023F0003F2003F0D9FF0F2003F0D6FF2B2003F07E
:10240000D9FF002003F0D0FF002003F0CDFF012012
:1024100003F0CAFF3F2003F0C7FF2A2003F0CAFFE2
:10242000002003F0C1FF002003F0BEFF002003F0F6
:10243000BBFFEF2003F0B8FF112003F0BBFF7820B3
:10244000FFF7E1FC292003F0B5FF03F01EB96F4848
:10245000808846F6040188427ED1112003F0AAFF4D
:102460001420FFF7D0FCD02003F0A4FF072003F0D6
:102470009BFF422003F098FF1D2003F095FFD12021
:1024800003F098FF002003F08FFF1A2003F08CFF69
:10249000092003F089FFD22003F08CFF012003F014
:1024A00083FF222003F080FFC02003F083FF102071
:1024B00003F07AFF3B2003F077FF002003F074FF66
:1024C000022003F071FF112003F06EFFC52003F01E
:1024D00071FF032003F068FFC82003F06BFF0020AA
:1024E00003F062FF252003F05FFF212003F05CFF73
:1024F000052003F059FF002003F056FF0A2003F0E7
:1025000053FF652003F050FF252003F04DFF772097
:1025100003F04AFF502003F047FF0F2003F044FF71
:10252000002003F041FFF82003F044FF012003F0F6
:102530003BFFFE2003F03EFF002003F035FF0220AA
:1025400003F032FF202003F035FF362003F032FF86
:10255000082003F029FF00E02AE03A2003F02AFFD8
:10256000552003F021FF2B2003F024FF002003F06F
:102570001BFF002003F018FF012003F015FF3F2090
:1025800003F012FF2A2003F015FF002003F00CFFD8
:10259000002003F009FF012003F006FFDF2003F015
:1025A00003FF7820FFF72FFC292003F003FF4CE7FF
:1025B0001648808845F21031884240F07D87ED2032
:1025C00003F0F8FE012003F0EFFEFE2003F0ECFE26
:1025D000EE2003F0EFFEDE2003F0E6FE212003F004
:1025E000E3FEF12003F0E6FE012003F0DDFEDF2034
:1025F00003F0E0FE102003F0D7FEC42003F0DAFE63
:102600008F2003F0D1FEC62002E00000F803002076
:1026100003F0D0FE002003F0C7FEE22003F0C4FE6A
:10262000E22003F0C1FEE22003F0BEFEBF2003F073
:10263000C1FEAA2003F0B8FEB02003F0BBFE0D20BF
:1026400003F0B2FE002003F0AFFE0D2003F0ACFE5D
:10265000002003F0A9FE112003F0A6FE002003F0E5
:10266000A3FE192003F0A0FE002003F09DFE212010
:1026700003F09AFE002003F097FE2D2003F094FE55
:10268000002003F091FE3D2003F08EFE002003F0B9
:102690008BFE5D2003F088FE002003F085FE5D20A8
:1026A00003F082FE002003F07FFEB12003F082FEE3
:1026B000802003F079FE002003F076FE8B2003F0EB
:1026C00073FE002003F070FE962003F06DFE0020E4
:1026D00003F06AFEB22003F06DFE002003F064FEFA
:1026E000002003F061FE022003F05EFE002003F0F4
:1026F0005BFE032003F058FE002003F055FEB320DC
:1027000003F058FE002003F04FFE002003F04CFEC3
:10271000002003F049FE002003F046FE002003F0F5
:1027200043FE002003F040FE002003F03DFE0020A9
:1027300003F03AFE002003F037FE002003F034FEE1
:10274000002003F031FE002003F02EFE002003F0F5
:102750002BFE002003F028FE002003F025FE0020C1
:1027600003F022FE002003F01FFE002003F01CFEF9
:10277000002003F019FE002003F016FE002003F0F5
:1027800013FE002003F010FE002003F00DFE0020D9
:1027900003F00AFEB42003F00DFE8B2003F004FECC
:1027A000002003F001FE962003F0FEFD002003F060
:1027B000FBFDA12003F0F8FD002003F0F5FDB5209E
:1027C00003F0F8FD022003F0EFFD002003F0ECFD24
:1027D000032003F0E9FD002003F0E6FD042003F0F0
:1027E000E3FD002003F0E0FDB62003F0E3FD002050
:1027F00003F0DAFD002003F0D7FDB72003F0DAFD87
:10280000002003F0D1FD002003F0CEFD3F2003F0B7
:10281000CBFD002003F0C8FD5E2003F0C5FD0020C5
:1028200003F0C2FD642003F0BFFD002003F0BCFDF7
:102830008C2003F0B9FD002003F0B6FDAC2003F0BE
:10284000B3FD002003F0B0FDDC2003F0ADFD00205F
:1028500003F0AAFD702003F0A7FD002003F0A4FD03
:10286000902003F0A1FD002003F09EFDEB2003F07B
:102870009BFD002003F098FDDC2003F095FD002077
:1028800003F092FDB82003F095FD002003F08CFDCD
:10289000002003F089FD002003F086FD002003F0F6
:1028A00083FD002003F080FD002003F07DFD00206B
:1028B00003F07AFD002003F077FDBA2003F07AFDE3
:1028C000242003F071FD002003F06EFD002003F0D2
:1028D0006BFD002003F068FDC12003F06BFD20209C
:1028E00003F062FD002003F05FFD542003F05CFD67
:1028F000002003F059FDFF2003F056FD002003F0F7
:1029000053FDC22003F056FD0A2003F04DFD0020C8
:1029100003F04AFD042003F047FD002003F044FDCE
:10292000C32003F047FD3C2003F03EFD002003F0F0
:102930003BFD3A2003F038FD002003F035FD39203F
:1029400003F032FD002003F02FFD372003F02CFDB3
:10295000002003F029FD3C2003F026FD002003F0B9
:1029600023FD362003F020FD002003F01DFD322062
:1029700003F01AFD002003F017FD2F2003F014FDD3
:10298000002003F011FD2C2003F00EFD002003F0C9
:102990000BFD292003F008FD002003F005FD262093
:1029A00003F002FD002003F0FFFC242003F0FCFCF8
:1029B000002003F0F9FC242003F0F6FC002003F0D3
:1029C000F3FC232003F0F0FC002003F0EDFC3C209E
:1029D00003F0EAFC002003F0E7FC362003F0E4FCFF
:1029E000002003F0E1FC322003F0DEFC002003F0C5
:1029F000DBFC2F2003F0D8FC002003F0D5FC2C20BA
:102A000003F0D2FC002003F0CFFC292003F0CCFC23
:102A1000002003F0C9FC262003F0C6FC002003F0D0
:102A2000C3FC242003F0C0FC002003F0BDFC2420E4
:102A300003F0BAFC002003F0B7FC232003F0B4FC41
:102A4000002003F0B1FCC42003F0B4FC622003F0CA
:102A5000ABFC002003F0A8FC052003F0A5FC00203F
:102A600003F0A2FC842003F09FFC002003F09CFCF8
:102A7000F02003F099FC002003F096FC182003F0EE
:102A800093FC002003F090FCA42003F08DFC0020B8
:102A900003F08AFC182003F087FC002003F084FC7C
:102AA000502003F081FC002003F07EFC0C2003F09A
:102AB0007BFC002003F078FC172003F075FC00205D
:102AC00003F072FC952003F06FFC002003F06CFC17
:102AD000F32003F069FC002003F066FCE62003F01D
:102AE00063FC002003F060FCC52003F063FC32208F
:102AF00003F05AFC002003F057FC442003F054FC80
:102B0000002003F051FC652003F04EFC002003F090
:102B10004BFC762003F048FC002003F045FC8820A5
:102B200003F042FC002003F03FFCC62003F042FC0F
:102B3000202003F039FC002003F036FC172003F0BE
:102B400033FC002003F030FC012003F02DFC0020BA
:102B500003F02AFCC72003F02DFC002003F024FC26
:102B6000002003F021FC002003F01EFC002003F0F5
:102B70001BFCC82003F01EFC002003F015FC002005
:102B800003F012FC002003F00FFC002003F00CFC0B
:102B9000C92003F00FFC002003F006FC002003F026
:102BA00003FC002003F000FC002003F0FDFB0020EC
:102BB00003F0FAFB002003F0F7FB002003F0F4FB26
:102BC000002003F0F1FB002003F0EEFB002003F0F7
:102BD000EBFB002003F0E8FB002003F0E5FB002006
:102BE00003F0E2FB002003F0DFFB002003F0DCFB3E
:102BF000002003F0D9FBE02003F0DCFB162003F0FB
:102C0000D3FB002003F0D0FB1C2003F0CDFB002001
:102C100003F0CAFB212003F0C7FB002003F0C4FB34
:102C2000362003F0C1FB002003F0BEFB462003F07A
:102C3000BBFB002003F0B8FB522003F0B5FB0020E3
:102C400003F0B2FB642003F0AFFB002003F0ACFB09
:102C50007A2003F0A9FB002003F0A6FB8B2003F0F1
:102C6000A3FB002003F0A0FB992003F09DFB0020B4
:102C700003F09AFBA82003F097FB002003F094FBDD
:102C8000B92003F091FB002003F08EFBC42003F079
:102C90008BFB002003F088FBCA2003F085FB00209B
:102CA00003F082FBD22003F07FFB002003F07CFBCB
:102CB000D92003F079FB002003F076FBE02003F03D
:102CC00073FB002003F070FBF32003F06DFB00208A
:102CD00003F06AFBE12003F06DFB162003F064FBB8
:102CE000002003F061FB1C2003F05EFB002003F0DA
:102CF0005BFB222003F058FB002003F055FB36203D
:102D000003F052FB002003F04FFB452003F04CFB87
:102D1000002003F049FB522003F046FB002003F0A3
:102D200043FB642003F040FB002003F03DFB7A20CE
:102D300003F03AFB002003F037FB8B2003F034FB59
:102D4000002003F031FB992003F02EFB002003F05C
:102D50002BFBA82003F028FB002003F025FBB92063
:102D600003F022FB002003F01FFBC42003F01CFB38
:102D7000002003F019FBCA2003F016FB002003F02B
:102D800013FBD22003F010FB002003F00DFBD82032
:102D900003F00AFB002003F007FBE02003F004FB34
:102DA000002003F001FBF32003F0FEFA002003F003
:102DB000FBFAE22003F0FEFA052003F0F5FA00200A
:102DC00003F0F2FA0B2003F0EFFA002003F0ECFA24
:102DD0001B2003F0E9FA002003F0E6FA342003F0A8
:102DE000E3FA002003F0E0FA442003F0DDFA0020CB
:102DF00003F0DAFA4F2003F0D7FA002003F0D4FAF8
:102E0000612003F0D1FA002003F0CEFA792003F01C
:102E1000CBFA002003F0C8FA882003F0C5FA00209E
:102E200003F0C2FA972003F0BFFA002003F0BCFAC7
:102E3000A62003F0B9FA002003F0B6FAB72003F099
:102E4000B3FA002003F0B0FAC22003F0ADFA00207C
:102E500003F0AAFAC72003F0A7FA002003F0A4FAAF
:102E6000D12003F0A1FA002003F09EFAD62003F04F
:102E70009BFA002003F098FADD2003F095FA002079
:102E800003F092FAF32003F08FFA002003F08CFA9B
:102E9000E32003F08FFA052003F086FA002003F008
:102EA00083FA0A2003F080FA002003F07DFA1C2048
:102EB00003F07AFA002003F077FA332003F074FA73
:102EC000002003F071FA442003F06EFA002003F0B2
:102ED0006BFA502003F068FA002003F065FA6220D4
:102EE00003F062FA002003F05FFA782003F05CFA46
:102EF000002003F059FA882003F056FA002003F06E
:102F000053FA972003F050FA002003F04DFAA62060
:102F100003F04AFA002003F047FAB72003F044FA1E
:102F2000002003F041FAC22003F03EFA002003F033
:102F30003BFAC72003F038FA002003F035FAD1201D
:102F400003F032FA002003F02FFAD52003F02CFA18
:102F5000002003F029FADD2003F026FA002003F018
:102F600023FAF32003F020FA002003F01DFAE420F6
:102F700003F020FA012003F017FA002003F014FAFE
:102F8000012003F011FA002003F00EFA022003F0F2
:102F90000BFA002003F008FA2A2003F005FA0020BB
:102FA00003F002FA3C2003F0FFF9002003F0FCF9E3
:102FB0004B2003F0F9F9002003F0F6F95D2003F04F
:102FC000F3F9002003F0F0F9742003F0EDF900208C
:102FD00003F0EAF9842003F0E7F9002003F0E4F9B4
:102FE000932003F0E1F9002003F0DEF9A22003F0C2
:102FF000DBF9002003F0D8F9B32003F0D5F9002065
:1030000003F0D2F9BE2003F0CFF9002003F0CCF991
:10301000C42003F0C9F9002003F0C6F9CD2003F065
:10302000C3F9002003F0C0F9D32003F0BDF900205C
:1030300003F0BAF9DD2003F0B7F9002003F0B4F98A
:10304000F32003F0B1F9002003F0AEF9E52003F01E
:10305000B1F9002003F0A8F9002003F0A5F9002041
:1030600003F0A2F9002003F09FF9022003F09CF97D
:10307000002003F099F9292003F096F9002003F0CD
:1030800093F93C2003F090F9002003F08DF94B20D8
:1030900003F08AF9002003F087F95D2003F084F93A
:1030A000002003F081F9742003F07EF9002003F082
:1030B0007BF9842003F078F9002003F075F9932060
:1030C00003F072F9002003F06FF9A22003F06CF90D
:1030D000002003F069F9B32003F066F9002003F043
:1030E00063F9BE2003F060F9002003F05DF9C4200D
:1030F00003F05AF9002003F057F9CD2003F054F9FA
:10310000002003F051F9D32003F04EF9002003F022
:103110004BF9DC2003F048F9002003F045F9F320D7
:1031200003F042F9002003F03FF9E62003F042F9F2
:10313000112003F039F9002003F036F9342003F0B0
:1031400033F9002003F030F9562003F02DF9002068
:1031500003F02AF9762003F027F9002003F024F980
:10316000772003F021F9002003F01EF9662003F018
:103170001BF9002003F018F9882003F015F900204E
:1031800003F012F9992003F00FF9002003F00CF975
:10319000BB2003F009F9002003F006F9992003F0A1
:1031A00003F9002003F000F9662003F0FDF8002089
:1031B00003F0FAF8552003F0F7F8002003F0F4F8D4
:1031C000552003F0F1F8002003F0EEF8452003F05D
:1031D000EBF8002003F0E8F8432003F0E5F80020C6
:1031E00003F0E2F8442003F0DFF8002003F0DCF8FD
:1031F000E72003F0DFF8322003F0D6F8002003F0D8
:10320000D3F8552003F0D0F8002003F0CDF8762055
:1032100003F0CAF8002003F0C7F8662003F0C4F8F2
:10322000002003F0C1F8672003F0BEF8002003F08F
:10323000BBF8672003F0B8F8002003F0B5F887204A
:1032400003F0B2F8002003F0AFF8992003F0ACF8D7
:10325000002003F0A9F8BB2003F0A6F8002003F03B
:10326000A3F8992003F0A0F8002003F09DF8772040
:1032700003F09AF8002003F097F8442003F094F844
:10328000002003F091F8562003F08EF8002003F0A0
:103290008BF8232003F088F8002003F085F8332012
:1032A00003F082F8002003F07FF8452003F07CF85B
:1032B000002003F079F8E82003F07CF8002003F008
:1032C00073F8002003F070F8992003F06DF80020E7
:1032D00003F06AF8872003F067F8002003F064F831
:1032E000882003F061F8002003F05EF8772003F0F7
:1032F0005BF8002003F058F8662003F055F8002032
:1033000003F052F8882003F04FF8002003F04CF847
:10331000AA2003F049F8002003F046F8BB2003F090
:1033200043F8002003F040F8992003F03DF8002016
:1033300003F03AF8662003F037F8002003F034F881
:10334000552003F031F8002003F02EF8552003F04B
:103350002BF8002003F028F8442003F025F8002083
:1033600003F022F8442003F01FF8002003F01CF8BB
:10337000552003F019F8002003F016F8E92003F0B7
:1033800019F8AA2003F010F8002003F00DF800202F
:1033900003F00AF8002003F007F8002003F00AF811
:1033A000AA2003F001F8CF2003F004F8002002F077
:1033B000FBFF002002F0F8FF002002F0F5FF0020E4
:1033C00002F0F2FF002002F0EFFF002002F0ECFF1D
:1033D000002002F0E9FF002002F0E6FF002002F0EA
:1033E000E3FF002002F0E0FF002002F0DDFF0020FC
:1033F00002F0DAFF002002F0D7FF002002F0D4FF35
:10340000002002F0D1FF002002F0CEFF002002F0E9
:10341000CBFFF02002F0CEFF002002F0C5FF5020CD
:1034200002F0C2FF002002F0BFFF002002F0BCFF4C
:10343000002002F0B9FFF32002F0BCFF002002F0F0
:10344000B3FFF92002F0B6FF062002F0ADFF102016
:1034500002F0AAFF292002F0A7FF002002F0A4FF3B
:103460003A2002F0A7FF552002F09EFF112002F043
:10347000A1FF6420FEF7C7FC292002F09BFF352046
:1034800002F098FF002002F08FFF512002F092FF1F
:10349000FF2002F089FF532002F08CFF2C2002F065
:1034A00083FF552002F086FF822002F07DFF2C2052
:1034B00002F080FF02F0E9B8FE48808845F2105122
:1034C00088427DD155214FF4704002F083FFAA213C
:1034D0004FF2010002F07EFF52214FF2020002F093
:1034E00079FF08214FF2030002F074FF01214FF22F
:1034F000040002F06FFF0D214FF4304002F06AFF2C
:103500000D214BF2010002F065FF0D214BF202008C
:1035100002F060FF34214FF4364002F05BFF3421AB
:103520004BF2016002F056FF34214BF2026002F0D0
:1035300051FF0D214FF4314002F04CFF0D214BF2B1
:10354000011002F047FF0D214BF2021002F042FF82
:1035500034214FF4374002F03DFF34214BF201702B
:1035600002F038FF34214BF2027002F033FF0021E9
:103570004FF4324002F02EFF00214BF2012002F006
:1035800029FF00214BF2022002F024FF24214FF4F6
:10359000384002F01FFF24214BF6010002F01AFF11
:1035A00024214BF6020002F015FF01214FF43F40A9
:1035B00002F010FF0F214FF4334002F00BFF00E048
:1035C000FDE30F214BF2013002F004FF0F214BF21B
:1035D000023002F0FFFE34214FF4394002F0FAFECF
:1035E00034214BF6011002F0F5FE34214BF60210A7
:1035F00002F0F0FE08214FF4354002F0EBFE082106
:103600004BF2015002F0E6FE08214BF2025002F0AC
:10361000E1FE03214FF4424002F0DCFE24214FF48E
:103620003A4002F0D7FE24214BF6012002F0D2FEF0
:1036300024214BF6022002F0CDFE00214FF43C4045
:1036400002F0C8FE78214BF6014002F0C3FE0021D3
:103650004BF6024002F0BEFE00214FF43D4002F066
:10366000B9FE78214BF6015002F0B4FE00214BF672
:10367000025002F0AFFE00214FF43E4002F0AAFEDD
:1036800064214BF6016002F0A5FE00214FF4514089
:1036900002F0A0FE33214DF2011002F09BFE00214A
:1036A0004DF2021002F096FE34214DF2031002F0AA
:1036B00091FE00214DF2041002F08CFE3A214DF2F1
:1036C000051002F087FE00214DF2061002F082FE86
:1036D0004A214DF2071002F07DFE00214DF2081044
:1036E00002F078FE5C214DF2091002F073FE002119
:1036F0004DF20A1002F06EFE81214DF20B1002F025
:1037000069FE00214DF20C1002F064FEA6214DF27C
:103710000D1002F05FFE00214DF20E1002F05AFE75
:10372000E5214DF20F1002F055FE01214DF210106F
:1037300002F050FE13214DF2111002F04BFE012158
:103740004DF2121002F046FE54214DF2131002F019
:1037500041FE01214DF2141002F03CFE82214DF297
:10376000151002F037FE01214DF2161002F032FE64
:10377000CA214DF2171002F02DFE02214DF2181051
:1037800002F028FE00214DF2191002F023FE022162
:103790004DF21A1002F01EFE01214DF21B1002F034
:1037A00019FE02214DF21C1002F014FE34214DF2DC
:1037B0001D1002F00FFE02214DF21E1002F00AFE53
:1037C00067214DF21F1002F005FE02214DF220107C
:1037D00002F000FE84214DF2211002F0FBFD0221D7
:1037E0004DF2221002F0F6FDA4214DF2231002F05A
:1037F000F1FD02214DF2241002F0ECFDB7214DF253
:10380000251002F0E7FD02214DF2261002F0E2FD44
:10381000CF214DF2271002F0DDFD02214DF22810DC
:1038200002F0D8FDDE214DF2291002F0D3FD022175
:103830004DF22A1002F0CEFDF2214DF22B1002F0D3
:10384000C9FD02214DF22C1002F0C4FDFE214DF203
:103850002D1002F0BFFD03214DF22E1002F0BAFD33
:1038600010214DF22F1002F0B5FD03214DF2301062
:1038700002F0B0FD33214DF2311002F0ABFD032117
:103880004DF2321002F0A6FD6D214DF2331002F020
:10389000A1FD00214FF4524002F09CFD33214DF276
:1038A000012002F097FD00214DF2022002F092FD6E
:1038B000342101E0F80300204DF2032002F08AFDDC
:1038C00000214DF2042002F085FD3A214DF2052041
:1038D00002F080FD00214DF2062002F07BFD4A211E
:1038E0004DF2072002F076FD00214DF2082002F093
:1038F00071FD5C214DF2092002F06CFD00214DF2BA
:103900000A2002F067FD81214DF20B2002F062FDDA
:1039100000214DF20C2002F05DFDA6214DF20D209C
:1039200002F058FD00214DF20E2002F053FDE5217A
:103930004DF20F2002F04EFD01214DF2102002F059
:1039400049FD13214DF2112002F044FD01214DF2F9
:10395000122002F03FFD54214DF2132002F03AFDF7
:1039600001214DF2142002F035FD82214DF2152087
:1039700002F030FD01214DF2162002F02BFDCA218C
:103980004DF2172002F026FD02214DF2182002F020
:1039900021FD00214DF2192002F01CFD02214DF203
:1039A0001A2002F017FD01214DF21B2002F012FD3A
:1039B00002214DF21C2002F00DFD34214DF21D209C
:1039C00002F008FD02214DF21E2002F003FD6721E6
:1039D0004DF21F2002F0FEFC02214DF2202002F0E9
:1039E000F9FC84214DF2212002F0F4FC02214DF279
:1039F000222002F0EFFCA4214DF2232002F0EAFC89
:103A000002214DF2242002F0E5FCB7214DF22520E1
:103A100002F0E0FC02214DF2262002F0DBFCCF2177
:103A20004DF2272002F0D6FC02214DF2282002F0B0
:103A3000D1FCDE214DF2292002F0CCFC02214DF216
:103A40002A2002F0C7FCF2214DF22B2002F0C2FC2A
:103A500002214DF22C2002F0BDFCFE214DF22D2062
:103A600002F0B8FC03214DF22E2002F0B3FC10212D
:103A70004DF22F2002F0AEFC03214DF2302002F077
:103A8000A9FC33214DF2312002F0A4FC03214DF2B8
:103A9000322002F09FFC6D214DF2332002F09AFC9F
:103AA00000214FF4534002F095FC33214DF20130D8
:103AB00002F090FC00214DF2023002F08BFC342128
:103AC0004DF2033002F086FC00214DF2043002F08A
:103AD00081FC3A214DF2053002F07CFC00214DF2D0
:103AE000063002F077FC4A214DF2073002F072FCFA
:103AF00000214DF2083002F06DFC5C214DF20930DE
:103B000002F068FC00214DF20A3002F063FC8121D2
:103B10004DF20B3002F05EFC00214DF20C3002F051
:103B200059FCA6214DF20D3002F054FC00214DF25B
:103B30000E3002F04FFCE5214DF20F3002F04AFC4E
:103B400001214DF2103002F045FC13214DF21130ED
:103B500002F040FC01214DF2123002F03BFC5421F6
:103B60004DF2133002F036FC01214DF2143002F018
:103B700031FC82214DF2153002F02CFC01214DF276
:103B8000163002F027FCCA214DF2173002F022FC59
:103B900002214DF2183002F01DFC00214DF21930C7
:103BA00002F018FC02214DF21A3002F013FC012140
:103BB0004DF21B3002F00EFC02214DF21C3002F0DF
:103BC00009FC34214DF21D3002F004FC02214DF2BB
:103BD0001E3002F0FFFB67214DF21F3002F0FAFBAE
:103BE00002214DF2203002F0F5FB84214DF221300C
:103BF00002F0F0FB02214DF2223002F0EBFBA42197
:103C00004DF2233002F0E6FB02214DF2243002F0A7
:103C1000E1FBB7214DF2253002F0DCFB02214DF231
:103C2000263002F0D7FBCF214DF2273002F0D2FB35
:103C300002214DF2283002F0CDFBDE214DF2293079
:103C400002F0C8FB02214DF22A3002F0C3FBF22140
:103C50004DF22B3002F0BEFB02214DF22C3002F06F
:103C6000B9FBFE214DF22D3002F0B4FB03214DF2E1
:103C70002E3002F0AFFB10214DF22F3002F0AAFBE4
:103C800003214DF2303002F0A5FB33214DF23130EB
:103C900002F0A0FB03214DF2323002F09BFB6D21BC
:103CA0004DF2333002F096FB00214FF4544002F005
:103CB00091FB33214DF2014002F08CFB00214DF2CB
:103CC000024002F087FB34214DF2034002F082FBF8
:103CD00000214DF2044002F07DFB3A214DF20540F7
:103CE00002F078FB00214DF2064002F073FB4A21FE
:103CF0004DF2074002F06EFB00214DF2084002F049
:103D000069FB5C214DF2094002F064FB00214DF299
:103D10000A4002F05FFB81214DF20B4002F05AFB9A
:103D200000214DF20C4002F055FBA6214DF20D4052
:103D300002F050FB00214DF20E4002F04BFBE5215A
:103D40004DF20F4002F046FB01214DF2104002F00F
:103D500041FB13214DF2114002F03CFB01214DF2D9
:103D6000124002F037FB54214DF2134002F032FBB7
:103D700001214DF2144002F02DFB82214DF215403D
:103D800002F028FB01214DF2164002F023FBCA216C
:103D90004DF2174002F01EFB02214DF2184002F0D6
:103DA00019FB00214DF2194002F014FB02214DF2E3
:103DB0001A4002F00FFB01214DF21B4000E006E328
:103DC00002F008FB02214DF21C4002F003FB3421FB
:103DD0004DF21D4002F0FEFA02214DF21E4002F0AB
:103DE000F9FA67214DF21F4002F0F4FA02214DF278
:103DF000204002F0EFFA84214DF2214002F0EAFA6D
:103E000002214DF2224002F0E5FAA4214DF22340B6
:103E100002F0E0FA02214DF2244002F0DBFAB72171
:103E20004DF2254002F0D6FA02214DF2264002F072
:103E3000D1FACF214DF2274002F0CCFA02214DF207
:103E4000284002F0C7FADE214DF2294002F0C2FA02
:103E500002214DF22A4002F0BDFAF2214DF22B4030
:103E600002F0B8FA02214DF22C4002F0B3FAFE2122
:103E70004DF22D4002F0AEFA03214DF22E4002F039
:103E8000A9FA10214DF22F4002F0A4FA03214DF2BD
:103E9000304002F09FFA33214DF2314002F09AFA9D
:103EA00003214DF2324002F095FA6D214DF233407C
:103EB00002F090FA00214FF4554002F08BFA3321C2
:103EC0004DF2015002F086FA00214DF2025002F04C
:103ED00081FA34214DF2035002F07CFA00214DF2B8
:103EE000045002F077FA3A214DF2055002F072FACE
:103EF00000214DF2065002F06DFA4A214DF20750B2
:103F000002F068FA00214DF2085002F063FA5C21D9
:103F10004DF2095002F05EFA00214DF20A5002F013
:103F200059FA81214DF20B5002F054FA00214DF262
:103F30000C5002F04FFAA6214DF20D5002F04AFA51
:103F400000214DF20E5002F045FAE5214DF20F50DE
:103F500002F040FA01214DF2105002F03BFA132119
:103F60004DF2115002F036FA01214DF2125002F0DA
:103F700031FA54214DF2135002F02CFA01214DF286
:103F8000145002F027FA82214DF2155002F022FA65
:103F900001214DF2165002F01DFACA214DF21750C0
:103FA00002F018FA02214DF2185002F013FA002123
:103FB0004DF2195002F00EFA02214DF21A5002F0A1
:103FC00009FA01214DF21B5002F004FA02214DF2D0
:103FD0001C5002F0FFF934214DF21D5002F0FAF9A5
:103FE00002214DF21E5002F0F5F967214DF21F50EB
:103FF00002F0F0F902214DF2205002F0EBF9842199
:104000004DF2215002F0E6F902214DF2225002F069
:10401000E1F9A4214DF2235002F0DCF902214DF226
:10402000245002F0D7F9B7214DF2255002F0D2F911
:1040300002214DF2265002F0CDF9CF214DF227504A
:1040400002F0C8F902214DF2285002F0C3F9DE2136
:104050004DF2295002F0BEF902214DF22A5002F031
:10406000B9F9F2214DF22B5002F0B4F902214DF2D0
:104070002C5002F0AFF9FE214DF22D5002F0AAF9BA
:1040800003214DF22E5002F0A5F910214DF22F50D0
:1040900002F0A0F903214DF2305002F09BF93321D8
:1040A0004DF2315002F096F903214DF2325002F0F8
:1040B00091F96D214DF2335002F08CF900214FF44B
:1040C000564002F087F933214DF2016002F082F987
:1040D00000214DF2026002F07DF934214DF20360BF
:1040E00002F078F900214DF2046002F073F93A21F0
:1040F0004DF2056002F06EF900214DF2066002F00B
:1041000069F94A214DF2076002F064F900214DF28D
:10411000086002F05FF95C214DF2096002F05AF983
:1041200000214DF20A6002F055F981214DF20B6039
:1041300002F050F900214DF20C6002F04BF9A6217B
:104140004DF20D6002F046F900214DF20E6002F0D2
:1041500041F9E5214DF20F6002F03CF901214DF2E9
:10416000106002F037F913214DF2116002F032F9BC
:1041700001214DF2126002F02DF954214DF213602D
:1041800002F028F901214DF2146002F023F9822196
:104190004DF2156002F01EF901214DF2166002F099
:1041A00019F9CA214DF2176002F014F902214DF2FB
:1041B000186002F00FF900214DF2196002F00AF9BF
:1041C00002214DF21A6002F005F901214DF21B6047
:1041D00002F000F902214DF21C6002F0FBF83421DC
:1041E0004DF21D6002F0F6F802214DF21E6002F061
:1041F000F1F867214DF21F6002F0ECF802214DF258
:10420000206002F0E7F884214DF2216002F0E2F82C
:1042100002214DF2226002F0DDF8A4214DF223606C
:1042200002F0D8F802214DF2246002F0D3F8B72151
:104230004DF2256002F0CEF802214DF2266002F028
:10424000C9F8CF214DF2276002F0C4F802214DF2E7
:10425000286002F0BFF8DE214DF2296002F0BAF8C2
:1042600002214DF22A6002F0B5F8F2214DF22B60E6
:1042700002F0B0F802214DF22C6002F0ABF8FE2102
:104280004DF22D6002F0A6F803214DF22E6002F0EF
:10429000A1F810214DF22F6002F09CF803214DF29D
:1042A000306002F097F833214DF2316002F092F85D
:1042B00003214DF2326002F08DF86D214DF2336032
:1042C00002F088F855214FF4704002F083F8AA21DB
:1042D0004FF2010002F07EF852214FF2020002F08C
:1042E00079F808214FF2030002F074F800214FF230
:1042F000040002F06FF8CC214FF4314002F06AF86C
:1043000000214BF2011002F065F805214FF4364010
:1043100002F060F870214FF4374002F05BF8702132
:104320004BF2017002F056F801214FF4384002F0D0
:1043300051F803214BF6010002F04CF803214BF633
:10434000020002F047F803214BF6030002F042F8A6
:1043500002214FF43C4002F03DF800214BF60140B1
:1043600002F038F800214BF6024002F033F8D02179
:104370004FF4494002F02EF802214CF6011002F0F1
:1043800029F850214CF6021002F024F850214CF686
:10439000031002F01FF850214CF6041002F01AF836
:1043A00000214FF4545002F015F855214FF4685095
:1043B00002F010F84FF4885001F0FCFF7820FDF770
:1043C0002EFD4FF4245001F0F5FF01F05EB9FE48D8
:1043D000808849F2253188427ED147F6F001E520F8
:1043E00001F0F8FF4FF48071012001F0F3FF4FF46A
:1043F000E061022001F0EEFF41F23001032001F004
:10440000E9FF0021042001F0E5FF40F2022108202D
:1044100001F0E0FF0021092001F0DCFF00210A206B
:1044200001F0D8FF00210C2001F0D4FF00210D2065
:1044300001F0D0FF00210F2001F0CCFF002110205F
:1044400001F0C8FF0721112001F0C4FF0021122054
:1044500001F0C0FF0021132001F0BCFF0021072064
:1044600001F0B8FF41F29061102001F0B3FF40F27B
:104470002721112001F0AEFF9D21122001F0AAFF9B
:104480004FF4C851132001F0A5FF2521292001F088
:10449000A1FF0D212B2001F09DFF0721302001F00D
:1044A00099FF40F20331312001F094FF03213220C3
:1044B00001F090FF40F20621352001F08BFF08212A
:1044C000362001F087FF40F20641372001F082FFDD
:1044D0004FF44171382000E057E001F07BFF0721E5
:1044E000392001F077FF40F202613C2001F072FFB9
:1044F00008213D2001F06EFF0021502001F06AFFED
:10450000EF21512001F066FF0021522001F062FFEF
:1045100040F23F11532001F05DFF4FF4274160202E
:1045200001F058FF0121612001F054FF00216A20B1
:1045300001F050FF0021802001F04CFF002181207C
:1045400001F048FF0021822001F044FF0021832078
:1045500001F040FF0021842001F03CFF0021852074
:1045600001F038FF1021902001F034FF4FF4C061BA
:10457000922001F02FFF40F23311072001F02AFFB3
:104580002221002001F026FF1FE78F48808849F292
:10459000283188427ED141F28F01EC2001F01AFFD0
:1045A00041F23421EF2001F015FF4FF4807101201A
:1045B00001F010FF4FF4E061022001F00BFF41F227
:1045C0003001032001F006FF0021042001F002FF6A
:1045D00040F20221082001F0FDFE0021092001F037
:1045E000F9FE00210A2001F0F5FE01210C2001F066
:1045F000F1FE00210D2001F0EDFE00210F2001F061
:10460000E9FE0021102001F0E5FE0721112001F054
:10461000E1FE0021122001F0DDFE0021132001F057
:10462000D9FE0121072001F0D5FE3220FDF7EBFB7A
:1046300041F29041102001F0CDFE40F227211120DF
:1046400001F0C8FE3220FDF7DEFB8A21122001F0C6
:10465000C1FE3220FDF7D7FB4FF4D051132001F0FB
:10466000B9FE0621292001F0B5FE0D212B2001F015
:10467000B1FE3220FDF7C7FB0021202001F0AAFE89
:104680000021212001F0A6FE3220FDF7BCFB002115
:10469000302000E074E001F09DFE40F20461312022
:1046A00001F098FE40F20531322001F093FE002126
:1046B000352001F08FFE40F60941362001F08AFED8
:1046C0004FF40171372001F085FE40F201313820AE
:1046D00001F080FE40F20771392001F07BFE0021DD
:1046E0003C2001F077FE40F60A213D2001F072FEE9
:1046F0003220FDF788FB0021502001F06BFEEF21F6
:10470000512001F067FE0021522001F063FE40F2CB
:104710003F11532001F05EFE4FF42741602001F06D
:1047200059FE0121612001F055FE00216A2001F0AF
:1047300051FE0021802001F04DFE0021812001F07A
:1047400049FE0021822001F045FE0021832001F076
:1047500041FE0021842001F03DFE0021852001F072
:1047600039FE1021902001F035FE4FF4C0619220F7
:1047700001F030FE40F23311072001F02BFE24E659
:104780001148808849F2203188427DD100210846B5
:1047900001F020FE4FF48071012001F01BFE4FF468
:1047A000E061022001F016FE41F23001032001F029
:1047B00011FE0021042001F00DFE40F2022108202C
:1047C00001F008FE002101E0F8030020092001F0BB
:1047D00001FE00210A2001F0FDFD01210C2001F065
:1047E000F9FD00210D2001F0F5FD00210F2001F061
:1047F000F1FD3220FDF707FB40F20111072001F027
:10480000E9FD3220FDF7FFFA4FF48651102001F048
:10481000E1FD0721112001F0DDFD4FF48871122028
:1048200001F0D8FD4FF43061132001F0D3FD0021D9
:10483000292001F0CFFD44F210012B2001F0CAFD28
:104840000021502001F0C6FDEF21512001F0C2FDF2
:104850000021522001F0BEFD40F23F11532001F033
:10486000B9FD4FF41C51602001F0B4FD012161201D
:1048700001F0B0FD00216A2001F0ACFD0021802094
:1048800001F0A8FD002100E031E0812001F0A2FD4F
:104890000021822001F09EFD0021832001F09AFD7D
:1048A0000021842001F096FD0021852001F092FD79
:1048B0001021902001F08EFD0021922001F08AFD50
:1048C0000121932001F086FD4FF48871952001F0BD
:1048D00081FD0021972001F07DFD0021982001F04D
:1048E00079FD40F27311072001F074FD6DE5FE487B
:1048F000808849F2313188427DD141F21401E720AC
:1049000001F068FD4FF48071012001F063FD4FF468
:104910000071022001F05EFD41F23801032001F038
:1049200059FD40F20221082001F054FD0021092028
:1049300001F050FD00210A2001F04CFD00210C2067
:1049400001F048FD00210D2001F044FD00210F2061
:1049500001F040FD0021102001F03CFD0721112055
:1049600001F038FD0021122001F034FD0021132058
:1049700001F030FDC820FDF746FA41F290611020A9
:1049800001F028FD40F22721112001F023FD322003
:10499000FDF739FA0C21122001F01CFD3220FDF741
:1049A00032FA4FF40061132001F014FD1121292087
:1049B00001F010FD0B212B2001F00CFD3220FDF742
:1049C00022FA0021202001F005FD40F23F112120B4
:1049D00001F000FD0021302001F0FCFC4FF4837158
:1049E000312001F0F7FC0021322001F0F3FC4FF4FC
:1049F0000171352000E064E001F0ECFC41F20A6155
:104A0000362001F0E7FC40F20771372001F0E2FCAC
:104A10004FF48371382001F0DDFC40F2077139203A
:104A200001F0D8FC40F202413C2001F0D3FC40F6FA
:104A30000F413D2001F0CEFC0021502001F0CAFCC6
:104A4000EF21512001F0C6FC0021522001F0C2FCF0
:104A500040F23F11532001F0BDFC4FF41C51602087
:104A600001F0B8FC0121612001F0B4FC00216A20B2
:104A700001F0B0FC0021802001F0ACFC002181207D
:104A800001F0A8FC0021822001F0A4FC0021832079
:104A900001F0A0FC0021842001F09CFC0021852075
:104AA00001F098FC1021902001F094FC4FF4C061BB
:104AB000922001F08FFC40F23311072001F08AFCB4
:104AC00083E48948808845F2084188427ED14FF4CA
:104AD0008071012001F07EFC4FF4E061022001F0C2
:104AE00079FC41F23001032001F074FC0021042024
:104AF00001F070FC40F20721082001F06BFC00215E
:104B0000092001F067FC00210A2001F063FC00216C
:104B10000C2001F05FFC00210D2001F05BFC002166
:104B20000F2001F057FC1420FDF76DF941F2B06140
:104B3000102001F04FFC0121112001F04BFC01215C
:104B4000172001F047FC4FF49C71122001F042FC49
:104B50004FF40061132001F03DFC0921292001F0F0
:104B600039FC09212A2001F035FC0021A42001F0A4
:104B700031FC0021502001F02DFCEF21512001F0EB
:104B800029FC0021522001F025FC40F23F11532066
:104B900001F020FC4FF41C51602001F01BFC0121AE
:104BA000612001F017FC00216A2001F013FC0021B4
:104BB000802001F00FFC0021812001F00BFC00217E
:104BC000822001F007FC0021832000E023E001F0B7
:104BD00001FC0021842001F0FDFB0021852001F073
:104BE000F9FB1321902001F0F5FB0021922001F048
:104BF000F1FB0321932001F0EDFB4FF48871952028
:104C000001F0E8FB40F27311072001F0E3FB3220D2
:104C1000FDF7F9F8B8E43448808841F2055188423C
:104C20007ED10021072001F0D5FB3220FDF7EBF803
:104C30004FF48E71122001F0CDFB0121A42001F070
:104C4000C9FB0F21082001F0C5FB08210A2001F053
:104C5000C1FB08210D2001F0BDFB40F2077130209F
:104C600001F0B8FB0721312001F0B4FB40F20361F1
:104C7000322001F0AFFB4FF4E061332001F0AAFBDA
:104C800040F20221342001F0A5FB0221352001F081
:104C9000A1FB41F60F71362001F09CFB40F2077139
:104CA000372001F097FB0021382001F093FB002111
:104CB000392001F08FFB40F207713A2001F08AFBA6
:104CC00000213B2001F086FB07213C2001F082FB04
:104CD00000213D2001F07EFB3220FDF794F80121F8
:104CE000072001F077FB01E0F803002001211720E5
:104CF00001F070FB3220FDF786F84FF4BD51102013
:104D000001F068FB40F21721112001F063FB4FF422
:104D10008F71122001F05EFB4FF47061132000E0F0
:104D200097E001F057FB00212A2001F053FB0A21F4
:104D3000292001F04FFB4FF49F71122001F04AFB34
:104D40000021502001F046FBEF21512001F042FBF1
:104D50000021522001F03EFB40F23F11532001F0B0
:104D600039FB4FF41C51602001F034FB012161201C
:104D700001F030FB00216A2001F02CFB0021802093
:104D800001F028FB0021812001F024FB002182207A
:104D900001F020FB0021832001F01CFB0021842076
:104DA00001F018FB0021852001F014FB1321902055
:104DB00001F010FB4FF44071922001F00BFB052134
:104DC000932001F007FB0021952001F003FB002157
:104DD000972001F0FFFA0021982001F0FBFA4FF430
:104DE0008071012001F0F6FA4FF4E061022001F039
:104DF000F1FA41F23801032001F0ECFA002104201D
:104E000001F0E8FA00210C2001F0E4FA00210F2063
:104E100001F0E0FA0021202001F0DCFA002121203D
:104E200001F0D8FA2121072001F0D4FA1420FCF770
:104E3000EAFF6121072001F0CDFA1420FCF7E3FF1F
:104E400040F27311072001F0C5FA1420FCF7DBFFD4
:104E500095E4FE4880884BF2055188427ED10021BE
:104E6000084601F0B7FA0021084601F0B3FA002124
:104E7000084601F0AFFA0021084601F0ABFA012123
:104E8000A42001F0A7FA1420FCF7BDFF4FF41C5139
:104E9000602001F09FFA40F20221082001F09AFA06
:104EA0004FF40571302001F095FA43F2157131206D
:104EB00001F090FA40F20461322001F08BFA40F6E2
:104EC0001661332001F086FA42F21121342001F0FC
:104ED00081FA4FF4A851352001F07CFA48F20751CD
:104EE000362001F077FA41F20741372001F072FADB
:104EF00041F20341382001F06DFA2021392001F000
:104F000069FA1A21902001F065FA0021102001F0C1
:104F100061FA0721112001F05DFA0021122001F051
:104F200059FA0021132001F055FA1420FCF76BFF09
:104F30004FF4E661102001F04DFA40F237111120D4
:104F400001F048FA1420FCF75EFF4FF4DC711220E8
:104F500001F040FA1420FCF756FF00E083E04FF424
:104F60007061132001F036FA80212A2001F032FA14
:104F70004821292001F02EFA1420FCF744FF4FF4B9
:104F80008071012001F026FA4FF4E061022001F067
:104F900021FA41F23801032001F01CFA40F202210B
:104FA000082001F017FA00210A2001F013FA00216D
:104FB0000C2001F00FFA00210D2001F00BFA302136
:104FC0000E2001F007FA0021502001F003FAEF2132
:104FD000512001F0FFF90021522001F0FBF940F2CD
:104FE0003F11532001F0F6F94FF41C51602001F0FD
:104FF000F1F90121612001F0EDF900216A2001F0B1
:10500000E9F91121902001F0E5F94FF4C0619220F7
:1050100001F0E0F940F20241932001F0DBF90221B6
:10502000942001F0D7F91420FCF7EDFE01210720B0
:1050300001F0D0F91420FCF7E6FE6121072001F011
:10504000C9F940F27311072001F0C4F900212020B2
:1050500001F0C0F90021212001F0BCF9222100203B
:1050600001F0B8F911E3794880884CF20551884283
:105070007ED10021084601F0ADF90021084601F07B
:10508000A9F91420FCF7BFFE0021084601F0A2F99F
:105090000021084601F09EF90021084601F09AF926
:1050A0000021084601F096F90121A42001F092F9AF
:1050B0001420FCF7A8FE4FF41C51602001F08AF97F
:1050C00040F60601082001F085F940F20371302016
:1050D00001F080F90121312001F07CF90421322016
:1050E00001F078F94FF48171332001F073F94FF436
:1050F0004071342001F06EF940F20311352001F0C7
:1051000069F91F21362001F065F940F2037137205B
:1051100001F060F90121382001F05CF90421392007
:1051200001F058F91521902001F054F94FF48261F3
:10513000102001F04FF940F24721112001F04AF907
:105140004FF4DE71122001F045F94FF46061132035
:1051500001F040F97820FCF756FE4FF480710120F1
:1051600001F038F94FF40071022001F033F900E04A
:1051700050E041F23001032001F02CF908210A200F
:1051800001F028F900210C2001F024F920210E2043
:1051900001F020F900210F2001F01CF9002120204E
:1051A00001F018F90021212001F014F93D212A20F5
:1051B00001F010F91420FCF726FE2D21292001F022
:1051C00009F90021502001F005F94DF2EF015120BD
:1051D00001F000F90021522001F0FCF840F23F11EB
:1051E000532001F0F7F80021612001F0F3F80021CD
:1051F0006A2001F0EFF84FF44071922001F0EAF8D4
:105200000521932001F0E6F84FF48071072001F0AA
:10521000E1F83AE20D48808844F2315188427CD16D
:105220000121002001F0D6F80A20FCF7ECFD41F244
:105230002861102001F0CEF80E21122001F0CAF8EA
:1052400040F63921132001F0C5F801E0F8030020F1
:105250000A20FCF7D8FD4021112001F0BBF85021B5
:10526000152001F0B7F80A20FCF7CDFD1E21122011
:1052700001F0B0F80A20FCF7C6FD4FF4B151102040
:1052800001F0A8F842F63921132001F0A3F80A2012
:10529000FCF7B9FD4FF48071012001F09BF84FF449
:1052A0004071022001F096F841F23801032001F02C
:1052B00091F840F20221082001F08CF808210A2020
:1052C00001F088F80021302001F084F840F202411A
:1052D000312001F07FF84FF48371322001F07AF829
:1052E00040F20351332001F075F84FF482713420FD
:1052F00001F070F840F20131352001F06BF840F216
:105300000771362001F066F840F20531372001F0D0
:1053100061F84FF40271382000E040E001F05AF8E3
:1053200040F60B71392001F055F80221412001F0BF
:1053300051F84FF41C51602001F04CF8012161201C
:1053400001F048F84FF40471902001F043F84FF455
:105350008571922001F03EF80421932001F03AF883
:105360004FF48071A02001F035F80121072001F0F1
:1053700031F82121072001F02DF82321072001F029
:1053800029F83321072001F025F840F233110720D6
:1053900001F020F80021A02001F01CF875E1BB48C5
:1053A000808844F2355188427ED13021152001F0A9
:1053B00011F810219A2001F00DF82021112001F0A0
:1053C00009F843F22841102001F004F802211220CC
:1053D00001F000F841F23801132000F0FBFF282013
:1053E000FCF711FD1221084600F0F4FF2820FCF71D
:1053F0000AFD43F22041102000F0ECFF43F2380197
:10540000132000F0E7FF4620FCF7FDFC00213020D0
:1054100000F0E0FF40F20241312000F0DBFF40F2FB
:105420000731322000F0D6FF4FF44171332000F0F5
:10543000D1FF0421342000F0CDFF40F2014135209E
:1054400000F0C8FF40F20771362000F0C3FF40F2C1
:105450000531372000F0BEFF4FF4C261382000F064
:10546000B9FF4FF4C261392000F0B4FF4FF48071EE
:10547000012000F0AFFF4FF44071022000F0AAFFBE
:1054800041F23001032000F0A5FF40F6080108209A
:1054900000F0A0FF08210A2000F09CFF4FF41C51EF
:1054A000602000F097FF00E031E00121612000F072
:1054B00091FF4FF49F71902000F08CFF4FF48071AA
:1054C000922000F087FF4FF48071932000F082FF5C
:1054D0004FF44051A02000F07DFF1021A32000F0E8
:1054E00079FF0121072000F075FF2121072000F03E
:1054F00071FF2321072000F06DFF3321072000F00A
:1055000069FF40F23311072000F064FFBDE05F48FF
:10551000808841F663118842F8D1E22000F04AFF0A
:105520001D2000F041FF022000F03EFF042000F0AB
:105530003BFF6420FCF773FCE02000F03BFF012000
:1055400000F032FF0A20FCF75EFCE02000F032FFA2
:10555000032000F029FF0C20FCF755FC012000F08F
:1055600029FF0A20FCF74FFCE62000F023FF2F2044
:1055700000F01AFFFF2000F017FFFF2000F014FFDB
:10558000B02000F017FF202000F00EFF002000F0F8
:105590000BFF032000F008FF40F21F3000F004FF73
:1055A000012000F001FF40F2DF1000F0FDFE0020BE
:1055B00000F0FAFEB42000F0FDFE042000F0F4FE3E
:1055C00040F21F4000F0F0FE002000F0EDFE2E2023
:1055D00000F0EAFE002000F0E7FE002000F0E4FE0C
:1055E000002000F0E1FE002000F0DEFEB62000F01A
:1055F000E1FE022000F0D8FE4FF4037000F0D4FE6C
:10560000002000F0D1FE172000F0CEFE152000F0A3
:10561000CBFE002000F0C8FE002000F0C5FEF02008
:1056200000F0C8FE032000F0BFFE292000F0C2FEFB
:10563000D02000F0BFFE002000F0B6FEBE2000F03B
:10564000B9FE052000F0B0FEFE2000F0ADFE012006
:1056500000F0AAFE002000F0A7FE002000F0A4FE4B
:10566000002000F0A1FEB82000F0A4FE032000F00E
:105670009BFE012000F098FEBA2000F09BFE012066
:1056800000F092FE642000F053FB10BDF8030020F0
:1056900010B50446002C66D16C498871F020088052
:1056A0004FF4A07048800846808849F24131884212
:1056B0000BD06648808846F60401884205D06348CE
:1056C000808845F2103188421AD12C205F49088128
:1056D0002A2048812B2088810846808846F60401CC
:1056E000884205D05948808845F21031884206D159
:1056F0004FF4A070554908804FF4F0704880A1E045
:105700005248808845F21051884210D14FF43050F1
:105710004E4908814FF4285048814FF42C5088811D
:105720004FF4F07008804FF4487048808AE0474892
:10573000808841F6631188420DD12C2043490881AD
:105740002B2048812A2088814FF4F07008804FF484
:105750004870488076E022203C490881202048811A
:10576000212088816EE00120384988714FF4A070B3
:105770000880F02048800846808849F241318842FC
:1057800005D03248808845F21031884207D12C205C
:105790002E4908812A2048812B2088813FE02B4810
:1057A000808846F60401884207D12C2027490881C9
:1057B0002B2048812A20888131E02448808845F2C6
:1057C0001051884210D14FF43050204908814FF4D5
:1057D000285048814FF42C5088814FF4487008803D
:1057E0004FF4F07048801AE01848808841F6631141
:1057F00088420DD12C20154908812A2048812B2070
:1058000088814FF4487008804FF4F070488006E0BB
:1058100022200E49088121204881202088810B48C0
:10582000808846F60401884205D00848808845F201
:105830001031884206D14FF4F070044908804FF4CB
:10584000A0704880002000F09DFA10BDF8030020F1
:1058500030B504460D462946204600F009FC00F00C
:10586000AFFD024800880249088030BD2C000020AE
:105870000008006C00B59DB00121080201F01EF87F
:1058800001200790002008900F20099000200A9026
:105890000B900C900D90009001900320029000203E
:1058A000039004900590069006200E9000200F9023
:1058B00010901020119000201290149013901590C9
:1058C00016904FF480501790002018904FF48040AD
:1058D000199000201A9007A81B90CDF870D00EA840
:1058E000FCF752FB01210620FCF734FB1DB000BD84
:1058F00030B503460C4615465A48808849F2413176
:10590000884205D05748808845F21031884214D12A
:105910005449488900F04EFD181200F045FDD8B2F8
:1059200000F042FD4F49888900F044FD201200F04C
:105930003BFDE0B200F038FD8CE04A48808845F23B
:105940001051884220D14749488900F033FD181290
:1059500000F02AFD43494989491C88B200F02AFD1C
:10596000D8B200F021FD3F49888900F023FD2012C4
:1059700000F01AFD3B498989491C88B200F01AFDE4
:10598000E0B200F011FD65E03648808841F6631111
:10599000884228D13348807920B932480088401E97
:1059A000C01A83B22F49488900F004FD181200F094
:1059B000FBFCD8B200F0F8FC181200F0F5FCD8B2ED
:1059C00000F0F2FC2749888900F0F4FC201200F076
:1059D000EBFCE0B200F0E8FC201200F0E5FCE0B2E5
:1059E00000F0E2FC36E01F48808846F60401884259
:1059F0001DD11C488079012804D11A480088401E16
:105A0000C01A83B21749488900F0D4FC181200F07C
:105A1000CBFCD8B200F0C8FC1249888900F0CAFC5F
:105A2000201200F0C1FCE0B200F0BEFC12E00D4814
:105A30008079012804D10B480088401EC01A83B227
:105A400008494889194600F0C5FC0649888921465D
:105A500000F0C0FC0348008903490880881C0580C9
:105A600030BD0000F8030020FE07006C08B50121DE
:105A70004FF4B47000F042FF0120ADF80000102098
:105A80008DF8030003208DF8020069461648FCF7E4
:105A9000EEFA4CF23370ADF8000018208DF80300D8
:105AA00003208DF8020069461048FCF7E0FA4FF633
:105AB0008070ADF8000018208DF8030003208DF8E9
:105AC000020069460A48FCF7D2FA41F20100ADF83B
:105AD000000018208DF8030003208DF802006946AD
