:020000040800F2
:10000000D04A0020DD010008BF090008B709000838
:10001000BB09000865070008C713000800000000BE
:100020000000000000000000000000004501000882
:10003000690700080000000089010008FD0C0008A5
:10004000F7010008F7010008F7010008F50B0008A8
:10005000F7010008F701000885070008F70100080C
:10006000F7010008F7010008C9070008F7010008B8
:10007000F7010008F7010008F7010008F701000880
:10008000F7010008F7010008F7010008F701000870
:10009000F7010008F7010008F7010008FD07000854
:1000A000F7010008F7010008F7010008F701000850
:1000B000450E0008F7010008F7010008F7010008E5
:1000C000F7010008F7010008F7010008F701000830
:1000D000F7010008CD0F0008ED100008F701000837
:1000E000F7010008F7010008F7010008F701000810
:1000F000F7010008F7010008F7010008F701000800
:10010000F7010008F7010008F7010008F7010008EF
:10011000ED0E0008F70100086D0E0008990E0008AA
:10012000F7010008F7010008F7010008F7010008CF
:10013000DFF80CD000F004FB00480047ED1E00087B
:10014000D04A0020224B19680868B0E8F00F80F30D
:100150000988BFF36F8F4FF0000080F311884EF0D5
:100160000D0E70470000000006480068006880F32C
:10017000088862B661B6BFF34F8FBFF36F8F00DFA1
:1001800000BF00BF08ED00E0EFF30980BFF36F8F01
:100190000F4B1A6820E9F00F106008B54FF05000BF
:1001A00080F31188BFF34F8FBFF36F8F02F0FCFF16
:1001B0004FF0000080F31188BDE808401968086816
:1001C000B0E8F00F80F30988BFF36F8F704700BF6E
:1001D000B8000020EFF30580704700000648804714
:1001E00006480047FEE7FEE7FEE7FEE7FEE7FEE71C
:1001F000FEE7FEE7FEE7FEE7E50D00083101000837
:1002000040EA01039B0703D009E008C9121F08C098
:10021000042AFAD203E011F8013B00F8013B521E18
:10022000F9D270472DE9FE4F804681EA0300C00FE6
:100230000C46009021F0004123F00045B8EB02008D
:10024000A94105D24046214690461C460B4602462F
:1002500023F00040104347D0270DC7F30A00C3F333
:100260000A510290401A019040286BDAC3F3130040
:1002700040F4801B0098924620B10023D2EB030A81
:1002800063EB0B0B01985946C0F14002504600F059
:10029000B0F906460D4650465946019A00F0C8F995
:1002A00010EB08006141002487EA115284EAE773E9
:1002B0001A4340D0009A62B3019A012A4FEA0752CA
:1002C00015DC001B61EB02014FF0004202EA07520D
:1002D000CDE90042001C41F5801132462B4600F06A
:1002E000C8F903B0BDE8F08F40462146F9E7001B8E
:1002F00061EB0201001C41F5801300185B412018DE
:10030000A2F5001747EB030140EAD570B6196D411D
:1003100011E06D084FEA360645EAC0754FEA07520C
:10032000001B61EB0201001C41F5801149084FEAF6
:1003300030000019514132462B4603B0BDE8F04F62
:1003400000F088B90098012240000023D0EB02029F
:1003500063EBE073009821464FEAE074B8EB0000CD
:1003600061EB0401E9E783F000435BE781F00041C2
:1003700058E72DE9FE4F81EA030404F0004421F020
:10038000004100944FF0000B23F0004350EA0104B9
:100390005ED052EA03045BD0C3F30A54C1F30A559A
:1003A0002C44A4F2F3340194A0FB0254C1F31301D2
:1003B00041F48011C3F3130343F4801301FB02449F
:1003C00000FB034E840A970A44EA815447EA8357A4
:1003D000A4FB076802958D0A05FB07854FEA932C5D
:1003E00004FB0C542705029D4FEA065847EA1637CE
:1003F000B5EB08056EEB070C870E920E47EA8117E6
:1004000042EA8312A7FB0201B6EB0B0164EB000486
:100410002B0D43EA0C335E1844EB1C50DA46514670
:10042000E7FB0201C5F313044FEA0B3343EA14530D
:100430004FEA0432019C43EA0603A4F10C0402943F
:10044000009CCDE900B400F014F903B0BDE8F08FD2
:1004500000200146F9E72DE9F04D81EA030404F09C
:10046000004B21F0004514464FF0000A23F00041F4
:1004700050EA050220D054EA01021DD0C5F30A5704
:100480000246C5F31303C1F31300C1F30A5640F447
:10049000801543F48013A7EB0608101BD64608F21C
:1004A000FD3873EB050002D308F1010801E0921852
:1004B0005B41B8F1000F03DA00200146BDE8F08D82
:1004C00000204FF48011064684460EE0171B73EBA4
:1004D000050705D3121B63EB050306434CEA010C29
:1004E00049084FEA300092185B4150EA0107EDD10C
:1004F00052EA030012D082EA040083EA05010843AD
:1005000005D0101BAB4106D20122002306E00022D9
:100510004FF0004302E06FF0010253101AEB0600A7
:100520004CEB085110EB0A0041EB0B01BDE8F04D1C
:1005300000F090B830B5041E71F1000404DB4FF0F8
:100540000044404264EB0101141E73F1000405DB1A
:100550001C464FF00043524263EB0403994208BF2C
:10056000904230BD30B50B460146002020220124C8
:1005700009E021FA02F59D4205D303FA02F5491B71
:1005800004FA02F52844151EA2F10102F1DC30BD87
:100590002DE9F05F0546002092469B4688460646B8
:1005A000814640241BE0284641464746224600F04B
:1005B0002FF853465A46C01A914110D31146184697
:1005C000224600F016F82D1A67EB01084F46224626
:1005D0000120002100F00DF817EB00094E41201E0C
:1005E000A4F10104DFDC484631462A464346BDE813
:1005F000F09F202A04DB203A00FA02F10020704725
:100600009140C2F1200320FA03F319439040704750
:10061000202A04DB203A21FA02F00021704721FA57
:1006200002F3D040C2F120029140084319467047BE
:10063000202A06DBCB17203A41FA02F043EAE073A6
:1006400006E041FA02F3D040C2F120029140084393
:100650001946704710B5141E73F1000408DA401CE7
:1006600041F1000192185B411A4301D120F00100D1
:1006700010BD2DE9F04D92469B4611B1B1FA81F2C1
:1006800002E0B0FA80F220329046FFF7B2FF044653
:100690000F4640EA0A0041EA0B0153465A46084316
:1006A00013D0114653EA010019D0C8F14002504658
:1006B000FFF7AEFF05460E46504659464246FFF745
:1006C00098FF084305D0012004E020463946BDE8E4
:1006D000F08D0020054346EAE0762C4337430A9824
:1006E0006305E40AA0EB08000022FD0A44EA47542F
:1006F0000A3002D500200146E9E7010510196941D9
:10070000DDE9084500196941BDE8F04DA2E7C1F3F4
:100710000A52C1F3130140F2FF3341F480119A42AF
:1007200002DA00200146704740F233439A42A2F2B7
:10073000334202DC5242FFF76BBFFFF75ABF0000A3
:10074000064C074D06E0E06840F0010394E807001E
:1007500098471034AC42F6D3FFF7EEFC283D000872
:10076000483D000800BFFEE7704700B54FF47A71BE
:10077000484301E001F0CEFA011EA0F10100F9D1D9
:1007800000BD000010B501F0ABFA0E48007850B97A
:1007900001F09CFA0B480078401C0A4908700120BF
:1007A00000F064F810BD07480078012807D101F077
:1007B00087FA002003490870012000F057F800BFB5
:1007C000F0E700000000002010B500F0CDF90A4865
:1007D000007830B9032000F0BBF901200649087009
:1007E00005E0032000F0A8F900200349087010205C
:1007F00000F03CF810BD00000100002010B52020E2
:1008000000F03AF8012817D11048007888B910A0F4
:1008100000F0DCFD1348006803F0E6F90446012C03
:1008200007D134B1000710490860BFF34F8FBFF301
:100830006F8F202000F01AF8402000F01DF80128EA
:1008400002D1402000F012F810BD0000020000208C
:10085000D4DAD6D0B6CFD6D0BBD6B8B47461736B69
:10086000310D0A002C00002004ED00E00149086071
:100870007047000014040140014600200022074B8D
:100880001B6803EA0102054B14331B680B4013B1CC
:100890000AB1012000E00020704700000004014080
:1008A0002DE9F04102460025002600200023002407
:1008B000002791F803C00CF00F0591F803C00CF06D
:1008C000100CBCF1000F03D091F802C04CEA0505F2
:1008D00091F800C0BCF1000F31D0146800202BE06B
:1008E0004FF0010C0CFA00F3B1F800C00CEA03065B
:1008F0009E4220D183004FF00F0C0CFA03F7BC434B
:1009000005FA03FC4CEA040491F803C0BCF1280F7B
:1009100006D14FF0010C0CFA00FCC2F814C00AE03A
:1009200091F803C0BCF1480F05D14FF0010C0CFA4F
:1009300000FCC2F810C0401C0828D1D31460B1F8E4
:1009400000C0BCF1FF0F34DD546800202EE000F140
:10095000080C4FF0010808FA0CF3B1F800C00CEADB
:1009600003069E4221D183004FF00F0C0CFA03F7CF
:10097000BC4305FA03FC4CEA040491F803C0BCF143
:10098000280F05D100F1080C08FA0CF8C2F8148001
:1009900091F803C0BCF1480F07D100F1080C4FF0EB
:1009A000010808FA0CF8C2F81080401C0828CED3C1
:1009B0005460BDE8F08100BFFEE700BFFEE770476E
:1009C00070B5002100230F22C47804B3154C2468AD
:1009D00004F4E064C4F5E064210AC1F10403CA40F0
:1009E000447804FA03F184781440214309010E4C41
:1009F0000678A155047804F01F050124AC40057861
:100A00006D11AD0005F1E025C5F8004109E004785D
:100A100004F01F050124AC40044D0678761145F81A
:100A2000264070BD0CED00E000E400E080E100E055
:100A300002490143024A1160704700000000FA05B4
:100A40000CED00E029B1064A92690243044B9A6119
:100A500004E0034A92698243014B9A6170470000A7
:100A60000010024030B500210022002400232D4D4B
:100A70006D6805F00C0121B1042905D0082923D1A6
:100A800005E0294D056022E0274D05601FE0254D5A
:100A90006D6805F47012234D6D6805F480340225ED
:100AA00005EB92421CB9214D554305600BE01D4DED
:100AB0006D6805F400351DB11C4D5543056002E01D
:100AC000194D5543056002E0174D056000BF00BF9A
:100AD000144D6D6805F0F0010909154D6B5C056852
:100AE000DD4045600F4D6D6805F4E061090A104D69
:100AF0006B5C4568DD4085600A4D6D6805F46051AA
:100B0000C90A0B4D6B5C4568DD40C560054D6D68DD
:100B100005F44041890B074D6B5CC568B5FBF3F5E7
:100B2000056130BD0010024000127A0000093D004E
:100B30003C0000204C00002004490968421D0123AC
:100B400093401943014A1160704700000C080140AE
:100B500004490968421D012393409943014A1160E9
:100B6000704700000C0801401348806940F0040001
:100B7000114988611148006820F07F400F490860E2
:100B8000081D006820F00F00091D0860081F00689C
:100B900040F04C50091F0860081D006840F0030039
:100BA000091D086005480C30006840F4E0700349F6
:100BB0000C3108607047000000100240000801403E
:100BC000024909888143014A118070470428004086
:100BD00001460020064A12880A40D0B2044A121F79
:100BE00012880A4012B108B1012000E000207047CD
:100BF0000428004010B50120FFF7EAFF012805D1C5
:100C0000FFF7DEFF0821024801F06CF910BD00007B
:100C10000018014010B500F001F810BD0CB500201F
:100C2000019000903348006840F4803031490860FA
:100C300000BF3048006800F4003000900198401C6C
:100C40000190009818B90198B0F5A06FF1D129482A
:100C5000006800F4003010B10120009001E0002095
:100C600000900098012843D12348006840F010000C
:100C7000214908600846006820F003000860084623
:100C8000006840F0020008601A484068194948604E
:100C90000846406848600846406840F48060486004
:100CA0000846406820F47C1048600846406840F4DC
:100CB000E81048600846006840F08070086000BF97
:100CC0000C48006800F000700028F9D0094840681E
:100CD00020F00300074948600846406840F00200E1
:100CE000486000BF0348406800F00C000828F9D1B4
:100CF0000CBD0000001002400020024010B52B483F
:100D00000068401C2949086029480068401C28499F
:100D1000086028480068401C26490860264800688A
:100D2000401C2549086025480068401C234908608C
:100D300023480068401C2249086022480068401C83
:100D40002049086020480068401C1F4908601F486F
:100D50000068401C1D4908601D480068401C1C4973
:100D600008601C480068401C1A4908601A4800685E
:100D7000401C1949086019480068401C1749086060
:100D800000BF502080F31188BFF34F8FBFF36F8FE8
:100D900000BF02F041FD18B14FF0805010490860CB
:100DA00000BF002080F3118800BF10BD500000205C
:100DB0005800002060000020680000207000002023
:100DC0007800002080000020880000209000002093
:100DD00098000020A0000020A8000020B000002003
:100DE00004ED00E010B51348006840F0010011491F
:100DF000086008464068104908400E4948600846A7
:100E000000680E4908400B4908600846006820F455
:100E1000802008600846406820F4FE0048604FF4D7
:100E20001F008860FFF7F6FE4FF00060044908607D
:100E300010BD0000001002400000FFF8FFFFF6FEAA
:100E400008ED00E010B50121880700F03EF8012808
:100E500009D10121800700F035F800F041FF802121
:100E6000014801F03FF810BD0008014010B5012114
:100E7000064800F02AF8012806D10121034800F0B5
:100E800021F803A000F0A2FA10BD000000100040FD
:100E900054494D360000000010B50121064800F00D
:100EA00014F8012806D10121034800F00BF803A033
:100EB00000F08CFA10BD00000014004054494D377A
:100EC0000D0A0000CA430282704730B50246002076
:100ED00000230024158A05EA0103958905EA010427
:100EE00013B10CB1012000E0002030BD10B540F27C
:100EF0002551304800F0A2F9012859D140F225517E
:100F00002C4800F073F92B4800F054FA2A49087075
:100F10002A48007868B908460078AA2848D10846C7
:100F20000078274908700120244908702549087075
:100F30003EE022480078012812D11F48007820495D
:100F4000204A127888541F480078401C1D490870B8
:100F50000846007805282BDB02201849087027E096
:100F600016480078022823D113480078AA2810D107
:100F70000621134801F0C4FE0F4800781049114AB9
:100F80001278885400200D49087001200E4908701D
:100F90000EE00020094908700B4908700621084836
:100FA00001F0AEFE044800780549064A12788854DC
:100FB00010BD0000004C00401E0000202600002054
:100FC00020000020270000201F00002010B540F264
:100FD00025513E4800F032F9012875D140F22551E3
:100FE0003A4800F003F9394800F0E4F9384908704C
:100FF00038A001F093FE38480078A8B9344800784A
:10100000FF2806D1012034490870002033490870B8
:101010005AE02F480078402856D103202E49087006
:1010200000202E4908704FE02B480078012812D18B
:10103000274800782A49294A127888542748007896
:10104000401C264908700846007803283CDB022033
:101050002149087038E020480078032813D11C4843
:1010600000782A2803D104201B4908702CE0184876
:1010700000781C49194A1278885418480078401C96
:101080001649087020E01448007802280AD1104858
:101090000078FE2818D100200F490870012012495D
:1010A000087011E00C48007804280DD10848007839
:1010B000262809D100200A49084A1278885406498E
:1010C000087001200849087010BD00000038014078
:1010D00004000020790000000E0000200F00002016
:1010E0000A000020280100200500002010B540F271
:1010F0002551364800F0A2F8012866D140F225516A
:10110000324800F073F8314800F054F93049087063
:101110003048007880B9084600785F2855D10846E5
:1011200000782D49087001202A4908702B49087061
:101130005F202B49088048E02648007801281BD111
:10114000234800782449254A1278885408462349C0
:101150000978405C224909880844214908801F48D1
:101160000078401C1D4908700846007807282CDBD1
:1011700002201849087028E016480078022824D177
:10118000134800781649098888420CD11048007825
:101190001149124A1278885400200E490870012023
:1011A0001049087011E000200A4908700D490870C4
:1011B0000821094801F0A4FD054800780649074ABE
:1011C0001278885408A001F0A9FD10BD0044004029
:1011D000100000201A000020120000201B00002038
:1011E0001C000020110000202400000010B5002287
:1011F000002340F66A14A14200D100BF0A12012464
:101200009440A3B2DC43048010BD21B1828942F432
:101210000052828104E082894DF6FF731A40828178
:10122000704702460020B1F5007F00D100BF13884F
:101230000B400BB1012000E00020704770B5024662
:10124000002400230025002040F66A16B14200D198
:1012500000BFC1F3421501F01F03012606FA03F394
:10126000012D02D19689334006E0022D02D1168A63
:10127000334001E0968A33400C12012606FA04F44A
:101280001688344013B10CB1012000E0002070BD7D
:10129000F0B50346002400260025002040F66A171A
:1012A000B94200D100BF1846C1F3421401F01F0635
:1012B000012707FA06F5012C01D10C3004E0022CBD
:1012C00001D1103000E014301AB107682F430760D5
:1012D00002E00768AF430760F0BD00002DE9F0476A
:1012E00086B005460E460024A24600BFA146002750
:1012F000B08900B100BF2F462C8A4CF6FF70044025
:10130000F08804432C82AC894EF6F3100440B08878
:1013100031890843718908430443AC81AC8A4FF694
:10132000FF400440B0890443AC8201A8FFF79AFB58
:101330001F48874202D1DDF810A001E0DDF80CA0C3
:10134000A88900F4004040B10AEBCA0000EB0A1083
:1013500031684900B0FBF1F807E00AEBCA0000EB86
:101360000A1031688900B0FBF1F86420B8FBF0F096
:1013700004012009642101FB1089A88900F40040C0
:1013800040B1322000EBC900B0FBF1F000F00700E3
:10139000044308E0322000EB09106421B0FBF1F0B7
:1013A00000F00F0004432C8106B0BDE8F087000078
:1013B0000038014001468888C0F308007047C1F337
:1013C00008028280704700BFFEE700000FB4054BA3
:1013D00010B503A9044A029800F0DAF810BC5DF8D1
:1013E00014FB0000A71D00082401002002E008C82B
:1013F000121F08C1002AFAD170477047002001E08F
:1014000001C1121F002AFBD1704700002DE9FF5FC8
:1014100082B00021DDE90430020DDDF840B0034365
:1014200018D044F61050A2F2FF324243151411981E
:1014300001281FD0A5EB0B00401C5FEA000A4FF00B
:1014400000064E4FDFF83891B046504615D5CAF128
:10145000000413E0119801244AA3012801D16FEA86
:101460000B010298119AC0E90031C0E9024206B0AE
:10147000BDE8F09FCBF10000DFE704460021404AC1
:10148000491842EB0450CDE9001012E0E00707D004
:1014900032463B4640464946FEF76BFF804689464A
:1014A00032463B4610461946FEF763FF06460F4696
:1014B0006410002CEAD1DDE90401DDE90023BAF172
:1014C000000F06DAFEF755FF42464B46FEF751FF86
:1014D00005E0FEF7C0FF42464B46FEF7BCFF044660
:1014E0000E460022284BFFF725F803D84FF0FF30B7
:1014F000014607E00022254B20463146FEF792FECA
:10150000FFF705F9102409E0002C0ADB0A2200236A
:10151000FFF73EF8039B30321A55641E50EA010271
:10152000F2D1641C039AC4F111031444119A012AE4
:1015300003D0012208430DD10AE0084304D0002063
:101540004FF0110B119072E7A3EB0B056D1E0DE030
:101550005B4504DD4FF0000205F1010504E003DA0C
:101560004FF00002A5F10105002AECD00298119974
:10157000C0E90231C0E9004579E7000000001440ED
:101580000000F03F300000000000F0430000E03FAA
:101590002DE9FF4F95B09B468946064600250FE290
:1015A000252877D100242746F84A0121059400E038
:1015B000044316F8013F203B01FA03F01042F7D133
:1015C00030782A2811D06FF02F033078A0F1300244
:1015D000092A16D8059A44F0020402EB820203EBB2
:1015E00042021044761C0590EFE759F8042B05924F
:1015F000002A03DA504244F40054059044F00204F7
:10160000761C30782E2816D116F8010F44F0040409
:101610002A280DD06FF02F023078A0F13003092B6B
:1016200009D807EB870302EB4303C718761CF3E7DF
:1016300059F8047B761C30786C280FD006DC4C28D7
:1016400017D068280DD06A2814D104E0742810D06F
:101650007A280FD10DE044F400140AE044F4801419
:1016600001E044F440147278824202D104F58014FF
:10167000761C761C307866280BD013DC582877D07F
:1016800009DC002875D04528F6D04628F4D0472834
:101690001AD19DE118E0632835D0642879D06528F7
:1016A00012D195E1702873D008DC6728F1D0692841
:1016B0006FD06E280DD06F2806D1B5E073282CD0DE
:1016C000752875D0782874D05A46179990476D1CA4
:1016D00075E1C4F30250022809D003280DD0D9F8CF
:1016E000001004280DD00D6009F1040967E1D9F854
:1016F0000010EA17C1E90052F6E7D9F800100D8092
:10170000F2E70D70F0E719F8041B8DF800100020C7
:101710008DF80100EA46012003E059F804AB4FF0D0
:10172000FF3061074FF0000102D40DE008F1010124
:101730008846B9420FDA8045F8DB1AF8081000290C
:10174000F4D108E008F1010188468142FADB1AF879
:1017500008100029F6D105985B46A0EB0807214642
:101760003846179A00F094FA284400EB080507E081
:101770004DE029E10DE01AF8010B5A461799904700
:10178000B8F10108F7D25B4621463846179A13E1B3
:1017900042E00A220092C4F302524FF0000A022AE9
:1017A00008D059F804CB032A4FEAEC710AD00DE0B7
:1017B00029E02AE009F1070121F00702F2E802C15D
:1017C000914609E00FFA8CFC4FEAEC71042A03D130
:1017D0004FFA8CFC4FEAEC71002907DA0A46002127
:1017E000DCF1000C61EB02012D2202E0220504D5A0
:1017F0002B228DF80420012203E0E20701D02022F1
:10180000F7E7904659E00A2102E010220DE010218E
:101810004FF0000A00910BE010224FF0000A44F054
:1018200004040827009203E008224FF0000A009207
:10183000C4F30252022A05D059F804CB0021032A2E
:1018400008D009E009F1070121F00702F2E802C11E
:10185000914605E01FFA8CFC042A01D10CF0FF0C24
:101860004FF00008220728D5702806D0009B83F08F
:10187000100353EA0A0305D00EE040228DF804203D
:10188000012208E05CEA010206D030228DF8042033
:101890008DF8050002229046009B83F0080353EA6E
:1018A0000A030AD15CEA010201D1620705D53022A0
:1018B0008DF804204FF001087F1E582804D034A072
:1018C00003900EA802900DE036A0F9E7534660465B
:1018D000009AFEF75DFE84460398825C0298401EE3
:1018E000029002705CEA0100F0D1029806A9081A81
:1018F00000F1200A600702D524F4803400E00127BB
:10190000574502DDA7EB0A0000E0002000EB0A01CA
:10191000009005984144401A0590E00306D45B46C8
:101920002146179A059800F0B3F90544002706E010
:1019300001A85A46C05D179990476D1C7F1C47450A
:10194000F6DBE0030CD55B462146179A059800F0BC
:101950009FF9054404E030205A46179990476D1CC2
:101960000099481E00900029F5DC08E002980299D1
:101970005A460078491C0291179990476D1CBAF19C
:101980000001AAF1010AF1DC65E10000092801006B
:1019900030313233343536373839616263646566E5
:1019A00000000000303132333435363738394142A7
:1019B000434445460000000000F058F90544761CF9
:1019C000307800287FF4ECAD19B02846BDE8F08FE0
:1019D000620700D4062709F1070222F0070CFCE891
:1019E0000223E14603F000485FEA080C02D00FF240
:1019F000702C0DE05FEA045C02D50FF2682C07E062
:101A00005FEAC47C02D00FF2602C01E0AFF2700CF0
:101A10004FF0FF3823F00043CDF850C065280CD0BC
:101A200006DC452809D046281DD047283DD13DE099
:101A3000662818D067287ED138E00021112F01DBFD
:101A4000112000E0781CCDE9000106A90EA8FFF7DF
:101A5000DDFCDDE90F010E9A03910021009207F1F0
:101A6000010A04914DE04FF000400097CDE90110CC
:101A700006A90EA8FFF7CAFCDDE90F0203920E9B30
:101A800011990022DDF80CA00093049211B9791C81
:101A900000EB010AB7EB0A0004D4C0F1FF3007F1F4
:101AA000010A0490AAEB0700019044E0012F00DA3C
:101AB00001270021112F01DD112000E03846CDE97A
:101AC000000106A90EA8FFF7A1FCDDE90F010E9A9F
:101AD0000391002104910092BA4621070CD4039986
:101AE000514500DA8A46BAF1010F05DD009AAAF1E4
:101AF0000101515C302908D0B84202DA10F1040F1C
:101B000006DA0121CDE9011015E0AAF10101E9E7AA
:101B1000002805DC049901440491AAEB000102E0CD
:101B2000411C514500DD8A460499401A401C019031
:101B30004FF000400290200704D40198504501DB8B
:101B4000CDF8048000208DF84F0002980DF14F076A
:101B5000B0F1004F25D02B200E9002984FF00208D4
:101B600000280CDA404202902D200E9007E00A2156
:101B70000298FEF7F7FC3031029007F8011DB8F12A
:101B80000001A8F10108F2DC02980028EFD1791ECB
:101B90000E980870307800F0200040F0450007F8FB
:101BA000020D12A8C01B00F107081498007800B1BC
:101BB000012000EB0A01019801EBE0710598414416
:101BC000401A401E0590E00306D45B462146179A52
:101BD000059800F05DF805441498007818B15A464D
:101BE000179990476D1CE00324D55B462146179A50
:101BF000059800F04DF805441CE00498002807DB28
:101C0000DDE90301884203DD0098405C179901E09B
:101C1000179930205A469047049805F10105401C59
:101C200004900198401E019004D12E205A46179925
:101C300090476D1CBAF10001AAF1010ADDDC05E054
:101C400017F8010B5A46179990476D1CB8F100011F
:101C5000A8F10108F4DC5B462146179A0598ABE62B
:101C60002D0000002B000000200000002DE9F041B5
:101C7000044600251E461746880404D405E039466C
:101C80002020B0476D1C641EF9D52846BDE8F081C0
:101C90002DE9F041044600251E469046C80301D5B3
:101CA000302700E02027880404D505E04146384667
:101CB000B0476D1C641EF9D52846BDE8F0810000D0
:101CC00000200149C8607047001001400348C06807
:101CD00040F001000149C860704700000010014059
:101CE0000A48806940F01000084988610848006887
:101CF00020F00F00064908600846006840F0030025
:101D000008600846C068C8607047000000100240C4
:101D10000010014000BF00BF00BF00BF00BF00BFF8
:101D200000BF00BF00BF00BF00BF00BF00BF00BFBB
:101D300000BF00BF00BF00BF00BF00BF00BF00BFAB
:101D400000BF00BF00BF00BF00BF00BF00BF00BF9B
:101D500000BF00BF00BF00BF00BF00BF00BF00BF8B
:101D600000BF00BF00BF00BF00BF00BF00BF00BF7B
:101D700000BF00BF00BF00BF00BF00BF00BF00BF6B
:101D800000BF00BF00BF00BF00BF00BF00BF00BF5B
:101D900000BF00BF00BF00BF00BF00BF00BF00BF4B
:101DA00000BF00BF704770B504460D46E0B200F0BA
:101DB000C3FF204670BD00001CB503220021012096
:101DC00001F04CFA0F4908600846006818B90EA0E7
:101DD000FFF7FCFA02E012A0FFF7F8FA00231A4618
:101DE00019460848006801F097FA134801210023BA
:101DF0008022CDE9001011A1134801F0C7FC01F0C9
:101E000093F91CBD38000020B6FED6B5D0C5BAC5C2
:101E1000C1BFB4B4BDA8CAA7B0DC0D0A0000000061
:101E2000B6FED6B5D0C5BAC5C1BFB4B4BDA8B3C996
:101E3000B9A60D0A0000000028000020737461722A
:101E4000745F7461736B0000F929000808B5012103
:101E50001420FEF7F7FD28208DF803000120ADF8CF
:101E6000000003208DF8020069460748FEF718FDC0
:101E700048208DF803007020ADF800006946034843
:101E8000FEF70EFD08BD00000008014000100140F3
:101E90001249896941F04001104A9161104909686D
:101EA000042202EB80030F229A4091430C4A1160F6
:101EB00011460968042202EB800303229A40114371
:101EC000074A116006490C310968421C01239340FE
:101ED0001943034A0C3211607047000000100240A1
:101EE00000180140C2684A40C260704710B54FF404
:101EF0004070FEF79DFD00F0C1FD00F0A7FE01203F
:101F0000FFF7C6FF0220FFF7C3FFFFF79FFFFFF7B2
:101F100053FF002010BD00002DE9F04105460E469C
:101F20001C4807681C480068001D00F015FF50B9E8
:101F30001948006890F82C1001208840174909685A
:101F4000814316480160681C38B936B112480168EF
:101F5000091D134800F040FF1AE07C190E48006884
:101F60004460BC4207D20C480168091D0D48006856
:101F700000F018FF0CE008480168091D0A480068D5
:101F800000F010FF09480068844201D2074804604D
:101F9000BDE8F081CC000020B8000020D000002077
:101FA00090020020C0000020BC000020E8000020BB
:101FB00010B5044600F01CFF23480068401C22496D
:101FC00008602248006840B920480460084600685C
:101FD00001280DD100F0C8F90AE01D48006838B9A1
:101FE0001A480068C06AE16A884201D8174804604C
:101FF00018480068401C1749086094F82C1001200C
:10200000884015490968084313490860E16A01EBF3
:102010008101124A02EB8100211D00F0DDFE00F07B
:10202000F9FE0B48006868B108480068C06AE16AB8
:10203000884207D24FF0805009490860BFF34F8FA4
:10204000BFF36F8F10BD0000C8000020B800002053
:10205000D4000020E4000020D0000020DC0100209B
:1020600004ED00E010B500F0C3FE10480068D0B9E0
:102070000F4800F087FE0F4800F084FE0C480E4920
:1020800008600C480D490860002210210A2001F068
:10209000E5F8064908600846006820B108A1034831
:1020A000006800F0F7FE00F0B5FE10BDFC00002057
:1020B000A4020020B8020020F4000020F800002054
:1020C000546D72510000000010B516E000F090FE53
:1020D0000C48C068C468201D00F03EFE0A48006835
:1020E000401E0949086009480068401E0749086009
:1020F00000F090FE204600F05FF8044800680028D9
:10210000E4D110BD7C020020C8000020C4000020E3
:1021100070B504460D46206C70B1216CE068014436
:10212000E160D4E90210884201D32168E1602846C9
:10213000226CE168FEF764F870BD2DE9F0410446B9
:102140000F4615464FF00008A66B206C48B9206872
:1021500000282CD1A06801F0EDFB80460020A06093
:1021600025E07DB93946226C6068FEF749F8216C9C
:10217000606808446060D4E90101884217D3206890
:10218000606014E03946226CE068FEF739F8216C93
:10219000E068411AE1602168E068884203D2216C5E
:1021A000A068411AE160022D01D106B1761E701CB3
:1021B000A0634046BDE8F08110B50446206B00F0F6
:1021C00039FE204600F036FE10BD01464A6A22B1B3
:1021D0000A6B1268C2F1050000E0002070470000A1
:1021E0000146084A126812680AB9012200E000227A
:1021F0000A600A6822B9034A1268D268106800E0CF
:1022000000207047F400002030B54FF48843174891
:1022100000F007042CB1C01D20F00700134C041B74
:102220001B1B0246124C22600024114D6C60D0181A
:10223000083820F007000F4C206000240D4D2D6859
:102240006C600C4D2D682C601146441A4C60094C92
:1022500024680C60084D4C682C60084D4C682C605C
:102260004FF00044064D2C6030BD0000CC02002031
:102270000801002010010020180100201401002096
:102280001C01002000BFFFF71FFF0648006801285F
:10229000F9D94FF0805004490860BFF34F8FBFF366
:1022A0006F8FF0E7DC01002004ED00E02DE9F04144
:1022B00006460D4617469846069C0DB9246000E078
:1022C0002760E66325640121204600F0E5FF002039
:1022D000A064BDE8F0812DE9FF5F80460E4691467F
:1022E000DDE90E7A109CA9F10100216B01EB800B56
:1022F0002BF0070B86B1002507E0715D04F1340077
:102300004155705D00B902E06D1C102DF5D300BF82
:1023100000214320015502E0002084F83400052FFD
:1023200000D30427E76267640020A064201D00F04A
:1023300036FD04F1180000F032FD2461C7F10500FC
:10234000A06164620020E06484F850004146584671
:10235000039A00F03FFB2060BAF1000F01D0CAF8E9
:102360000040BDE8FF9F000010B5002407E004EB2B
:1023700084010F4A02EB810000F004FD641C052C6F
:10238000F5D30C4800F0FEFC0B4800F0FBFC0B48BA
:1023900000F0F8FC0A4800F0F5FC0A4800F0F2FCF6
:1023A00004480949086004480849086010BD000055
:1023B000DC010020400200205402002068020020BE
:1023C0007C02002090020020BC000020C000002001
:1023D00010B50146164800E0006803688B42FBD345
:1023E0000246436813448B4204D143684C6823443B
:1023F000436001460A464B6813440468A34211D166
:102400000C4C03682468A34208D04B6804686468D5
:1024100023444B6003681B680B6005E0054B1B6899
:102420000B6001E003680B60884200D0016010BDC2
:1024300008010020100100202DE9F04104460D465E
:1024400016461F464FF0000865602461B5420CD85F
:10245000F01BA169884202D34FF0010811E0211D51
:102460000948006800F09EFC0BE0BE4204D2BD4269
:1024700002D34FF0010804E0211D0448006800F079
:1024800091FC4046BDE8F081F8000020F4000020F7
:1024900070B5054600F0ACFCA86B08B9012400E05B
:1024A000002400F0B7FC204670BD70B5054600F072
:1024B0009FFCA86BE96B884201D1012400E0002455
:1024C00000F0A8FC204670BD2DE9F3410D460098B0
:1024D000846C0027A06BE16B88421BD294F94560A5
:1024E0002A4669462046FFF728FE0746701C60B959
:1024F000606A08B9012000E0002050B904F124000E
:1025000001F0BEFA28B1012703E0701C40B284F844
:10251000450000BF3846BDE8FC810000F8B505461F
:102520000E4614480068C068C468201D00F014FC02
:1025300094F8240000F0040088B1A06941192B46EA
:1025400032462046FFF778FF78B1002003462A463E
:1025500001460090204601F0B1FB074605E094F8E3
:10256000240020F0010084F824002046216A8847D6
:10257000F8BD0000F4000020F0B587B076E00398C5
:10258000002805DA04AED6E90020B168904700BF04
:10259000039800286ADB059C606908B9012000E007
:1025A000002010B9201D00F0D7FB02A800F0BEF8F3
:1025B000054603980A2857D2DFE800F00905072DE1
:1025C000354606082E3600BF00BF00BF00BF94F896
:1025D000240040F0010084F824000498A2698118C6
:1025E00003462A462046FFF727FF98B12046216A76
:1025F000884794F8240000F0040058B100200090AF
:102600000498A169421800231946204601F056FBA0
:10261000074600BF29E000BF94F8240020F0010025
:1026200084F8240021E000BF94F8240040F0010069
:1026300084F824000498A061A06941192B462A4619
:102640002046FFF7F9FE10E094F8240000F00200A5
:1026500018B9204600F0EEFB05E094F8240020F0C5
:10266000010084F8240000E000BF00BF002203A99D
:102670000348006800F042FF002880D107B0F0BD99
:10268000FC000020F8B505460C4600F085FD6846C4
:1026900000F04CF80646009820BB44B9B54206D875
:1026A00001F02EFA31462846FFF738FF1CE03CB116
:1026B0000E480068006808B9012000E000200446C8
:1026C000A91B22460A48006800F0FAFB01F018FA3C
:1026D00050B94FF0805007490860BFF34F8FBFF3E8
:1026E0006F8F01E001F00CFAF8BD0000F800002047
:1026F000FC00002004ED00E00A490968096809B9F6
:10270000012100E0002121B14FF0FF31064A1160A4
:1027100006E004490968C968C868034A416811604D
:1027200070470000BC000020E800002070B504469F
:1027300001F06CF8054607480068854204D200F0B5
:102740000BF80120206001E00020206001480560B6
:10275000284670BD040100202DE9F84328E01E48FA
:102760000068C06805681C480068C068C468201D0F
:1027700000F0F2FA2046216A884794F8240000F01D
:102780000400A8B1A0694619AE4207D96660246169
:10279000211D1148006800F005FB09E000200346F8
:1027A0002A4601460090204601F088FA804600BF84
:1027B00009480068006808B9012000E000200028EE
:1027C000CDD00548076805480068034908600348FC
:1027D0000760BDE8F8830000F4000020F800002046
:1027E00000BF502080F31188BFF34F8FBFF36F8F6E
:1027F00000BF00BFFEE7000010B5014600200A46FA
:102800000B4C5369A34201D1012300E0002373B1B3
:10281000084C936AA34201D1012300E0002333B99D
:10282000936A0BB9012300E0002303B1012010BD1E
:10283000900200206802002008B500BF6846FFF73C
:10284000CFFC044620460099FFF71CFFFFF794FEDB
:10285000F4E770B5044600F0CBFA94F945501AE05D
:10286000A06C38B100212046FFF72EFE88B100F0A1
:10287000D9FB0EE0606A08B9012000E0002038B9F9
:1028800004F1240001F0FCF818B100F0CBFB00E0EB
:1028900003E0681E45B2002DE2DC00BFFF2084F893
:1028A000450000F0B7FA00F0A3FA94F9445010E0A4
:1028B000206908B9012000E0002048B904F11000A7
:1028C00001F0DEF808B100F0ADFB681E45B200E093
:1028D00001E0002DECDC00BFFF2084F8440000F094
:1028E00099FA70BD2DE9F04105464FF0000800F05F
:1028F00053FC2B48006808B9FFF786FC294800689C
:102900002840002847D145B1083505F0070020B11F
:1029100005F00700C0F108000544002D3BD0224817
:102920000068854237D8214E3046046801E02646CB
:1029300024686068A84202D220680028F7D11848AD
:102940000068844227D0306800F1080820683060B1
:102950006068401B102807D967196068401B7860C1
:1029600065603846FFF734FD0F4960680968081A4A
:102970000D490860084600680D490968884203D27D
:10298000094800680A490860064960680968084300
:1029900060600020206001F0B3F84046BDE8F0819F
:1029A000100100201C01002014010020080100205B
:1029B000180100200648006830B10549096801F196
:1029C0004800896C491C016001480068704700009C
:1029D000B8000020001F4FF080730360001F21F03B
:1029E00001030360001F034B0360143802602038AA
:1029F00070470000E12700081CB5044600F0F8F914
:102A00001248022100238022CDE9001010A11248B3
:102A100000F0BCFE1148032100238022CDE9001004
:102A20000FA1114800F0B2FE0C48042100238022BF
:102A3000CDE900100DA10F4800F0A8FE0E48006877
:102A400000F07EFA00F0E6F91CBD00002C0000202A
:102A50007461736B31000000D12A0008300000203F
:102A60007461736B320000006D2B00087461736B2E
:102A700033000000AD2B00082800002030B51149BC
:102A8000481EB0F1807F00D31BE0481E4FF0E022CB
:102A9000506150170F22002804DB13071C0E0A4B4D
:102AA0001C5406E013071D0E084B00F00F04241FF2
:102AB0001D5500BF00204FF0E022906107201061FB
:102AC00000BF30BD4019010000E400E018ED00E057
:102AD00010A0FEF77BFC1CE012A0FEF777FC4FF085
:102AE000FF311448006800F08BFD13A0FEF76EFC68
:102AF00040F6B830FDF739FE15A0FEF767FC00235D
:102B00001A4619460B48006800F006FC0A2000F03F
:102B1000FDF9E1E7C8CECEF131D5FDB3A3D4CBD0DA
:102B2000D00D0A00BBF1C8A1D0C5BAC5C1BF0D0AFE
:102B30000000000038000020B5CDD3C5CFC8BCB61A
:102B4000C8CECEF1D5FDD4DAD4CBD0D00D0A00005A
:102B5000B5CDD3C5CFC8BCB6C8CECEF1CACDB7C5EA
:102B6000D0C5BAC5C1BF0D0A0000000005A0FEF720
:102B70002DFC06E007A0FEF729FC4FF47A7000F068
:102B8000C5F9F7E7C8CECEF132D5FDB3A3D4CBD08B
:102B9000D00D0A00D6D0D3C5CFC8BCB6C8CECEF1B2
:102BA000D5FDD4DAD4CBD0D00D0A000011A0FEF7A9
:102BB0000DFC1DE013A0FEF709FC4FF0FF31154896
:102BC000006800F01DFD14A0FEF700FC4FF47A70C1
:102BD000FDF7CBFD16A0FEF7F9FB00231A461946B8
:102BE0000C48006800F098FB4FF47A7000F08EF902
:102BF000E0E70000C8CECEF133D5FDB3A3D4CBD0EF
:102C0000D00D0A00BBF1C8A1D0C5BAC5C1BF0D0A1D
:102C10000000000038000020B8DFD3C5CFC8BCB624
:102C2000C8CECEF1D5FDD4DAD4CBD0D00D0A000079
:102C3000B8DFD3C5CFC8BCB6C8CECEF1CACDB7C5F4
:102C4000D0C5BAC5C1BF0D0A0000000000B587B0ED
:102C500001210420FDF7F6FE18208DF81B004FF42B
:102C60000070ADF8180003208DF81A0006A922485C
:102C7000FDF716FE04208DF81B000002ADF81800C9
:102C800006A91D48FDF70CFE01218803FDF7DAFEB9
:102C9000002002900390049005904FF4E1300290E0
:102CA0000020ADF814000C20ADF812000020ADF8A3
:102CB0001000ADF80E00ADF80C0002A90F48FEF7A9
:102CC0000DFB012240F225510C48FEF7E1FA2520C8
:102CD0008DF8040001208DF8070004208DF8050010
:102CE00000208DF8060001A8FDF76AFE01210348C7
:102CF000FEF78BFA07B000BD000801400038014024
:102D000070B505460E46002400BF04E0285D00F0C3
:102D100013F8601C84B2B442F8DB70BD70B5044691
:102D2000002500BF04E0605D00F006F8681CC5B235
:102D3000605D0028F7D170BD10B5044600BF40218A
:102D40000448FEF76EFA0128F9D121460148FEF742
:102D500036FB10BD0038014001460A69D1E9013057
:102D60009860D1E9010358605068884201D18868B1
:102D70005060002008611068401E106010687047A5
:102D800000BFFEE700F1080141604FF0FF318160B4
:102D900000F10801C160016100210160704700215C
:102DA0000161704710B502460B685C1C0CB91069D4
:102DB00007E002F1080000E04068446824689C4293
:102DC000FAD944684C604C68A160886041600A612F
:102DD0001468641C146010BD42684A6093688B607C
:102DE000936859609160086103685B1C03607047D9
:102DF00000BF502080F31188BFF34F8FBFF36F8F58
:102E000000BF03480068401C01490860704700008B
:102E10002001002006480068401E05490860084659
:102E2000006820B9002080F3118800BF00BF704700
:102E30002001002070B506463546D6B1083D2C4627
:102E40000C4960680968084098B1206888B9094948
:102E5000606809688843606000F09EF90649606810
:102E600009680844044908602046FFF7B1FA00F0F9
:102E700047FE70BD1C0100201401002000204FF00F
:102E8000E0210861886102484861072008617047B5
:102E90003F190100024600200BE0084B53F8303088
:102EA00033B9064B43F8301003EBC0035A6002E01D
:102EB000401C0A28F1D300BF704700008C0100209D
:102EC0002DE9F04105460E4617462C46FFF790FFC8
:102ED00094F94400401C10B9002084F8440094F98F
:102EE0004500401C10B9002084F84500FFF792FF10
:102EF000A06B28B93A46314604F1240000F0A8F846
:102F00002046FFF7A6FCBDE8F081000070B504463E
:102F1000002544B100F040F900212046FEF7FCFFF7
:102F200000F0EEFD05463DB94FF0805003490860C2
:102F3000BFF34F8FBFF36F8F70BD000004ED00E053
:102F400070B50546FFF754FF15B92748006800E043
:102F500028460446201DFFF7FFFE78B9E06A00EB23
:102F60008000224951F8200040B994F82C1001202B
:102F700088401F49096881431D480160A06A18B153
:102F800004F11800FFF7E8FE1A480068401C1949D0
:102F9000086015480068844209D1211D1648FFF7D2
:102FA0001BFF16480068401C1449086009E01448DB
:102FB0000068401E124908602046FFF7FDF8FFF741
:102FC0009BFBFFF727FF0F48006858B106480068D1
:102FD000844207D14FF080500B490860BFF34F8FF8
:102FE000BFF36F8F70BD0000B8000020DC0100202F
:102FF000D0000020E40000207C020020C40000205B
:10300000C8000020D400002004ED00E00349096856
:10301000016003490968416070470000E00000203A
:10302000CC0000200120014908607047DC0000202E
:1030300070B505460C460548016818312846FFF76B
:10304000B1FE01212046FEF767FF70BDB8000020E9
:1030500070B506460D4614460648016818313046DC
:10306000FFF7BAFE0CB14FF0FF3521462846FEF7B8
:1030700053FF70BDB80000202DE9F04706460F460B
:1030800034464FF00109002E47D0606CB84201D29F
:103090003D4600E0656CE06AA8423ED0A06C012885
:1030A0003BD1D4F82C80E562A06900F0004010B953
:1030B000C5F10500A06108EB8801194A02EB810106
:1030C0006069884201D1012000E0002028B3201D62
:1030D000FFF742FE78B9E06A00EB8000104951F832
:1030E000200040B994F82C10012088400D4909684F
:1030F00081430C48016094F82C1001208840094954
:103100000968084307490860E16A01EB8101044A44
:1031100002EB8100211DFFF75FFEBDE8F087000094
:10312000DC010020D00000201CB5144800210B4613
:103130008022CDE9001012A1134800F027FB0446BD
:10314000012C02D100F09CFD0446012C14D100BFDB
:10315000502080F31188BFF34F8FBFF36F8F00BFF4
:103160004FF0FF300949086001200949086000203C
:103170000849086000F058F81CBD0000EC00002071
:1031800049444C450000000085220008E80000206A
:10319000D4000020CC00002002480068401C0149F7
:1031A00008607047F000002010B51A48006818B198
:1031B0000120194908602BE00020174908601748D2
:1031C0000068006815490968096B884205D81348EA
:1031D000016834310068FFF7D3FD11480068B0FA88
:1031E00080F0C0F11F0101EB81020E4B03EB820066
:1031F00042685268426000F108024368934202D17B
:103200004268526842604268D268044B1A6000BF4C
:1032100010BD0000F0000020DC000020B8000020FD
:10322000D0000020DC01002010B50A48006840F4FE
:103230007F00084908600846006840F07F40086049
:10324000FFF71CFE002004490860FCF78DFF0020FA
:1032500010BD000020ED00E0200100202DE9F84322
:1032600007460D4690460DB9002601E007FB05F61E
:1032700006F14C00FFF736FB04464CB1A14609F1BC
:103280004C0943464A46294638460094FFF70EF853
:103290002046BDE8F883000070B505460E462C4672
:1032A000FFF7A6FDD4E90F12206801FB0200A06021
:1032B0000020A06320686060E06B401E226C2168E3
:1032C00000FB0211E160FF2084F8440084F845000F
:1032D0009EB9206908B9012000E00020A8B904F1D6
:1032E000100000F0CDFB80B14FF08050094908601C
:1032F000BFF34F8FBFF36F8F07E004F11000FFF7AC
:1033000041FD04F12400FFF73DFDFFF783FD01209F
:1033100070BD000004ED00E02DE9FF4782B00746D4
:1033200088461D464FF000093C4600BFFFF760FD90
:10333000A06BE16B884201D3022D3FD1D4F838A0B5
:103340002A4641462046FEF7F8FE0646A06C90B19C
:10335000022D02D1BAF1000F2AD129462046FFF7EB
:10336000B3F828B34FF080503C490860BFF34F8F4B
:10337000BFF36F8F1CE0606A08B9012000E00020F5
:1033800068B904F1240000F07BFB88B14FF0805055
:1033900032490860BFF34F8FBFF36F8F08E03EB133
:1033A0004FF080502D490860BFF34F8FBFF36F8FF0
:1033B000FFF730FD012006B0BDE8F087049818B98A
:1033C000FFF728FD0020F6E7B9F1000F04D16846A9
:1033D000FFF71CFE4FF00109FFF71CFDFFF7DCFEB5
:1033E000FFF706FD94F94400401C10B9002084F852
:1033F000440094F94500401C10B9002084F84500B1
:10340000FFF708FD04A9684600F092F9F8B92046D4
:10341000FFF74BF8A8B104F110000499FFF708FE7C
:103420002046FFF716FA00F06BFB00287FF47EAF12
:103430004FF0805009490860BFF34F8FBFF36F8F83
:1034400074E72046FFF705FA00F05AFB6EE72046C6
:10345000FFF7FFF900F054FB0020ACE704ED00E0BB
:103460002DE9F05F06468A4615461F46344600BFE2
:103470005021EFF3118081F31188BFF34F8FBFF319
:103480006F8F00BF8146A06BE16B884201D3022F92
:103490002BD194F945B03A4651462046FEF74DFEF1
:1034A0000BF10100C8B9A06C40B139462046FFF7C6
:1034B0000BF8B8B1B5B10120286013E0606A08B913
:1034C000012000E0002068B904F1240000F0D8FADF
:1034D00040B13DB10120286004E00BF1010040B291
:1034E00084F845004FF0010801E04FF0000800BFEC
:1034F00089F3118800BF4046BDE8F09F2DE9F741F0
:1035000083B005460F464FF000082C4600BFFFF77A
:103510006FFCA66BF6B139462046FEF7F9FD701E2A
:10352000A063206908B9012000E0002060B904F11F
:10353000100000F0A5FA38B14FF080502F49086014
:10354000BFF34F8FBFF36F8FFFF764FC012006B00E
:10355000BDE8F081059818B9FFF75CFC0020F6E79C
:10356000B8F1000F04D101A8FFF750FD4FF001089A
:10357000FFF750FCFFF710FEFFF73AFC94F9440008
:10358000401C10B9002084F8440094F94500401C08
:1035900010B9002084F84500FFF73CFC05A901A8FC
:1035A00000F0C6F8F0B92046FEF772FFA0B104F1B2
:1035B00024000599FFF73CFD2046FFF74AF900F08B
:1035C0009FFA0028A3D14FF080500C490860BFF348
:1035D0004F8FBFF36F8F9AE72046FFF73AF900F05D
:1035E0008FFA94E72046FFF734F900F089FA204675
:1035F000FEF74EFF00288AD00020A8E704ED00E087
:103600002DE9F34182B0054600272C46B84600BF9D
:10361000FFF7EEFBA66BFEB1701EA063206810B929
:10362000FFF7C8F9A060206908B9012000E0002078
:1036300060B904F1100000F023FA38B14FF0805067
:103640003A490860BFF34F8FBFF36F8FFFF7E2FB7C
:10365000012004B0BDE8F081039818B9FFF7DAFB48
:103660000020F6E71FB96846FFF7D0FC0127FFF7F7
:10367000D1FBFFF791FDFFF7BBFB94F94400401C21
:1036800010B9002084F8440094F94500401C10B99A
:10369000002084F84500FFF7BDFB03A9684600F051
:1036A00047F840BB2046FEF7F3FEF0B1206838B97A
:1036B000FFF79EFBA06800F07FF98046FFF7AAFBAA
:1036C00004F124000399FFF7B3FC2046FFF7C1F88B
:1036D00000F016FA00289BD14FF080501349086083
:1036E000BFF34F8FBFF36F8F92E72046FFF7B1F81C
:1036F00000F006FA8CE72046FFF7ABF800F000FA7E
:103700002046FEF7C5FE002882D0B8F1000F0BD08E
:10371000FFF76EFB2046FEF758FD06463146A068CF
:10372000FFF7AAFCFFF776FB002092E704ED00E02C
:1037300070B506460C46FFF75BFB124802687068DE
:10374000131A2068401C08B9002517E00E4930689C
:103750000968884204D07068904201D801250DE0C4
:103760002068984207D92068C01A20603046FFF7C9
:103770004DFC002502E0002020600125FFF74AFBF8
:10378000284670BDCC000020E00000202DE9FF4F4E
:1037900085B0804689461746DDE912ABB800FFF7D1
:1037A000A1F8064656B15420FFF79CF804460CB128
:1037B000266304E03046FFF73DFB00E000247CB1C7
:1037C0000020CDE900ABCDE902403A4649464046EB
:1037D000089BFEF780FD2046FEF7EAFB012501E08D
:1037E0004FF0FF35284609B0BDE8F08F054909685C
:1037F00009B9012005E00449096809B9022000E07F
:1038000000207047D4000020F00000200149086823
:1038100070470000CC0000202DE9F04100273A4815
:103820000068002863D139480068451C37480560A6
:103830008DB93748D0F800803648006834490860B0
:103840003448C0F8008034480068401C32490860A1
:10385000FEF752FF00BF3148006885423BD300BFEE
:103860002B480068006808B9012000E0002020B162
:103870004FF0FF30294908602CE025480068C068F7
:10388000C4686668B54202D22448066022E0201D62
:10389000FFF762FAA06A18B104F11800FFF75CFAAA
:1038A00094F82C10012088401D49096808431C49E0
:1038B0000860E16A01EB81011A4A02EB8100211DD7
:1038C000FFF78AFA1849E06A0968C96A8842C7D3CB
:1038D0000127C5E700BF14480068C06A00EB8000FC
:1038E000104951F82000012800D9012704E00F48B1
:1038F0000068401C0D4908600D48006800B10127B0
:103900003846BDE8F0810000F0000020CC00002027
:10391000BC000020C0000020E0000020E8000020E3
:10392000D0000020DC010020B8000020D8000020DA
:10393000DC00002070B505462C460026ADB3A06C17
:10394000401EA064616CE06A88422ED0A06C60BB0F
:10395000201DFFF701FA78B9E06A00EB80001449F6
:1039600051F8200040B994F82C10012088401149EA
:10397000096881430F480160606CE062E06AC0F151
:103980000500A06194F82C100120884009490968BD
:10399000084308490860E16A01EB8101044A02EB2F
:1039A0008100211DFFF718FA0126304670BD000086
:1039B000DC010020D000002070B505462C46002612
:1039C000002D54D02B49E06A0968C96A884247D261
:1039D000A06900F0004028B926480068C06AC0F11C
:1039E0000500A061E16A01EB8101234A02EB81013C
:1039F0006069884201D1012000E0002050B3201D01
:103A0000FFF7AAF978B9E06A00EB80001A4951F88B
:103A1000200040B994F82C1001208840174909680B
:103A200081431648016013480068C06AE06294F858
:103A30002C10012088401149096808430F4908608B
:103A4000E16A01EB81010C4A02EB8100211DFFF7C5
:103A5000C3F903E007480068C06AE062012606E097
:103A60000449606C0968C96A884200D20126304660
:103A700070BD0000B8000020DC010020D000002054
:103A800070B50646F068C46804F11800FFF764F9E1
:103A900015480068A8B9201DFFF75EF994F82C10AE
:103AA0000120884011490968084310490860E16A0B
:103AB00001EB81010E4A02EB8100211DFFF78CF919
:103AC00004E004F118010B48FFF786F90A49E06A9F
:103AD0000968C96A884204D901250120074908609C
:103AE00000E00025284670BDF0000020D000002036
:103AF000DC01002068020020B8000020DC0000206B
:103B000070B500240026FFF773F92E480068401EA8
:103B10002C4908600846006800284FD12A480068F0
:103B200000284BD024E02948C068C46804F118007C
:103B3000FFF712F9201DFFF70FF994F82C10012060
:103B4000884023490968084321490860E16A01EB7C
:103B50008101204A02EB8100211DFFF73DF91E493A
:103B6000E06A0968C96A884202D301201B490860DB
:103B70001648006808B9012000E000200028D2D0D3
:103B80000CB1FEF7B9FD1648056865B100BFFFF737
:103B900043FE10B10120114908606D1E002DF6D1C1
:103BA00000200F4908600D48006838B10126300731
:103BB0000C490860BFF34F8FBFF36F8FFFF72AF9EF
:103BC000304670BDF0000020C800002068020020D0
:103BD000D0000020DC010020B8000020DC00002024
:103BE000D800002004ED00E02DE9F0410646002752
:103BF000344600BF5021EFF3118081F31188BFF3E9
:103C00004F8FBFF36F8F00BF05462046FEF7F4FDD0
:103C100020B316480068E0B91549E06A0968C96A26
:103C2000884200D30127201DFFF796F894F82C1046
:103C3000012088400F49096808430E490860E16A7D
:103C400001EB81010C4A02EB8100211DFFF7C4F852
:103C500004E004F118010948FFF7BEF800BF85F33E
:103C6000118800BF3846BDE8F0810000F000002058
:103C7000B8000020D0000020DC01002068020020F5
:103C80001CB50024FEF7EEF90748006850B107485C
:103C9000042100238A01CDE9001005A10648FFF7A1
:103CA00075FD044620461CBDFC00002000010020DC
:103CB000546D722053766300392800082DE9FF47C0
:103CC00005460C4616461F46DDF830804FF00009C9
:103CD0001448006810B3009401960295062C15DA7A
:103CE000FFF784FD022808D10023424669460D48AB
:103CF0000068FFF711FB814610E000231A46694671
:103D000008480068FFF708FB814607E000233A46B1
:103D1000694604480068FFF7A3FB8146484604B0A3
:103D2000BDE8F087FC000020483D000800000020AE
:103D300028010000EC130008703E00082801002054
:103D4000A8490000FC13000800000000000000006B
:103D50000000000000000000000000000000000063
:103D6000000000005F0000000000000000000000F4
:103D70000000000000000000000000000000000043
:103D8000000000000000000001020304010203041F
:103D9000060708090204060800000000F4010000FC
:103DA00000000000140000000000000000000000FF
:103DB0000000000000000000000000000000000003
:103DC000000000000F0000000000000014000000D0
:103DD00000000000F40100000000000014000000DA
:103DE00000000000140000000000000014000000AB
:103DF000000000001400000000000000140000009B
:103E000000000000000000000000000000000000B2
:103E100000000000000000000000000000000000A2
:103E20000000000000000000000000000000000092
:103E30000000000000000000000000000000000082
:103E40000000000000000000000000000000000072
:103E50000000000000000000000000000000000062
:103E60000000000000000000AAAAAAAA00000000AA
:0400000508000131BD
:00000001FF
